:100000000C9477020C9494020C9494020C94940235
:100010000C9494020C941A060C9494020C9494027E
:100020000C9494020C9494020C9494020C949402F8
:100030000C9494020C9409060C9494020C9494026F
:100040000C9494020C9494020C9494020C949402D8
:100050000C9494020C9494020C9494020C949402C8
:100060000C9494020C9494026E616E00696E6600AA
:100070006364696E6F70737578585B656667454633
:100080004700616E006E66696E69747900CDCCCCF4
:100090003D0AD7233C17B7D13877CC2B329595E65C
:1000A000241FB14F0A000020410000C84200401C3C
:1000B0004620BCBE4CCA1B0E5AAEC59D74256C644E
:1000C0002C25642C25642C256C642C256C640D0A6D
:1000D00000256C6420256C640D0A00256C642C25B9
:1000E000642C25642C256C642C256C640D0A00742A
:1000F000696D65287573292C7265666572656E6316
:10010000652063757272656E74286D41292C637564
:100110007272656E74286D41292C6361727420704F
:100120006F736974696F6E28756D292C70656E64C4
:10013000756C756D20616E676C65286D64656729E7
:100140000D0A00256C642C25642C25642C256C6418
:100150002C256C640D0A0074696D65287573292C53
:100160007265666572656E63652063757272656E31
:1001700074286D41292C63757272656E74286D4107
:10018000292C6361727420706F736974696F6E28B3
:10019000756D292C70656E64756C756D20616E6768
:1001A0006C65286D646567290D0A00256C642C2533
:1001B000642C25642C256C642C256C640D0A007459
:1001C000696D65287573292C7265666572656E6345
:1001D000652063757272656E74286D41292C637594
:1001E0007272656E74286D41292C6361727420707F
:1001F0006F736974696F6E28756D292C70656E64F4
:10020000756C756D20616E676C65286D6465672916
:100210000D0A00256C642C25642C25642C256C6447
:100220002C256C640D0A0074696D65287573292C82
:100230007265666572656E63652063757272656E60
:1002400074286D41292C63757272656E74286D4136
:10025000292C6361727420706F736974696F6E28E2
:10026000756D292C70656E64756C756D20616E6797
:100270006C65286D646567290D0A00256C642C2562
:10028000642C25642C256C642C256C640D0A007488
:10029000696D65287573292C7265666572656E6374
:1002A000652063757272656E74286D41292C6375C3
:1002B0007272656E74286D41292C636172742070AE
:1002C0006F736974696F6E28756D292C70656E6423
:1002D000756C756D20616E676C65286D6465672946
:1002E0000D0A00256C642C256C642C25642C256477
:1002F0000D0A00000306090C0F1215181C1F2225F9
:10030000282B2E3134373A3D4044474A4D4F525501
:10031000585B5E6164676A6D6F7275787A7D808301
:1003200085888B8D909295979A9C9FA1A4A6A8AB47
:10033000ADAFB2B4B6B8BABCBFC1C3C5C7C9CACCE9
:10034000CED0D2D4D5D7D9DADCDDDFE0E2E3E5E602
:10035000E7E9EAEBECEDEFF0F1F2F3F4F4F5F6F7A0
:10036000F8F8F9FAFAFBFBFCFCFDFDFDFEFEFEFED3
:10037000FEFEFEFFFEFEFEFEFEFEFEFDFDFDFCFCA3
:10038000FBFBFAFAF9F8F8F7F6F5F4F4F3F2F1F00A
:10039000EFEDECEBEAE9E7E6E5E3E2E0DFDDDCDA0E
:1003A000D9D7D5D4D2D0CECCCAC9C7C5C3C1BFBC9A
:1003B000BAB8B6B4B2AFADABA8A6A4A19F9C9A97A9
:1003C0009592908D8B888583807D7A7875726F6D1C
:1003D0006A6764615E5B5855524F4D4A4744403DE1
:1003E0003A3734312E2B2825221F1C1815120F0CDA
:1003F00009060300407A10F35A00A0724E18090053
:1004000010A5D4E80000E87648170000E40B540279
:100410000000CA9A3B000000E1F5050000809698B4
:1004200000000040420F000000A086010000001004
:100430002700000000E80300000000640000000046
:10044000000A00000000000100000000002C76D827
:1004500088DC674F0823DFC1DFAE59E1B1B796E50D
:10046000E3E453C63AE651997696E8E6C28426EB71
:10047000898C9B62ED407C6FFCEFBC9C9F40F2BA84
:10048000A56FA5F490055A2AF75C936B6CF9676D1C
:10049000C11BFCE0E40D47FEF520E6B500D0ED9071
:1004A0002E0300943577050080841E080000204E3E
:1004B0000A000000C80C333333330F986E128311D7
:1004C00041EF8D2114893BE65516CFFEE6DB18D1AE
:1004D000844B381BF77C1D901DA4BBE42420328480
:1004E000725E228100C9F124ECA1E53D27001124B0
:1004F0001FBECFEFD8E0DEBFCDBF11E0A0E0B1E07E
:10050000EAE7F8E402C005900D92A631B107D9F7E9
:1005100021E0A6E1B1E001C01D92A632B207E1F7E9
:100520000E94DD1E0C943B240C9400009091C000AE
:1005300095FFFCCF8093C60080E090E00895809105
:10054000C00087FFFCCF8091C600992787FD90955A
:100550000895429A5D9845E34A95F1F7000060E0FE
:1005600070E0CB01A3E04A2F50E0440F551FFA0181
:10057000E25FFE4FE081EE23B1F15E9AFA01E25FA5
:10058000FE4F4181442369F1419A5A98E5E3EA9587
:10059000F1F700005A9A50E047E0E6B1E3FB22276A
:1005A00020F9042E01C0220F0A94EAF7522B5B9A1D
:1005B000E5E3EA95F1F700005B98E5E3EA95F1F7EA
:1005C0000000415050F7650F711D811D911DAA2338
:1005D00031F0982F872F762F6627A15020F65D9A4D
:1005E00008954198D2CF5E98C9CF42985D9845E36F
:1005F0004A95F1F7000060E070E0CB01A3E04A2FDC
:1006000050E0440F551FFA01E25FFE4FE081EE23F8
:10061000B1F15E9AFA01E25FFE4F4181442369F134
:10062000419A5A98E5E3EA95F1F700005A9A50E0AA
:1006300047E0E6B1E3FB222720F9042E01C0220F98
:100640000A94EAF7522B5B9AE5E3EA95F1F700008A
:100650005B98E5E3EA95F1F70000415050F7650F2C
:10066000711D811D911DAA2331F0982F872F762FA0
:100670006627A15020F65D9A08954198D2CF5E98E2
:10068000C9CF2F923F924F925F926F927F928F923B
:100690009F92AF92BF92CF92DF92EF92FF920F9311
:1006A0001F93CF93DF93CDB7DEB768970FB6F8945B
:1006B000DEBF0FBECDBF69877A878B879C876901B4
:1006C0007A01F894809184009091850040901B01FC
:1006D000512C612C712C320155244424480E591E92
:1006E000611C711C440C551C661C771C440C551C69
:1006F000661C771C440C551C661C771C440C551C4E
:10070000661C771C440C551C661C771C440C551C3D
:10071000661C771C78940E94F5021C821B821A8248
:100720001982C40CD51CE61CF71C4C145D046E0425
:100730007F04F0F11C821B822A981EBC0DB407FEB8
:10074000FDCF8EB580931A0195E09A95F1F70000E0
:100750008B818EBD0DB407FEFDCF8EB58983A5E0DC
:10076000AA95F1F700008C818EBD0DB407FEFDCF78
:100770008EB58A83B5E0BA95F1F700002A9A68969B
:100780000FB6F894DEBF0FBECDBFDF91CF911F91A2
:100790000F91FF90EF90DF90CF90BF90AF909F9020
:1007A0008F907F906F905F904F903F902F90089523
:1007B0009B01AC01220F331F441F551F220F331F13
:1007C000441F551F220F331F441F551F260F371F6D
:1007D000481F591F220F331F441F551F1D821E82A1
:1007E0001F82188608E414EF88EB282E8BE0382E41
:1007F00053014201C98ADA8AEB8AFC8AF894809113
:10080000840090918500C0901B01D12CE12CF12C2B
:100810007601DD24CC24C80ED91EE11CF11CCC0CC1
:10082000DD1CEE1CFF1CCC0CDD1CEE1CFF1CCC0CDC
:10083000DD1CEE1CFF1CCC0CDD1CEE1CFF1CCC0CCC
:10084000DD1CEE1CFF1CCC0CDD1CEE1CFF1C789488
:10085000D701C60188199909AA09BB098D879E8706
:10086000AF87B88B2D8B3E8B4F8B588F0E94F50234
:100870002B013C01440C551C661C771C440C551C78
:10088000661C771C440C551C661C771C460E571EB4
:10089000681E791E440C551C661C771C2D893E89E8
:1008A0004F89588D53014201821A930AA40AB50A4E
:1008B00060E472E48FE090E02D853E854F85588995
:1008C0000E948C1FCA01B901A50194010E94681FF2
:1008D00089849A84AB84BC84861A970AA80AB90AC8
:1008E000AEE5B0E0A50194010E94AB1F28EE33E015
:1008F00040E050E00E948C1FCA01B9012D853E8561
:100900004F8558890E94681F28EE33E040E050E090
:100910000E948C1F8D819E81AF81B885820F931FAD
:10092000A41FB51F8D839E83AF83B887813C26ECBF
:1009300092072DE2A207B1050CF069C080349943FB
:10094000A24DBF4F0CF06EC020E439E342ED5FEFE3
:100950002D833E834F835887C501B401660F771FEF
:10096000881F991F660F771F881F991F660F771FB3
:10097000881F991F681979098A099B09620F731FDB
:10098000841F951F28EE33E040E050E00E948C1F4A
:10099000293B6BE03607A4F13C822B822A981EBCCF
:1009A0000DB407FEFDCF8EB580931A01B5E0BA9560
:1009B000F1F700008B818EBD0DB407FEFDCF8EB523
:1009C000898325E02A95F1F700008C818EBD0DB456
:1009D00007FEFDCF8EB58A8335E03A95F1F700002A
:1009E0002A9A89899A89AB89BC89C816D906EA06E8
:1009F000FB0608F09FCE46015701A3019201FECEEF
:100A00002834A4EF3A079CF41C830B83C7CF80ECF7
:100A100096ECADE2B0E08D839E83AF83B8879C01F6
:100A2000AD019ACF2D813E814F81588595CF3C8372
:100A30002B83B4CF84B18C6284B9249881E58CBDBA
:100A400008952A981EBC0DB407FEFDCF2EB5209345
:100A50001A0125E02A95F1F70000442391F0282F90
:100A6000DB01FC0181918EBD0DB407FEFDCF8EB57B
:100A70008D9385E08A95F1F700008E2F821B8417F5
:100A800088F32A9A0895559A3A9A569A399A549A16
:100A90005C9A5798E8E6F0E0808184608083EDE618
:100AA000F0E080818068808378940895529A539A08
:100AB0003B9808955A9845E34A95F1F700005A9AF1
:100AC00097E080E046B143FB222720F9092E01C0C0
:100AD000220F0A94EAF7822B5B9A45E34A95F1F7D5
:100AE00000005B9845E34A95F1F70000915050F7FC
:100AF0000895882309F44CC0429A5D9845E34A95CD
:100B0000F1F70000A3E060E070E0CB014A2F50E075
:100B1000440F551FFA01E25FFE4FE081EE23B1F171
:100B20005E9AFA01E25FFE4F4181442369F1419AE6
:100B30005A98E5E3EA95F1F700005A9A50E047E049
:100B4000E6B1E3FB222720F9042E01C0220F0A940C
:100B5000EAF7522B5B9AE5E3EA95F1F700005B9820
:100B6000E5E3EA95F1F70000415050F7650F711D7C
:100B7000811D911DAA2331F0982F872F762F66278C
:100B8000A15020F65D9A08954198D2CF5E98C9CFC2
:100B90004298B3CF5C988FE99FE00197F1F700C0CE
:100BA00000005C9A08959091C00095FFFCCF80935F
:100BB000C60008958091C000807808958091C0009B
:100BC00087FFFCCF8091C60008951092C50080E198
:100BD0008093C40082E08093C00088E08093C100CD
:100BE00086E08093C2006FE972E086E992E00C949F
:100BF000992185E0809381001092850010928400F5
:100C0000EFE6F0E0808181608083789410921B0190
:100C100008951F920F920FB60F9211248F93809117
:100C20001B018F5F80931B018F910F900FBE0F9060
:100C30001F9018951F920F920FB60F9211240F90CC
:100C40000FBE0F901F9018952F923F924F925F9278
:100C50006F927F928F929F92AF92BF92CF92DF92CC
:100C6000EF92FF920F931F93CF93DF93CDB7DEB731
:100C70006C970FB6F894DEBF0FBECDBF698B7A8B31
:100C80008B8B9C8B29013A01F89480918400909180
:100C90008500C0901B01D12CE12CF12C7601DD24C4
:100CA000CC24C80ED91EE11CF11CCC0CDD1CEE1CA2
:100CB000FF1CCC0CDD1CEE1CFF1CCC0CDD1CEE1C48
:100CC000FF1CCC0CDD1CEE1CFF1CCC0CDD1CEE1C38
:100CD000FF1CCC0CDD1CEE1CFF1C78940E94F5025E
:100CE0009B01AC01220F331F441F551F220F331FDE
:100CF000441F551F220F331F441F551F260F371F38
:100D0000481F591F220F331F441F551F1C821B826F
:100D10001A8219824C0C5D1C6E1C7F1C1D821E8267
:100D20001F82188683EE282E82E0382E49865A8646
:100D30006B867C86D301C201C816D906EA06FB067B
:100D4000F0F11C821B822A981EBC0DB407FEFDCF59
:100D50008EB580931A0195E09A95F1F700008B818A
:100D60008EBD0DB407FEFDCF8EB58983A5E0AA9593
:100D7000F1F700008C818EBD0DB407FEFDCF8EB55E
:100D80008A83B5E0BA95F1F700002A9A6C960FB6FF
:100D9000F894DEBF0FBECDBFDF91CF911F910F91B1
:100DA000FF90EF90DF90CF90BF90AF909F908F908B
:100DB0007F906F905F904F903F902F900895F894A0
:100DC000609184007091850080911B0190E0A0E00B
:100DD000B0E03C0155244424460E571E611C711C92
:100DE000440C551C661C771C440C551C661C771C57
:100DF000440C551C661C771C440C551C661C771C47
:100E0000440C551C661C771C440C551C661C771C36
:100E10007894D301C2018C199D09AE09BF098D8B4D
:100E20009E8BAF8BB88F298F3A8F4B8F5C8F0E9430
:100E3000F5026B017C01CC0CDD1CEE1CFF1CCC0C04
:100E4000DD1CEE1CFF1CCC0CDD1CEE1CFF1CC60EBA
:100E5000D71EE81EF91ECC0CDD1CEE1CFF1C298DD4
:100E60003A8D4B8D5C8D46015701821A930AA40A74
:100E7000B50A60E472E48FE090E02D893E894F89E5
:100E8000588D0E948C1FCA01B901A50194010E94CE
:100E9000681F6D877E878F87988B89889A88AB8833
:100EA000BC88861A970AA80AB90AAEE5B0E0A5017F
:100EB00094010E94AB1F28EE33E040E050E00E9416
:100EC0008C1F6D897E898F89988D0E94681F28EEFE
:100ED00033E040E050E00E948C1F8D819E81AF8105
:100EE000B885820F931FA41FB51F8D839E83AF8388
:100EF000B887813C26EC92072DE2A207B1050CF0E1
:100F00008AC080349943A24DBF4F0CF08FC020E4BB
:100F100039E342ED5FEF2D833E834F835887C50150
:100F2000B401660F771F881F991F660F771F881FF0
:100F3000991F660F771F881F991F681979098A09F9
:100F40009B09620F731F841F951F28EE33E040E05A
:100F500050E00E948C1F293B6BE036070CF452C016
:100F600088EB9BE09C838B832A981EBC0DB407FE04
:100F7000FDCF8EB580931A0135E03A95F1F7000068
:100F80008B818EBD0DB407FEFDCF8EB5898345E004
:100F90004A95F1F700008C818EBD0DB407FEFDCFA0
:100FA0008EB58A8355E05A95F1F700002A9A01150B
:100FB0001105F9F08A818F9389818F938C818F93AA
:100FC0008B818F9368896F938F858F939E859F9375
:100FD000AD85AF937F926F925F924F923F922F9227
:100FE0001F930F930E9422220FB6F894DEBF0FBE0C
:100FF000CDBFA70196017301620189859A85AB85F2
:10100000BC859ACE2834A4EF3A0714F428E434EFD0
:101010003C832B83A9CF80EC96ECADE2B0E08D83CE
:101020009E83AF83B8879C01AD0179CF2D813E812E
:101030004F81588574CF811114C060E27CE68BEF3C
:101040009FEF20EC36EC4DE250E00E9441032FEF81
:1010500089E698E1215080409040E1F700C000000F
:10106000089560EE73E984E090E0EBCF0F931F9357
:101070000E94F5028B019C01000F111F221F331FDC
:10108000000F111F221F331F000F111F221F331FBC
:10109000060F171F281F391F000F111F221F331F94
:1010A000083F134826403105ACF10AC020EA36E873
:1010B00041E050E060EC72EF8CEF9FEF0E94410343
:1010C0000E94F5028B019C01000F111F221F331F8C
:1010D000000F111F221F331F000F111F221F331F6C
:1010E000060F171F281F391F000F111F221F331F44
:1010F000083F134826403105CCF61F910F91089503
:1011000020EA36E841E050E060E47DE083E090E0F2
:101110000E9441030E94F5028B019C01000F111FE8
:10112000221F331F000F111F221F331F000F111F1B
:10113000221F331F060F171F281F391F000F111FF3
:10114000221F331F083F134826403105CCF21F9160
:101150000F9108952F923F924F925F926F927F92DC
:101160008F929F92AF92BF92CF92DF92EF92FF92B7
:101170000F931F93CF93DF93CDB7DEB728970FB6AA
:10118000F894DEBF0FBECDBF2B013C018FE892E08B
:101190009F938F931F930F932D833E834F83588785
:1011A0000E942222F89460918400709185008091C1
:1011B0001B0190E0A0E0B0E0DC0199278827860FB2
:1011C000971FA11DB11D880F991FAA1FBB1F880F54
:1011D000991FAA1FBB1F880F991FAA1FBB1F880F2B
:1011E000991FAA1FBB1F880F991FAA1FBB1F880F1B
:1011F000991FAA1FBB1F6C017D0178940E94F50204
:101200005C824B82A8EEB3E02D813E814F815885F0
:101210000E94AB1F2B013C014C0C5D1C6E1C7F1C03
:101220000F900F900F900F90C414D504E604F704AC
:10123000F4F11C821B822A981EBC0DB407FEFDCF60
:101240008EB580931A0195E09A95F1F700008B8195
:101250008EBD0DB407FEFDCF8EB5898385E08A95DE
:10126000F1F700008C818EBD0DB407FEFDCF8EB569
:101270008A8395E09A95F1F700002A9A28960FB68E
:10128000F894DEBF0FBECDBFDF91CF911F910F91BC
:10129000FF90EF90DF90CF90BF90AF909F908F9096
:1012A0007F906F905F904F903F902F9008959BE7B5
:1012B000292E92E0392EF894809184009091850037
:1012C000C0901B01D12CE12CF12C7601DD24CC2423
:1012D000C80ED91EE11CF11CCC0CDD1CEE1CFF1C41
:1012E000CC0CDD1CEE1CFF1CCC0CDD1CEE1CFF1C12
:1012F000CC0CDD1CEE1CFF1CCC0CDD1CEE1CFF1C02
:10130000CC0CDD1CEE1CFF1C78942A981EBC0DB47E
:1013100007FEFDCF8EB580931A0185E08A95F1F71F
:1013200000008B818EBD0DB407FEFDCF8EB5898385
:1013300095E09A95F1F700008C818EBD0DB407FE03
:10134000FDCF8EB58A8385E08A95F1F700002A9A51
:101350000E94F5024B015C01F8940E94A90260937F
:101360001601709317018093180190931901209131
:101370001601309117014091180150911901809187
:10138000000190910101A0910201B09103017894B4
:10139000281B390B4A0B5B0BADE2B0E00E94AB1F80
:1013A0009F938F937F936F93D501C401880F991FEB
:1013B000AA1FBB1F880F991FAA1FBB1F880F991F49
:1013C000AA1FBB1F880D991DAA1DBB1D880F991F41
:1013D000AA1FBB1FBF93AF939F938F938A818F9355
:1013E00089818F938C818F938B818F93FF92EF9262
:1013F000DF92CF923F922F921F930F930E9422224F
:101400000FB6F894DEBF0FBECDBFC414D504E604FA
:10141000F7040CF00ECF4FCF2F923F924F925F9276
:101420006F927F928F929F92AF92BF92CF92DF92F4
:10143000EF92FF920F931F93CF93DF93CDB7DEB759
:1014400064970FB6F894DEBF0FBECDBF69877A8769
:101450008B879C872D833E834F83588727013801D4
:10146000860187E292E09F938F931F93CF920E9411
:101470002222F894209184003091850080911B01F4
:1014800090E0A0E0B0E05C0199248824820E931ED5
:10149000A11CB11C880C991CAA1CBB1C880C991C93
:1014A000AA1CBB1C880C991CAA1CBB1C880C991C70
:1014B000AA1CBB1C880C991CAA1CBB1C880C991C60
:1014C000AA1CBB1C78940E94F502A8EEB3E0A3010D
:1014D00092010E94AB1F6B017C01C80CD91CEA1C55
:1014E000FB1C0F900F900F900F908C149D04AE0476
:1014F000BF04F4F11C821B822A981EBC0DB407FEA7
:10150000FDCF8EB580931A0135E03A95F1F70000D2
:101510008B818EBD0DB407FEFDCF8EB5898345E06E
:101520004A95F1F700008C818EBD0DB407FEFDCF0A
:101530008EB58A8355E05A95F1F700002A9A649691
:101540000FB6F894DEBF0FBECDBFDF91CF911F91D4
:101550000F91FF90EF90DF90CF90BF90AF909F9052
:101560008F907F906F905F904F903F902F90089555
:101570002D813E814F81588589859A85AB85BC85B3
:10158000281B390B4A0B5B0B2D833E834F835887F7
:10159000A3019201220F331F441F551F2D873E8741
:1015A0004F87588B73E1272E72E0372E898A9A8AEB
:1015B000AB8ABC8AF89480918400909185008090D9
:1015C0001B01912CA12CB12C540199248824880E44
:1015D000991EA11CB11C880C991CAA1CBB1C880C50
:1015E000991CAA1CBB1C880C991CAA1CBB1C880C2F
:1015F000991CAA1CBB1C880C991CAA1CBB1C880C1F
:10160000991CAA1CBB1C7894C501B40129893A898C
:101610004B895C89621B730B840B950B28EE33E0BE
:1016200040E050E00E948C1F29013A012D813E814B
:101630004F815885C301B2010E94681F2D853E85E8
:101640004F8558890E948C1F89859A85AB85BC85FA
:10165000280F391F4A1F5B1FC301B2010E94681F78
:1016600028EE33E040E050E00E948C1F99E0220F0A
:10167000331F441F551F9A95D1F7CA01B90128EEAF
:1016800033E040E050E00E948C1FDA01C901992745
:10169000AA27BB27FC01ED50FD4F30FF9CC02491D1
:1016A00030E0319521953109442737FD4095542F7D
:1016B000A4ECB9E00E94AB1F2FEF30E040E050E017
:1016C0000E948C1F3C832B832A981EBC0DB407FEFE
:1016D000FDCF8EB580931A0195E09A95F1F7000041
:1016E0008B818EBD0DB407FEFDCF8EB58983A5E03D
:1016F000AA95F1F700008C818EBD0DB407FEFDCFD9
:101700008EB58A83B5E0BA95F1F700002A9A0E9457
:10171000F5022B013C01F8940E94A9026093160186
:10172000709317018093180190931901209116016D
:1017300030911701409118015091190180910001D9
:1017400090910101A0910201B09103017894281BAE
:10175000390B4A0B5B0BADE2B0E00E94AB1F9F93CD
:101760008F937F936F93D301C201880F991FAA1F94
:10177000BB1F880F991FAA1FBB1F880F991FAA1F85
:10178000BB1F840D951DA61DB71D880F991FAA1F8D
:10179000BB1FBF93AF939F938F938A818F93898150
:1017A0008F938C818F938B818F93BF92AF929F92F7
:1017B0008F923F922F921F930F930E9422220FB677
:1017C000F894DEBF0FBECDBF8C149D04AE04BF04E1
:1017D0000CF090CEEFCE249130E040E050E068CFA6
:1017E0002F923F924F925F926F927F928F929F9231
:1017F000AF92BF92CF92DF92EF92FF920F931F931F
:10180000CF93DF93CDB7DEB764970FB6F894DEBF02
:101810000FBECDBF6D837E838F83988729873A87DC
:101820004B875C87A801970186018FEB91E09F931E
:101830008F931F93CF92298B3A8B4B8B5C8B0E949B
:101840002222F894609184007091850080911B01A0
:1018500090E0A0E0B0E07C01DD24CC24C60ED71ED1
:10186000E11CF11CCC0CDD1CEE1CFF1CCC0CDD1CA7
:10187000EE1CFF1CCC0CDD1CEE1CFF1CCC0CDD1C7C
:10188000EE1CFF1CCC0CDD1CEE1CFF1CCC0CDD1C6C
:10189000EE1CFF1C78940E94F502A8EEB3E02989A3
:1018A0003A894B895C890E94AB1F4B015C018C0C0F
:1018B0009D1CAE1CBF1C0F900F900F900F90C81472
:1018C000D904EA04FB04F4F11C821B822A981EBC92
:1018D0000DB407FEFDCF8EB580931A0195E09A9561
:1018E000F1F700008B818EBD0DB407FEFDCF8EB5E4
:1018F000898325E02A95F1F700008C818EBD0DB417
:1019000007FEFDCF8EB58A8335E03A95F1F70000EA
:101910002A9A64960FB6F894DEBF0FBECDBFDF9152
:10192000CF911F910F91FF90EF90DF90CF90BF90DC
:10193000AF909F908F907F906F905F904F903F906F
:101940002F900895ABEA2A2EA1E03A2ECD86DE86AE
:10195000EF86F88AF8948091840090918500C09079
:101960001B01D12CE12CF12C7601DD24CC24C80EF6
:10197000D91EE11CF11CCC0CDD1CEE1CFF1CCC0C98
:10198000DD1CEE1CFF1CCC0CDD1CEE1CFF1CCC0C6B
:10199000DD1CEE1CFF1CCC0CDD1CEE1CFF1CCC0C5B
:1019A000DD1CEE1CFF1C7894C701B6012D853E8519
:1019B0004F855889621B730B840B950B28EE33E01F
:1019C00040E050E00E948C1F6D817E818F81988560
:1019D0000E94681F28EE33E040E050E00E948C1F18
:1019E000F9E0220F331F441F551FFA95D1F7CA01A2
:1019F000B90128EE33E040E050E00E948C1FDA018C
:101A0000C9019927AA27BB27FC01ED50FD4F30FFE4
:101A10009FC0249130E066277727621B730B8827CD
:101A200077FD8095982F29853A854B855C850E94A6
:101A3000681F2FEF30E040E050E00E948C1F3C8395
:101A40002B832A981EBC0DB407FEFDCF8EB5809364
:101A50001A0135E03A95F1F700008B818EBD0DB487
:101A600007FEFDCF8EB5898345E04A95F1F700006A
:101A70008C818EBD0DB407FEFDCF8EB58A8355E0F7
:101A80005A95F1F700002A9A0E94F5022B013C01B9
:101A9000F8940E94A9026093160170931701809335
:101AA000180190931901209116013091170140916E
:101AB0001801509119018091000190910101A091AC
:101AC0000201B09103017894281B390B4A0B5B0B80
:101AD000ADE2B0E00E94AB1F9F938F937F936F9313
:101AE000D301C201880F991FAA1FBB1F880F991F1E
:101AF000AA1FBB1F880F991FAA1FBB1F840D951D0E
:101B0000A61DB71D880F991FAA1FBB1FBF93AF93B8
:101B10009F938F938A818F9389818F938C818F93E9
:101B20008B818F93FF92EF92DF92CF923F922F9211
:101B30001F930F930E9422220FB6F894DEBF0FBEB0
:101B4000CDBFC814D904EA04FB040CF0BDCE02CF0B
:101B5000649170E080E090E066CF2F923F924F92C8
:101B60005F926F927F928F929F92AF92BF92CF922D
:101B7000DF92EF92FF920F931F93CF93DF93CDB736
:101B8000DEB76A970FB6F894DEBF0FBECDBF4B012C
:101B90005C012D833E834F835887A80197018601FE
:101BA00087E591E09F938F931F93CF922F8B388F70
:101BB000498F5A8F0E942222F8946091840070917C
:101BC000850080911B0190E0A0E0B0E03C0155242D
:101BD0004424460E571E611C711C440C551C661C87
:101BE000771C440C551C661C771C440C551C661C49
:101BF000771C440C551C661C771C440C551C661C39
:101C0000771C440C551C661C771C78940E94F502C6
:101C1000A8EEB3E02F89388D498D5A8D0E94AB1FF5
:101C20006B017C01C40CD51CE61CF71C0F900F90B7
:101C30000F900F904C145D046E047F04F4F11C822D
:101C40001B822A981EBC0DB407FEFDCF8EB5809373
:101C50001A0155E05A95F1F700008B818EBD0DB445
:101C600007FEFDCF8EB5898385E08A95F1F70000E8
:101C70008C818EBD0DB407FEFDCF8EB58A8395E0B5
:101C80009A95F1F700002A9A6A960FB6F894DEBF8B
:101C90000FBECDBFDF91CF911F910F91FF90EF90BD
:101CA000DF90CF90BF90AF909F908F907F906F907C
:101CB0005F904F903F902F90089560E472E48FE022
:101CC00090E0A50194010E948C1F29873A874B87D9
:101CD0005C8760E271EA87E090E0A50194010E94D0
:101CE0008C1F2D873E874F87588B2D813E813195E4
:101CF000219531093E8B2D8B93E4292E91E0392ECD
:101D0000498A5A8A6B8A7C8AF894809184009091DF
:101D1000850080901B01912CA12CB12C5401992499
:101D20008824880E991EA11CB11C880C991CAA1C21
:101D3000BB1C880C991CAA1CBB1C880C991CAA1CD7
:101D4000BB1C880C991CAA1CBB1C880C991CAA1CC7
:101D5000BB1C880C991CAA1CBB1C7894C501B4013F
:101D600029893A894B895C89621B730B840B950B1B
:101D700028EE33E040E050E00E948C1FCA01B90118
:101D800029853A854B855C850E948C1F2D853E8573
:101D90004F85588926173707480759070CF08BC01D
:101DA0004D895E895C834B832A981EBC0DB407FE67
:101DB000FDCF8EB580931A0195E09A95F1F700005A
:101DC0008B818EBD0DB407FEFDCF8EB5898325E0D6
:101DD0002A95F1F700008C818EBD0DB407FEFDCF72
:101DE0008EB58A8335E03A95F1F700002A9A0E9471
:101DF000F5022B013C01F8940E94A90260931601A0
:101E00007093170180931801909319012091160186
:101E100030911701409118015091190180910001F2
:101E200090910101A0910201B09103017894281BC7
:101E3000390B4A0B5B0BADE2B0E00E94AB1F9F93E6
:101E40008F937F936F93D301C201880F991FAA1FAD
:101E5000BB1F880F991FAA1FBB1F880F991FAA1F9E
:101E6000BB1F840D951DA61DB71D880F991FAA1FA6
:101E7000BB1FBF93AF939F938F938A818F93898169
:101E80008F938C818F938B818F93BF92AF929F9210
:101E90008F923F922F921F930F930E9422220FB690
:101EA000F894DEBF0FBECDBF8C149D04AE04BF04FA
:101EB0000CF0C5CE29CF8D819E819C838B8374CFFE
:101EC0002F923F924F925F926F927F928F929F924A
:101ED000AF92BF92CF92DF92EF92FF920F931F9338
:101EE000CF93DF93CDB7DEB7C355D1090FB6F894C2
:101EF000DEBF0FBECDBF6B017C014DAF5EAF8FEE7D
:101F000090E09F938F935F934F930E942222F894C7
:101F1000209184003091850080911B0190E0A0E029
:101F2000B0E03C0155244424420E531E611C711C38
:101F3000440C551C661C771C440C551C661C771CF5
:101F4000440C551C661C771C440C551C661C771CE5
:101F5000440C551C661C771C440C551C661C771CD5
:101F600078941DAA1EAA1FAA18AE19AA1AAA1BAAFB
:101F70001CAA1DA61EA61FA618AA19A61AA61BA64D
:101F80001CA61DA21EA21FA218A619A21AA21BA25D
:101F90001CA218A21F8E1E8E1D8E1C8E1B8E1A8ECA
:101FA000198E188E1F8A1E8A1D8A1C8A1B8A1A8AFD
:101FB000198A188A1F861E861D861C861B861A860D
:101FC000198618861F821E821D821C821B821A821D
:101FD0001982A8EEB3E0A70196010E94AB1F4B0146
:101FE0005C01840C951CA61CB71C0F900F900F90E1
:101FF0000F90481459046A047B040CF43FC01CAED3
:102000001BAE2A981EBC0DB407FEFDCF8EB5809383
:102010001A0135E03A95F1F700008BAD8EBD0DB495
:1020200007FEFDCF8EB589AF45E04A95F1F7000078
:102030008CAD8EBD0DB407FEFDCF8EB58AAF55E0D9
:102040005A95F1F700002A9ACD5ADF4F0FB6F8944F
:10205000DEBF0FBECDBFDF91CF911F910F91FF90DB
:10206000EF90DF90CF90BF90AF909F908F907F9038
:102070006F905F904F903F902F90089521E02496AD
:102080002FAF2497C12CD12C76018E010F5F1F4FEB
:10209000180123964CAE5DAE6EAE7FAE239764966C
:1020A0008CAE9DAEAEAEBFAE6497460157012C9686
:1020B0001FAF0EAF2C978401F8948091840090910B
:1020C0008500C0901B01D12CE12CF12C7601DD2480
:1020D000CC24C80ED91EE11CF11CCC0CDD1CEE1C5E
:1020E000FF1CCC0CDD1CEE1CFF1CCC0CDD1CEE1C04
:1020F000FF1CCC0CDD1CEE1CFF1CCC0CDD1CEE1CF4
:10210000FF1CCC0CDD1CEE1CFF1C78940E94F50219
:102110002B013C01C501B40126E030E040E050E075
:102120000E948C1FFB01EE0FFF1FEE0FFF1F2C966E
:102130004EAD5FAD2C97E40FF51FD301C201880FA0
:10214000991FAA1FBB1F880F991FAA1FBB1F880FAB
:10215000991FAA1FBB1F840D951DA61DB71D880FB3
:10216000991FAA1FBB1F80A391A3A2A3B3A35FEFD4
:10217000851A950AA50AB50AF8940E94A9026093E7
:102180001601709317018093180190931901209103
:102190001601309117014091180150911901809159
:1021A000000190910101A0910201B0910301789486
:1021B000281B390B4A0B5B0BADE2B0E00E94AB1F52
:1021C0002D966FAF2D972E967FAF2E972F968FAFB0
:1021D0002F9760969FAF6097C501B4016B5F7F4FEB
:1021E0008F4F9F4F26E030E040E050E00E948C1F70
:1021F000DB01AA0FBB1FAA0FBB1F2696BFAFAEAF56
:1022000026972C963FAE2EAE2C97FD01E20DF31DC6
:1022100020A131A142A153A12A962CAF3DAF4EAFD0
:102220005FAF2A97C501B40126E030E040E050E0FE
:102230000E948C1FFB01EE0FFF1FEE0FFF1FE20D30
:10224000F31D80A191A1A2A1B3A12A962CAD3DAD11
:102250004EAD5FAD2A97281B390B4A0B5B0BA8EEDE
:10226000B3E00E94AB1F2601370123962CAD3DAD94
:102270004EAD5FAD2397421A530A640A750AA30153
:102280009201220F331F441F551F240D351D461D7B
:10229000571D220F331F441F551F0E948C1F2901F9
:1022A0003A010F7011270E94802080FF2DC141E06C
:1022B00050E021965FAF4EAF21970E948020F80139
:1022C000EE0FFF1FE20DF31D21964EAD5FAD21977E
:1022D000DC014A9FC0014B9F900D5A9F900D112425
:1022E00068E077E00E94781F918380838F8D98A1AA
:1022F0002D8D3E8D820F931F2B8D3C8D820F931F52
:10230000298D3A8D820F931F2F89388D820F931F4D
:102310002D893E89820F931F2B893C89820F931F41
:1023200029893A89820F931F2F853889820F931F3D
:102330002D853E85820F931F2B853C85820F931F31
:1023400029853A85820F931F2F813885820F931F2D
:102350002D813E81820F931F2B813C81820F931F21
:1023600029813A81820F931F2496BFAD2497BB2306
:1023700061F197FDEDC09595879595958795959514
:10238000879595958795845D9E4F9CAF8BAF2AEF7F
:1023900042165104610471040CF0BDC080399140B3
:1023A00024F440E951E05CAF4BAF91E024969FAF3D
:1023B00024972A962CAD3DAD4EAD5FAD2A97213CBA
:1023C00037424940510574F12AC097FDBFC0959529
:1023D000879595958795959587958C5291409CAF5B
:1023E0008BAFA7E04A16AFEF5A066A067A060CF4DE
:1023F0009FC081379E4F24F020E73EEF3CAF2BAFCC
:1024000051E024965FAF24972A968CAD9DADAEAD7A
:10241000BFAD2A9780349D40A340B1051CF024969F
:102420001FAE24972A981EBC0DB407FEFDCF8EB5B3
:1024300080931A0135E03A95F1F700008BAD8EBD1F
:102440000DB407FEFDCF8EB589AF45E04A95F1F793
:1024500000008CAD8EBD0DB407FEFDCF8EB58AAFEA
:1024600055E05A95F1F700002A9A60968FAD609773
:102470008F932F969FAD2F979F932E96AFAD2E974C
:10248000AF932D96BFAD2D97BF932696AEADBFAD42
:102490002697A20DB31DFD01B09683818F93828193
:1024A0008F9381818F9390968C918F938AAD8F9328
:1024B00089AD8F938CAD8F938BAD8F93FF92EF92FD
:1024C000DF92CF92ABEDB0E0BF93AF933EAD3F93C1
:1024D0004DAD4F930E9422220FB6F894DEBF0FBE7F
:1024E000CDBF64962CAD3DAD4EAD5FAD6497C216C9
:1024F000D306E406F5060CF082CD2396CCAEDDAE15
:10250000EEAEFFAE2397D7CD2FEF3FEF21963FAF33
:102510002EAF2197D2CE5FEE451652E055066104EC
:1025200071040CF442CF80E79EEF9CAF8BAF3DCFA0
:1025300032E143163DEF53063FEF630673060CF09E
:102540005FCF40E951E05CAF4BAF5ACF07963FCF2A
:102550000F9611CF2F923F924F925F926F927F9280
:102560008F929F92AF92BF92CF92DF92EF92FF92A3
:102570000F931F93CF93DF93CDB7DEB7E5970FB6D9
:10258000F894DEBF0FBECDBF082F9DA7F8948091B1
:1025900084009091850040901B01512C612C712C7E
:1025A000320155244424480E591E611C711C440CF0
:1025B000551C661C771C440C551C661C771C440C6F
:1025C000551C661C771C440C551C661C771C440C5F
:1025D000551C661C771C440C551C661C771C789493
:1025E0000E94F5029B01AC01220F331F441F551FAF
:1025F000220F331F441F551F220F331F441F551F27
:10260000260F371F481F591F220F331F441F551F06
:102610002D8F3E8F4F8F58A3F8940E94A90260938C
:1026200016017093170180931801909319018091FE
:10263000160190911701A0911801B0911901809194
:10264000000190910101A0910201B09103017894E1
:102650004EA65FA668AA79AA10E019A61AA61BA61C
:102660001CA6BDEB2B2EB0E03B2EF89420918400ED
:102670003091850080911B0190E0A0E0B0E07C01EA
:10268000DD24CC24C20ED31EE11CF11CCC0CDD1CBD
:10269000EE1CFF1CCC0CDD1CEE1CFF1CCC0CDD1C4E
:1026A000EE1CFF1CCC0CDD1CEE1CFF1CCC0CDD1C3E
:1026B000EE1CFF1CCC0CDD1CEE1CFF1C78940E9451
:1026C000F5024B015C01880C991CAA1CBB1C880CF0
:1026D000991CAA1CBB1C880C991CAA1CBB1C860E2E
:1026E000971EA81EB91E880C991CAA1CBB1CF89426
:1026F0000E94A9026093160170931701809318013C
:102700009093190120911601309117014091180101
:10271000509119018091000190910101A091020155
:10272000B09103017894281B390B4A0B5B0BADE287
:10273000B0E00E94AB1F698F7A8F8B8F9C8F69A549
:102740007AA58BA59CA525E030E040E050E00E94F2
:102750008C1FFB01EE0FFF1FEE0FFF1F41E050E04B
:102760004C0F5D1FE40FF51F898D9A8DAB8DBC8DCD
:1027700080839183A283B38329A53AA54BA55CA549
:102780002F5F3F4F4F4F5F4F29A73AA74BA75CA73B
:10279000112309F4C6C1113009F0A5C1D701C60142
:1027A0002EA53FA548A959A9821B930BA40BB50BD5
:1027B00089A39AA3ABA3BCA38138934CA94CB14085
:1027C0000CF0ECC1D501C401B7FCDBC1813E9349DB
:1027D000A440B1050CF0E2C1898D9A8DAB8DBC8D02
:1027E000B7FD1AC281339547A105B1050CF0D6C1DA
:1027F000D701C60184199509A609B7098DA39EA31F
:10280000AFA3B8A7A50194014D8C5E8C6F8C78A006
:102810002419350946095709A8EEB3E00E94AB1FF9
:102820002DA13EA14FA158A50E948C1F2D8F3E8F38
:102830004F8F58A3C501B40128EE33E040E050E0CB
:102840000E948C1FDA01C901880F991FAA1FBB1FA4
:10285000820F931FA41FB51F2C013D01440C551C72
:10286000661C771C440C551C661C771C480E591EB0
:102870006A1E7B1E440C551C661C771C4AAA5BAA68
:102880006CAA7DAA8D8D9E8DAF8DB8A1880F991FE2
:10289000AA1FBB1F4D8C5E8C6F8C78A0840D951D7C
:1028A000A61DB71D880F991FAA1FBB1F880F991F50
:1028B000AA1FBB1F880F991FAA1FBB1F8419950948
:1028C000A609B7094AA85BA86CA87DA8480E591E9E
:1028D0006A1E7B1EA2EEBBE7298D3A8D4B8D5C8D67
:1028E0000E94AB1F20E536E440E050E00E948C1FC0
:1028F000420E531E641E751E4AAA5BAA6CAA7DAACC
:1029000069A57AA58BA59CA525E030E040E050E0C4
:102910000E948C1FFB01EE0FFF1FEE0FFF1F6624AE
:102920006394712C6C0E7D1EE60DF71D80819181E4
:10293000A281B381298D3A8D4B8D5C8D281B390B7B
:102940004A0B5B0B60E472E48FE090E00E94681F2A
:102950002DA13EA14FA158A5220F331F441F551F83
:10296000220F331F441F551F4DA05EA06FA078A4F7
:10297000240D351D461D571D0E948C1FAAE3B1E092
:102980000E94AB1F20E536E440E050E00E948C1F1F
:10299000DA01C901880F991FAA1FBB1F880F991F51
:1029A000AA1FBB1F8DA39EA3AFA3B8A7880F991F13
:1029B000AA1FBB1F880F991FAA1FBB1F4DA05EA097
:1029C0006FA078A4840D951DA61DB71D821B930BC7
:1029D000A40BB50B4AA85BA86CA87DA8480E591E8D
:1029E0006A1E7B1E4AAA5BAA6CAA7DAA4D8C5E8CCD
:1029F0006F8C78A0411451046104710409F07AC00D
:102A00004AA85BA86CA87DA8141415041604170422
:102A10000CF076C082E592E1A0E0B0E04AA85BA8A5
:102A20006CA87DA8480E591E6A1E7B1EC301B20108
:102A30002DE030E040E050E00E948C1F293863E137
:102A400036070CF462C088E893E1988F8F8B2A9840
:102A50001EBC0DB407FEFDCF8EB580931A0125E094
:102A60002A95F1F700008F898EBD0DB407FEFDCFCA
:102A70008EB58D8B35E03A95F1F70000888D8EBDCF
:102A80000DB407FEFDCF8EB58E8B45E04A95F1F76C
:102A900000002A9A5C8D5F936B8D6F938A8D8F9364
:102AA000998D9F93BF92AF929F928F928E898F93B1
:102AB0008D898F93888D8F938F898F93ACA1AF93DE
:102AC000BBA1BF934AA04F9259A05F923F922F9211
:102AD0006DA46F920F930E9422220FB6F894DEBF6E
:102AE0000FBECDBF11E0260137018D8E9E8EAF8EB9
:102AF000B8A2BBCD14141504160417040CF48ACF25
:102B00008AEE92EFAFEFBFEF89CF2837ACEE3A07EE
:102B10000CF08AC088E7482E8CEE582E588E4F8ACB
:102B200096CFBF93AF939F938F93BF92AF929F9295
:102B30008F92A1EDB0E0BF93AF933DA53F930F936C
:102B40000E9422220FB6F894DEBF0FBECDBF898D42
:102B50009A8DAB8DBC8D89579C4EAF4FBF4F8F3038
:102B60009742A105B10508F0BECFCEA6DFA6E8AA20
:102B7000F9AA19A21AA21BA21CA2D501C401B7FE70
:102B800025CE88279927DC0188199909AA09BB094C
:102B9000813E9349A440B1050CF41ECE188E1F8AC5
:102BA0002A981EBC0DB407FEFDCF8EB580931A0186
:102BB00035E03A95F1F700008F898EBD0DB407FE20
:102BC000FDCF8EB58D8B45E04A95F1F70000888DDD
:102BD0008EBD0DB407FEFDCF8EB58E8B55E05A9598
:102BE000F1F700002A9AE5960FB6F894DEBF0FBE03
:102BF000CDBFDF91CF911F910F91FF90EF90DF90AC
:102C0000CF90BF90AF909F908F907F906F905F908C
:102C10004F903F902F900895B095A09590958195F5
:102C20009F4FAF4FBF4FDECD388F2F8B10CFA3E11B
:102C3000B0E0EDE1F6E10C94B61F7C011B016A01E6
:102C4000FC0117821682838181FF66C3BE016F5F1C
:102C50007F4F4B01F7019381F10193FD859193FF24
:102C600081911F01882309F453C3853239F493FD00
:102C7000859193FF81911F01853239F4B70190E06E
:102C80000E943D2256016501E5CF10E0512C20E065
:102C90002032A0F48B3269F030F4803259F0833264
:102CA00069F420612CC08D3239F0803339F4216011
:102CB00026C02260246023C0286021C027FD27C0D1
:102CC00030ED380F3A3078F426FF06C0FAE01F9F47
:102CD000300D1124132F13C06AE0569E300D1124BD
:102CE000532E20620CC08E3221F426FD11C32064C5
:102CF00006C08C3611F4206802C0883641F4F10118
:102D000093FD859193FF81911F018111C1CF9BEBB1
:102D1000980F933018F42061805E06C09BE9980FED
:102D2000933008F0AAC12F7E26FF16E02F73722E73
:102D3000853621F4F22FF0647F2E08C0863621F408
:102D4000622F6068762E02C01111115077FE07C005
:102D50001C3348F444244394410E27E00BC0183040
:102D600030F4212F06C027E04CE3442E03C027E0B7
:102D700017E0412C560174E0A70EB11CF6016081EA
:102D8000718182819381042DA4010E9490206C01A5
:102D9000098100FF02C003FF06C071FC07C072FC7E
:102DA00008C0612C08C03DE2632E05C02BE2622EF4
:102DB00002C090E2692E802F8C7099F1662011F08C
:102DC00084E001C083E0851510F0512C0BC0581A27
:102DD00073FC08C0B70180E290E00E943D225A9443
:102DE000C9F7F3CF662029F0B701862D90E00E9445
:102DF0003D2203FD03C00CE610E002C008E610E02F
:102E0000F72DF0717F2EF8018491882309F476C2A2
:102E100071108052B70190E00E943D220F5F1F4F5A
:102E2000F2CF77FE0FC04C0C04FF04C08A818133BF
:102E300009F44A94141474F5F8E0F41578F588E070
:102E4000482E2CC076FC2AC0812F90E08C159D0561
:102E50009CF06CEFC6166FEFD60674F0772D706895
:102E6000772E0AC0E2E0F0E0EC0FFD1FE10FF11D4C
:102E70008081803319F411501111F4CF77FE0EC008
:102E800044244394410E812F90E0C816D9062CF4B7
:102E90001C1904C04424439401C010E077FE07C00D
:102EA0001C141D043CF496012F5F3F4F05C025E024
:102EB00030E002C021E030E0662011F02F5F3F4F8C
:102EC000112331F0412F50E04F5F5F4F240F351F2A
:102ED000452D50E02417350714F4521A01C0512C27
:102EE000872D897049F4552039F0B70180E290E0D0
:102EF0000E943D225A94F7CF662029F0B701862D13
:102F000090E00E943D2273FC09C0552039F0B701C2
:102F100080E390E00E943D225A94F7CF77FE5FC095
:102F20009C2D8D2DD7FE02C090E080E0692E782E7A
:102F300040E050E0C601841991099D878C87960175
:102F400026193709280D391D812F90E0EE27FF271C
:102F5000E81BF90BFF87EE87FFEF6F167F0669F41A
:102F6000B7018EE290E02B8B3A8B488B598B0E94F5
:102F70003D22598948893A892B89C614D70454F0CF
:102F80006C857D85661577052CF4F901E40FF51F36
:102F9000818101C080E371E0671A71084F5F5F4F64
:102FA000EE85FF856E167F066CF0B70190E02B8BE7
:102FB0003A8B488B598B0E943D222B893A8948894C
:102FC0005989CACF6C147D0439F49A81963318F468
:102FD000953311F404FF81E3B70190E04BC08A817F
:102FE000813309F00F7EB70190E00E943D2211115C
:102FF00005C074FE18C085E490E017C0B7018EE2EA
:1030000090E00E943D2282E066246394680EF40101
:10301000E80FF11D8081B70190E00E943D22115020
:1030200041F3862DF1CF85E690E0B7010E943D2265
:10303000D7FC05C0C114D10439F404FF05C0D194F4
:10304000C194D1088DE201C08BE2B70190E00E94EB
:103050003D2280E36AE0C616D1042CF08F5FFAE0CF
:10306000CF1AD108F7CFB70190E00E943D22B701F7
:10307000C601C0960E943D2241C1833631F083379C
:1030800079F0833509F058C021C0560172E0A70ECF
:10309000B11CF6018081898301E010E0640114C055
:1030A0005601F2E0AF0EB11CF601C080D18026FFC0
:1030B00003C0612F70E002C06FEF7FEFC6012B8B62
:1030C0000E948E218C012B892F7715C05601F2E0CA
:1030D000AF0EB11CF601C080D18026FF03C0612F66
:1030E00070E002C06FEF7FEFC6012B8B0E9483213F
:1030F0008C012B892068722E23FD1AC0852D90E04B
:1031000008171907A8F4B70180E290E00E943D2259
:103110005A94F4CFF60177FC859177FE81916F0187
:10312000B70190E00E943D2251105A9401501109BC
:103130000115110579F7E2C0843611F0893651F591
:10314000560127FF09C0F4E0AF0EB11CF601608103
:103150007181828193810AC0F2E0AF0EB11CF60149
:1031600060817181882777FD8095982F022F0F76D7
:1031700097FF08C090958095709561957F4F8F4F10
:103180009F4F00682AE030E0A4010E948822C82EE8
:10319000C8183EC0022F853721F40F7E2AE030E0A8
:1031A0001DC0097F8F3691F018F4883559F0B0C0F2
:1031B000803719F0883711F0ABC0006104FF09C0F7
:1031C000046007C024FF08C0066006C028E030E0A5
:1031D00005C020E130E002C020E132E0560107FFE7
:1031E00009C0F4E0AF0EB11CF601608171818281EB
:1031F000938108C0F2E0AF0EB11CF60160817181CD
:1032000080E090E0A4010E948822C82EC8180F77A1
:1032100006FF0BC0202F2E7FC11650F404FF0AC0FA
:1032200002FD08C0202F2E7E05C0DC2C202F03C0FD
:10323000DC2C01C0D12E24FF0DC0FE01EC0DF11DD0
:103240008081803311F4297E09C022FF06C0D39407
:10325000D39404C0822F867809F0D39423FD13C041
:1032600020FF06C01C2DD51418F4150D1D19D52CE2
:10327000D51468F4B70180E290E02B8B0E943D22C8
:10328000D3942B89F5CFD51410F45D1801C0512CBF
:1032900024FF12C0B70180E390E02B8B0E943D22F7
:1032A0002B8922FF17C021FF03C088E590E002C0F0
:1032B00088E790E0B7010CC0822F867859F021FD95
:1032C00002C080E201C08BE227FD8DE2B70190E0F1
:1032D0000E943D22C11638F4B70180E390E00E94BD
:1032E0003D221150F7CFCA94F401EC0DF11D8081FD
:1032F000B70190E00E943D22C110F5CF552009F49E
:10330000C2CCB70180E290E00E943D225A94F6CFF1
:10331000F7018681978102C08FEF9FEF6396E2E10C
:103320000C94D21F20FD09C0FC0123FD05C022FF23
:1033300002C07383628351834083089544FD10C0AB
:1033400046FD10C0DB01FC01AA0FBB1FEE1FFF1FD3
:103350001094D1F76A0F7B1F8E1F9F1F31E003C0AF
:1033600033E001C034E0660F771F881F991F31508A
:10337000D1F7620F711D811D911D08950F931F9349
:10338000CF93DF938C01C8010E94E421EC0197FDEB
:1033900008C00E946821892BB1F7B801CE010E94B4
:1033A0006F22CE01DF91CF911F910F9108956F92FF
:1033B0007F929F92AF92BF92CF92DF92EF92FF9255
:1033C0000F931F93CF93DF931F92CDB7DEB78C017E
:1033D0003B015A0129830E94E421AC015527298130
:1033E0004B32510521F04D32510581F4206831E016
:1033F000631A71086114710411F480E07FC0C80180
:1034000029830E94E421298197FDF7CFE22FED7FE8
:103410009E2E322F307379F5803369F57301F1E018
:10342000EF1AF108E114F10409F454C0C80129832A
:103430000E94E421298197FD4DC0382F3F7D38350A
:1034400081F4292D2264922E32E0631A71086114EE
:10345000710409F43FC0C8010E94E42197FF0BC02A
:1034600039C026FF04C0E92DE2609E2E03C0F92D6D
:10347000F2619F2E3701C12CD12C760120ED280F4F
:10348000283080F094FE04C0B8010E946F221FC053
:103490002A3040F096FEF8CF2F7D3FEE320F3630C7
:1034A00098F72750492DC701B6010E949E196B015C
:1034B0007C01292D2260922E31E0631A710861147B
:1034C000710459F0C8010E94E42197FFD7CF91FC05
:1034D00004C093CFC12CD12C760197FE08C0F09484
:1034E000E094D094C094C11CD11CE11CF11C292D86
:1034F000B701A601C5010E94921981E00F90DF91EA
:10350000CF911F910F91FF90EF90DF90CF90BF90E0
:10351000AF909F907F906F900895A0E2B0E0E3E9B4
:10352000FAE10C94B81F5C014B017A018E010F5F28
:103530001F4F680180E2F80111928A95E9F7F501C1
:10354000638080E090E0712C412CB0E041E050E0DD
:10355000F90163FC559063FE51908F01A52D9F01E9
:10356000511003C080E090E07FC0FEE55F1202C012
:10357000009761F16B2F70E0681779074CF46DE5E7
:10358000561661F1EDE25E1203C0442009F103C05A
:10359000411001C0752C6A2F669566956695F601F7
:1035A000E60FF11D6A2F67708A0102C0000F111F1C
:1035B0006A95E2F7B8017081762B7083A71559F0F0
:1035C000A71510F4AF5FE7CFA150E5CFB1E004C07D
:1035D0004424439401C0412C0196BACF442019F0F1
:1035E0008E8180628E83B11103C07724739419C0D9
:1035F000F601CE018196208120952193E817F907E5
:10360000D1F7F3CFE114F10429F0F7018083C7016A
:1036100001967C0191E0891A910881149104F1F0DE
:10362000712CC5010E94E42197FD16C0282F269514
:1036300026952695F601E20FF11D208130E0AC01C0
:103640004770552702C0359527954A95E2F720FD2A
:10365000D9CFB5010E946F22711084CFE114F1041B
:1036600011F0F7011082C801A096E0E10C94D41F7C
:103670002F923F924F925F926F927F929F92AF9262
:10368000BF92CF92DF92EF92FF920F931F93CF934F
:10369000DF9300D000D000D0CDB7DEB76C018B0136
:1036A0001A010E94E4219E838D8399278B32910514
:1036B00029F08D9799F480E8982E01C0912C015043
:1036C00011090115110511F480E036C1C6010E94EF
:1036D000E4219E838D8397FF02C0F6CF912C8D81CC
:1036E0009E810E9470218936910541F08E369105A8
:1036F000D9F5B2E86B2EB0E07B2E04C0A5E86A2EA7
:10370000A0E07A2E8FEF681A780AF3013197B4900F
:10371000BB20F1F0015011090115110571F0C6012E
:103720000E94E4217C0197FD08C00E947021B81618
:1037300049F3B601C7010E946F2228E8621620E013
:10374000720609F0C1CF80E090E0A0E8BFE709C0B1
:1037500095E8691690E07906B1F780E090E0A0EC7A
:10376000BFE7BC01CD01D8C0412C512C3201E12C66
:10377000F12C2D8120532A3028F5E92DE260BE2E50
:10378000892D887092FE06C0811123C0FFEFEF1AC9
:10379000FF0A1FC0882319F081E0E81AF10840E20F
:1037A000C301B2010E949E192B013C0198E9491600
:1037B00099E95906690699E1790658F0E92DE6601C
:1037C000BE2E07C02E3FA1F493FC12C0F92DF86065
:1037D000BF2E015011090115110549F0C6010E94C3
:1037E000E4219E838D839B2C97FD02C0C2CF9B2C2E
:1037F00091FE6ACF8D818F7D853409F056C05801C6
:1038000021E0A21AB108A114B10409F45DCFC601E8
:103810000E94E4219E838D8397FD56CF99278B329A
:10382000910529F08D9781F4892D8061982E58019A
:1038300092E0A91AB108A114B10409F445CFC60158
:103840000E94E4219E838D838D819E81C0970A977B
:1038500008F03ACF8501A12CB12CB501882777FD5E
:103860008095982F2D81205340E20E949E19AB0134
:10387000BC015A01015011090115110571F0C60171
:1038800049835A836B837C830E94E4219E838D83CA
:10389000C09749815A810A9700F394FE04C0AA2474
:1038A000BB24A41AB50AEA0CFB1C012B41F0ED81E4
:1038B000FE81F7FD04C0B601CF010E946F22C30153
:1038C000B2010E94EC1DF7FE08C0F194E194F108EA
:1038D000F1EAAF2EF0E0BF2E04C0E9EBAE2EE0E03F
:1038E000BE2E6501F8E1CF1AD10800E210E0E01623
:1038F000F10650F0F50125913591459154910E94C2
:10390000291EE01AF10AF3CF24E0A21AB108169595
:103910000795AC14BD0459F797FE05C0DC01CB0137
:10392000B058BC01CD012114310429F0F1016083AC
:1039300071838283938381E026960FB6F894DEBF6D
:103940000FBECDBFDF91CF911F910F91FF90EF90F0
:10395000DF90CF90BF90AF909F907F906F905F90DF
:103960004F903F902F900895A1E0B0E0EAEBFCE18A
:103970000C94B81F8C012B017A01FC01178216826E
:10398000A12CF801D380F201D3FC8591D3FE819163
:10399000382F2F01882309F416C190E039830E9443
:1039A00068213981892B21F0C8010E94BE19E9CF15
:1039B000353241F4F201D3FC3591D3FE31912F0120
:1039C000353269F4C80139830E94E421398197FDB9
:1039D000F8C03817B1F2B8010E946F22F4C03A3231
:1039E00041F4D3FC3591D3FE31912F01BB24B39424
:1039F00001C0B12C812C912C20ED230F2A3088F4AA
:103A0000FB2DF260BF2EB40180E090E040E20E9406
:103A10009E194B01F201D3FC3591D3FE31912F0158
:103A2000EBCFB1FE04C08114910421F4CCC08824F2
:103A30008A94982C383619F03C3661F014C0F201A3
:103A4000D3FC3591D3FE31912F01383661F4FB2D33
:103A5000F860BF2E8B2D8460B82EF201D3FC359117
:103A6000D3FE31912F01332309F4ADC0632F70E0F1
:103A700080E790E039830E9478213981892B09F40D
:103A8000A2C0B0FC07C0F701C080D180C701029678
:103A90007C0102C0C12CD12C3E3651F4F801468184
:103AA000578160E070E02B2DC6010E94921969CF0A
:103AB0003336C9F4B1FC03C088248394912CC80127
:103AC0000E94E42197FD7DC0C114D10429F0F601C4
:103AD0008083C60101966C0191E0891A91088114D6
:103AE000910469F76AC03B3559F49201A601B4010B
:103AF000C8010E948D1A2C01009709F05EC058C0C1
:103B0000C80139830E94BE19398197FD5AC03F36DA
:103B1000F1F140F43436B9F13936E1F1383509F0D4
:103B200040C02DC03337B9F018F4303741F139C0F7
:103B3000353749F1383719F134C0C114D10429F0AF
:103B4000F6016082C60101966C0191E0891A910824
:103B50008114910471F0C8010E94E4213C0197FD99
:103B600008C00E946821892B41F3B801C3010E945B
:103B70006F22C114D10409F1F60110821EC0FB2D81
:103B8000F064BF2E07C08B2D8062B82E03C09B2D22
:103B90009061B92E2B2DA601B401C8010E94D7193E
:103BA00005C0A601B401C8010E94381B811105C0DF
:103BB000F8018381807329F406C0B0FCE2CEA3949F
:103BC000E0CEAA2019F08A2D90E002C08FEF9FEF7F
:103BD0002196E0E10C94D41FE89409C097FB3EF4D1
:103BE00090958095709561957F4F8F4F9F4F99234A
:103BF000A9F0F92F96E9BB279395F69587957795C8
:103C00006795B795F111F8CFFAF4BB0F11F460FF87
:103C10001BC06F5F7F4F8F4F9F4F16C0882311F0DF
:103C200096E911C0772321F09EE8872F762F05C0F3
:103C3000662371F096E8862F70E060E02AF09A958E
:103C4000660F771F881FDAF7880F9695879597F983
:103C500008950BD078C069D028F06ED018F0952365
:103C600009F05AC05FC01124A2C07ED0A0F3959F76
:103C7000D1F3950F50E0551F629FF001729FBB2753
:103C8000F00DB11D639FAA27F00DB11DAA1F649FFF
:103C90006627B00DA11D661F829F2227B00DA11DB2
:103CA000621F739FB00DA11D621F839FA00D611D38
:103CB000221F749F3327A00D611D231F849F600D59
:103CC000211D822F762F6A2F11249F5750408AF092
:103CD000E1F088234AF0EE0FFF1FBB1F661F771F1E
:103CE000881F91505040A9F79E3F510570F014C0B5
:103CF0005EC05F3FECF3983EDCF386957795679561
:103D0000B795F795E7959F5FC1F7FE2B880F911D3B
:103D10009695879597F9089597F99F6780E870E0E1
:103D200060E008959FEF80EC089500240A94161631
:103D3000170618060906089500240A941216130699
:103D4000140605060895092E0394000C11F4882327
:103D500052F0BB0F40F4BF2B11F460FF04C06F5F43
:103D60007F4F8F4F9F4F089557FD9058440F551F19
:103D700059F05F3F71F04795880F97FB991F61F0ED
:103D80009F3F79F087950895121613061406551F64
:103D9000F2CF4695F1DF08C0161617061806991FD0
:103DA000F1CF86957105610508940895E894BB27C5
:103DB00066277727CB0197F90895CF92DF92EF928C
:103DC000FF920F931F93CF93DF93CDB7DEB72E975C
:103DD0000FB6F894DEBF0FBECDBF219A29988FE9A8
:103DE0009FE00197F1F700C00000299A9FEFABE731
:103DF000B2E99150A040B040E1F700C0000085E07A
:103E0000809381001092850010928400EFE6F0E02C
:103E1000808181608083789410921B0184B18C62D0
:103E200084B9249881E58CBD0E944305529A539A27
:103E30003B980E94E505FE0131968EE0DF011D9260
:103E40008A95E9F783E08C8386E992E09A878987EF
:103E50008FE992E09C878B87F0931F01E0931E010E
:103E6000F0931D01E0931C015C988FE99FE001979E
:103E7000F1F700C000005C9AF8941092850010924F
:103E8000840010921B017894DE0111966D0118E8F0
:103E9000E12E13E1F12E00E010E028E233E240E0F1
:103EA00050E060ED77E080E090E00E940C0A80E056
:103EB00090E02E960FB6F894DEBF0FBECDBFDF9117
:103EC000CF911F910F91FF90EF90DF90CF900895C9
:103ED000DB018F939F930E94AB1FBF91AF91A29F75
:103EE000800D911DA39F900DB29F900D11240895F8
:103EF00097FB072E16F4009407D077FD09D00E9497
:103F0000ED1F07FC05D03EF4909581959F4F0895D5
:103F1000709561957F4F0895052E97FB1EF40094D0
:103F20000E94A31F57FD07D00E94012007FC03D069
:103F30004EF40C94A31F50954095309521953F4F1A
:103F40004F4F5F4F089590958095709561957F4F85
:103F50008F4F9F4F08950E942320A59F900DB49FDF
:103F6000900DA49F800D911D112408952F923F92D2
:103F70004F925F926F927F928F929F92AF92BF9279
:103F8000CF92DF92EF92FF920F931F93CF93DF9325
:103F9000CDB7DEB7CA1BDB0B0FB6F894DEBF0FBE82
:103FA000CDBF09942A88398848885F846E847D84CF
:103FB0008C849B84AA84B984C884DF80EE80FD80D1
:103FC0000C811B81AA81B981CE0FD11D0FB6F89447
:103FD000DEBF0FBECDBFED010895AA1BBB1B51E193
:103FE00007C0AA1FBB1FA617B70710F0A61BB70B69
:103FF000881F991F5A95A9F780959095BC01CD010E
:104000000895A1E21A2EAA1BBB1BFD010DC0AA1F19
:10401000BB1FEE1FFF1FA217B307E407F50720F031
:10402000A21BB30BE40BF50B661F771F881F991FAC
:104030001A9469F760957095809590959B01AC01F5
:10404000BD01CF010895A29FB001B39FC001A39FFE
:10405000700D811D1124911DB29F700D811D1124C1
:10406000911D08958F929F92AF92BF92CF92DF924F
:10407000EF92FF92CF93DF93EC01688179818A817F
:104080009B81611571058105910521F464E279ED4B
:104090008BE597E02DE133EF41E050E00E948C1F6B
:1040A00049015A019B01AC01A7EAB1E40E94AB1F90
:1040B0006B017C01ACEEB4EFA50194010E943624A3
:1040C000C60ED71EE81EF91EF7FE06C081E0C81A0C
:1040D000D108E10880E8F80AC882D982EA82FB8226
:1040E000C6019F77DF91CF91FF90EF90DF90CF9047
:1040F000BF90AF909F908F9008950E9432200895B6
:1041000084E091E00E9432200895A0E0B0E0809326
:10411000040190930501A0930601B093070108954F
:10412000283008F027E03327DA01990F311D87FD89
:10413000916000966105710539F432602E5F3D9300
:1041400030E32A95E1F708959F3F30F080387105FC
:10415000610509F03C5F3C5F3D93913008F0806859
:10416000911DDF93CF931F930F93FF92EF92192F1F
:10417000987F9695E92F96959695E90FFF27E35B33
:10418000FB4F99273327EE24FF24A701E701059071
:104190000894079428F4360FE71EF81E491F511D96
:1041A000660F771F881F991F0694A1F70590079443
:1041B00028F4E70EF81E491F561FC11D770F881FF0
:1041C000991F661F0694A1F70590079428F4F80E2E
:1041D000491F561FC71FD11D880F991F661F771FC4
:1041E0000694A1F70590079420F4490F561FC71FA6
:1041F000D81F990F661F771F881F0694A9F784910F
:104200001095177041F0D695C79557954795F79437
:10421000E7941A95C1F7E3EFF3E0689415901591D0
:1042200035916591959105907FE27395E118F10ABA
:10423000430B560BC90BD009C0F7E10CF11E431F0D
:10424000561FC91FD01D7EF4703311F48A95E6CF36
:10425000E894015030F0080F0AF40027021708F420
:10426000202F2395022F7A3328F079E37D932A9526
:10427000E9F710C07D932A9589F60694979567957E
:10428000379517951794E118F10A430B560BC90B94
:10429000D00998F023957E9173957A3308F070E3F6
:1042A0007C932013B8F77E9170617D9330F08395F5
:1042B00071E37D9370E32A95E1F71124EF90FF906D
:1042C0000F911F91CF91DF91992787FD90950895C8
:1042D0009111BFC2803219F089508550D0F70895EE
:1042E0009111089581548A5108F4805E855A089589
:1042F000FC010590061621F00020D9F7C0010895B1
:104300003197CF010895FC01059061507040011074
:10431000D8F7809590958E0F9F1F0895FC016150EE
:10432000704001900110D8F7809590958E0F9F1FD7
:1043300008950F931F93CF93DF93EC018B010097A8
:1043400031F46115710519F480E090E038C06EE039
:1043500070E081E090E00E94E622FC010097A1F36A
:1043600080E883830115110571F01387028781E8C6
:10437000838380911C0190911D01892B21F4F0937E
:104380001D01E0931C012097C9F0D187C08783816C
:104390008260838380911E0190911F01892B71F4AB
:1043A000F0931F01E0931E01809120019091210163
:1043B000892B21F4F0932101E0932001CF01DF91BB
:1043C000CF911F910F910895CF93DF93EC012B8133
:1043D00020FF33C026FF0AC02F7B2B838E819F8155
:1043E00001969F838E838A8190E029C022FF0FC0AF
:1043F000E881F9818081992787FD9095009719F4CC
:1044000020622B831AC03196F983E8830EC0EA85B7
:10441000FB85099597FF09C02B81019611F480E176
:1044200001C080E2822B8B8308C02E813F812F5FE9
:104430003F4F3F832E83992702C08FEF9FEFDF917D
:10444000CF910895A0E0B0E0E8E2F2E20C94C41F3E
:104450000F811885F801838188608383AE01455FF1
:104460005F4F69857A85C8010E941716F80123817C
:10447000277F2383E4E00C94E01F0F931F93CF93D7
:10448000DF93182F092FEB018B8181FD03C08FEF84
:104490009FEF20C082FF10C04E815F812C813D8143
:1044A000421753077CF4E881F9819F012F5F3F4F4A
:1044B00039832883108306C0E885F985812F099503
:1044C000892B29F72E813F812F5F3F4F3F832E831A
:1044D000812F902FDF91CF911F910F910895FB01B4
:1044E000238120FF12C026FD10C08F3F3FEF9307AE
:1044F00061F082832F7D20642383268137812150C0
:10450000310937832683992708958FEF9FEF089508
:10451000FA01AA27283051F1203181F1E8946F93F4
:104520006E7F6E5F7F4F8F4F9F4FAF4FB1E03ED09A
:10453000B4E03CD0670F781F891F9A1FA11D680F38
:10454000791F8A1F911DA11D6A0F711D811D911D6B
:10455000A11D20D009F468943F912AE0269F1124E0
:104560003019305D3193DEF6CF010895462F477044
:10457000405D4193B3E00FD0C9F7F6CF462F4F709F
:10458000405D4A3318F0495D31FD4052419302D0FD
:10459000A9F7EACFB4E0A6959795879577956795A3
:1045A000BA95C9F700976105710508959B01AC01A3
:1045B0000A2E06945795479537952795BA95C9F7CA
:1045C000620F731F841F951FA01D08950F931F93E3
:1045D000CF93DF93869F8001879F100D969F100DCC
:1045E0001124C8010E940223EC01009729F0A801C0
:1045F00060E070E00E942C24CE01DF91CF911F91EA
:104600000F910895CF93DF938230910510F482E0EB
:1046100090E0E0912401F091250120E030E0A0E05D
:10462000B0E0309739F14081518148175907B8F00F
:104630004817590771F482819381109729F01396D6
:104640009C938E9312972CC0909325018093240104
:1046500027C02115310531F04217530718F0A90181
:10466000DB0101C0EF019A01BD01DF010280F3818E
:10467000E02DD7CF21153105F9F0281B390B243057
:10468000310580F48A819B816115710521F0FB0160
:104690009383828304C09093250180932401FE01BB
:1046A000329644C0FE01E20FF31F81939193225092
:1046B0003109398328833AC02091220130912301A6
:1046C000232B41F420910A0130910B0130932301F7
:1046D0002093220120910801309109012115310513
:1046E00041F42DB73EB740910C0150910D01241BB0
:1046F000350BE0912201F0912301E217F307A0F4BA
:104700002E1B3F0B2817390778F0AC014E5F5F4F27
:104710002417350748F04E0F5F1F50932301409335
:1047200022018193919302C0E0E0F0E0CF01DF919C
:10473000CF910895CF93DF93009709F487C0FC01D0
:10474000329713821282C0912401D09125012097C3
:1047500081F420813181280F391F809122019091AD
:1047600023018217930779F5F0932301E093220147
:104770006DC0DE0120E030E0AE17BF0750F41296A6
:104780004D915C9113979D014115510509F1DA0195
:10479000F3CFB383A28340815181840F951F8A1781
:1047A0009B0771F48D919C911197840F951F029630
:1047B0009183808312968D919C911397938382832A
:1047C0002115310529F4F0932501E09324013EC021
:1047D000D9011396FC93EE9312974D915D91A40F1E
:1047E000B51FEA17FB0779F480819181840F951F2B
:1047F0000296D90111969C938E9382819381139690
:104800009C938E931297E0E0F0E08A819B81009761
:1048100019F0FE01EC01F9CFCE0102962881398111
:10482000820F931F2091220130912301281739070D
:1048300069F4309729F4109225011092240102C0E6
:1048400013821282D0932301C0932201DF91CF9172
:104850000895992788270895DC0101C06D93415080
:104860005040E0F70895B7FF0C94AB1F0E94AB1FB8
:0A487000821B930B0895F894FFCF0C
:10487A00A00F000001000000000026012000010036
:06488A0000000101000125
:00000001FF
