:100000000C94DC000C94F9000C94F9000C94F900A9
:100010000C94F9000C94F9000C94F9000C94F9007C
:100020000C94F9000C94F9000C94F9000C94F9006C
:100030000C94F9000C94F9000C94F9000C94F9005C
:100040000C94F9000C94F9000C94F9000C94F9004C
:100050000C94F9000C94F9000C94F9000C94F9003C
:100060000C94F9000C94F9006E616E00696E6600E4
:100070006364696E6F70737578585B656667454633
:100080004700616E006E66696E69747900CDCCCCF4
:100090003D0AD7233C17B7D13877CC2B329595E65C
:1000A000241FB14F0A000020410000C84200401C3C
:1000B0004620BCBE4CCA1B0E5AAEC59D7400407A89
:1000C00010F35A00A0724E18090010A5D4E80000E1
:1000D000E87648170000E40B54020000CA9A3B007F
:1000E0000000E1F505000080969800000040420FF6
:1000F000000000A08601000000102700000000E8BA
:1001000003000000006400000000000A000000007E
:10011000000100000000002C76D888DC674F08231F
:10012000DFC1DFAE59E1B1B796E5E3E453C63AE685
:1001300051997696E8E6C28426EB898C9B62ED4065
:100140007C6FFCEFBC9C9F40F2BAA56FA5F49005B4
:100150005A2AF75C936B6CF9676DC11BFCE0E40DE8
:1001600047FEF520E6B500D0ED902E0300943577DC
:10017000050080841E080000204E0A000000C80C04
:10018000333333330F986E12831141EF8D2114896D
:100190003BE65516CFFEE6DB18D1844B381BF77CC7
:1001A0001D901DA4BBE424203284725E228100C90C
:1001B000F124ECA1E53D270011241FBECFEFD8E0CC
:1001C000DEBFCDBF11E0A0E0B1E0E0ECFDE102C098
:1001D00005900D92AA31B107D9F722E0AAE1B1E06A
:1001E00001C01D92A431B207E1F70E945F0A0C948E
:1001F000DE0E0C9400009091C00095FFFCCF809320
:10020000C60080E090E008958091C00087FFFCCF99
:100210008091C600992787FD90950895F8948CE306
:1002200090E0EAE1F1E0019007D0019005D0019063
:1002300003D0019001D017C008D007D006D005D058
:1002400004D003D002D001D00895289A001C0000E9
:10025000000008F0289800000000000000000000E6
:1002600008F4289808950197009709F0DCCF789456
:100270008FE391E00197F1F700C00000089590919D
:10028000C00095FFFCCF8093C60008958091C00008
:10029000807808958091C00087FFFCCF8091C600D0
:1002A00008951092C50080E18093C40082E080939D
:1002B000C00088E08093C10086E08093C20064E0C3
:1002C00071E08BEF90E00C945F0CFC01F8949B01C3
:1002D00021503109672B09F424C0019007D0019007
:1002E00005D0019003D0019001D017C008D007D0ED
:1002F00006D005D004D003D002D001D00895289AAA
:10030000001C0000000008F0289800000000000019
:100310000000000008F4289808952150310908F0E1
:10032000DCCF78948FE391E00197F1F700C00000F3
:100330000895A3E1B0E0EFE9F1E00C940B0B7C0130
:100340001B016A01FC0117821682838181FF66C34B
:10035000BE016F5F7F4F4B01F7019381F10193FD68
:10036000859193FF81911F01882309F453C385323E
:1003700039F493FD859193FF81911F01853239F402
:10038000B70190E00E94E80C56016501E5CF10E04E
:10039000512C20E02032A0F48B3269F030F480320E
:1003A00059F0833269F420612CC08D3239F08033EA
:1003B00039F4216026C02260246023C0286021C057
:1003C00027FD27C030ED380F3A3078F426FF06C0FD
:1003D000FAE01F9F300D1124132F13C06AE0569EC0
:1003E000300D1124532E20620CC08E3221F426FDD4
:1003F00011C3206406C08C3611F4206802C0883610
:1004000041F4F10193FD859193FF81911F018111C9
:10041000C1CF9BEB980F933018F42061805E06C02B
:100420009BE9980F933008F0AAC12F7E26FF16E0B3
:100430002F73722E853621F4F22FF0647F2E08C0C0
:10044000863621F4622F6068762E02C01111115099
:1004500077FE07C01C3348F444244394410E27E040
:100460000BC0183030F4212F06C027E04CE3442E97
:1004700003C027E017E0412C560174E0A70EB11C21
:10048000F6016081718182819381042DA4010E9413
:10049000560B6C01098100FF02C003FF06C071FC0E
:1004A00007C072FC08C0612C08C03DE2632E05C085
:1004B0002BE2622E02C090E2692E802F8C7099F19F
:1004C000662011F084E001C083E0851510F0512C06
:1004D0000BC0581A73FC08C0B70180E290E00E947C
:1004E000E80C5A94C9F7F3CF662029F0B701862D9E
:1004F00090E00E94E80C03FD03C00CE610E002C08F
:1005000008E610E0F72DF0717F2EF8018491882322
:1005100009F476C271108052B70190E00E94E80C95
:100520000F5F1F4FF2CF77FE0FC04C0C04FF04C0CB
:100530008A81813309F44A94141474F5F8E0F415AF
:1005400078F588E0482E2CC076FC2AC0812F90E0F8
:100550008C159D059CF06CEFC6166FEFD60674F0F7
:10056000772D7068772E0AC0E2E0F0E0EC0FFD1FF7
:10057000E10FF11D8081803319F411501111F4CF76
:1005800077FE0EC044244394410E812F90E0C8169C
:10059000D9062CF41C1904C04424439401C010E073
:1005A00077FE07C01C141D043CF496012F5F3F4FDB
:1005B00005C025E030E002C021E030E0662011F007
:1005C0002F5F3F4F112331F0412F50E04F5F5F4FBE
:1005D000240F351F452D50E02417350714F4521A07
:1005E00001C0512C872D897049F4552039F0B7018D
:1005F00080E290E00E94E80C5A94F7CF662029F040
:10060000B701862D90E00E94E80C73FC09C05520CC
:1006100039F0B70180E390E00E94E80C5A94F7CFDC
:1006200077FE5FC09C2D8D2DD7FE02C090E080E04C
:10063000692E782E40E050E0C601841991099D870B
:100640008C87960126193709280D391D812F90E0D6
:10065000EE27FF27E81BF90BFF87EE87FFEF6F16EA
:100660007F0669F4B7018EE290E02B8B3A8B488BC2
:10067000598B0E94E80C598948893A892B89C614FC
:10068000D70454F06C857D85661577052CF4F90147
:10069000E40FF51F818101C080E371E0671A7108E2
:1006A0004F5F5F4FEE85FF856E167F066CF0B701DA
:1006B00090E02B8B3A8B488B598B0E94E80C2B894E
:1006C0003A8948895989CACF6C147D0439F49A81D2
:1006D000963318F4953311F404FF81E3B70190E0E9
:1006E0004BC08A81813309F00F7EB70190E00E94F0
:1006F000E80C111105C074FE18C085E490E017C025
:10070000B7018EE290E00E94E80C82E066246394D8
:10071000680EF401E80FF11D8081B70190E00E949E
:10072000E80C115041F3862DF1CF85E690E0B7013A
:100730000E94E80CD7FC05C0C114D10439F404FFB1
:1007400005C0D194C194D1088DE201C08BE2B701FC
:1007500090E00E94E80C80E36AE0C616D1042CF019
:100760008F5FFAE0CF1AD108F7CFB70190E00E946F
:10077000E80CB701C601C0960E94E80C41C183365F
:1007800031F0833779F0833509F058C021C0560124
:1007900072E0A70EB11CF6018081898301E010E0B0
:1007A000640114C05601F2E0AF0EB11CF601C08026
:1007B000D18026FF03C0612F70E002C06FEF7FEF92
:1007C000C6012B8B0E94540C8C012B892F7715C0EE
:1007D0005601F2E0AF0EB11CF601C080D18026FFB9
:1007E00003C0612F70E002C06FEF7FEFC6012B8B5B
:1007F0000E94490C8C012B892068722E23FD1AC09F
:10080000852D90E008171907A8F4B70180E290E061
:100810000E94E80C5A94F4CFF60177FC859177FE9C
:1008200081916F01B70190E00E94E80C51105A9439
:10083000015011090115110579F7E2C0843611F054
:10084000893651F5560127FF09C0F4E0AF0EB11CFF
:10085000F60160817181828193810AC0F2E0AF0E5E
:10086000B11CF60160817181882777FD8095982FF2
:10087000022F0F7697FF08C090958095709561952F
:100880007F4F8F4F9F4F00682AE030E0A4010E9405
:10089000330DC82EC8183EC0022F853721F40F7EB5
:1008A0002AE030E01DC0097F8F3691F018F48835BA
:1008B00059F0B0C0803719F0883711F0ABC0006133
:1008C00004FF09C0046007C024FF08C0066006C01A
:1008D00028E030E005C020E130E002C020E132E055
:1008E000560107FF09C0F4E0AF0EB11CF6016081AC
:1008F00071818281938108C0F2E0AF0EB11CF601D4
:100900006081718180E090E0A4010E94330DC82EC7
:10091000C8180F7706FF0BC0202F2E7FC11650F48A
:1009200004FF0AC002FD08C0202F2E7E05C0DC2C6B
:10093000202F03C0DC2C01C0D12E24FF0DC0FE01EE
:10094000EC0DF11D8081803311F4297E09C022FF56
:1009500006C0D394D39404C0822F867809F0D39430
:1009600023FD13C020FF06C01C2DD51418F4150D4F
:100970001D19D52CD51468F4B70180E290E02B8BBB
:100980000E94E80CD3942B89F5CFD51410F45D1890
:1009900001C0512C24FF12C0B70180E390E02B8BE3
:1009A0000E94E80C2B8922FF17C021FF03C088E5B5
:1009B00090E002C088E790E0B7010CC0822F8678F3
:1009C00059F021FD02C080E201C08BE227FD8DE2DB
:1009D000B70190E00E94E80CC11638F4B70180E33B
:1009E00090E00E94E80C1150F7CFCA94F401EC0D8E
:1009F000F11D8081B70190E00E94E80CC110F5CF95
:100A0000552009F4C2CCB70180E290E00E94E80CC6
:100A10005A94F6CFF7018681978102C08FEF9FEF3E
:100A20006396E2E10C94270B20FD09C0FC0123FD35
:100A300005C022FF02C073836283518340830895FF
:100A400044FD10C046FD10C0DB01FC01AA0FBB1F16
:100A5000EE1FFF1F1094D1F76A0F7B1F8E1F9F1F81
:100A600031E003C033E001C034E0660F771F881F18
:100A7000991F3150D1F7620F711D811D911D08958D
:100A80000F931F93CF93DF938C01C8010E94AA0C90
:100A9000EC0197FD08C00E942E0C892BB1F7B8011C
:100AA000CE010E941A0DCE01DF91CF911F910F91BF
:100AB00008956F927F929F92AF92BF92CF92DF92F2
:100AC000EF92FF920F931F93CF93DF931F92CDB7B7
:100AD000DEB78C013B015A0129830E94AA0CAC01AC
:100AE000552729814B32510521F04D32510581F4B2
:100AF000206831E0631A71086114710411F480E018
:100B00007FC0C80129830E94AA0C298197FDF7CFD5
:100B1000E22FED7F9E2E322F307379F5803369F509
:100B20007301F1E0EF1AF108E114F10409F454C083
:100B3000C80129830E94AA0C298197FD4DC0382F36
:100B40003F7D383581F4292D2264922E32E0631ADC
:100B500071086114710409F43FC0C8010E94AA0C15
:100B600097FF0BC039C026FF04C0E92DE2609E2E1E
:100B700003C0F92DF2619F2E3701C12CD12C7601D3
:100B800020ED280F283080F094FE04C0B8010E94A8
:100B90001A0D1FC02A3040F096FEF8CF2F7D3FEE91
:100BA000320F363098F72750492DC701B6010E9401
:100BB00020056B017C01292D2260922E31E0631A01
:100BC00071086114710459F0C8010E94AA0C97FFC2
:100BD000D7CF91FC04C093CFC12CD12C760197FEC6
:100BE00008C0F094E094D094C094C11CD11CE11CC6
:100BF000F11C292DB701A601C5010E94140581E051
:100C00000F90DF91CF911F910F91FF90EF90DF90A8
:100C1000CF90BF90AF909F907F906F900895A0E28B
:100C2000B0E0E5E1F6E00C940D0B5C014B017A01BC
:100C30008E010F5F1F4F680180E2F80111928A95C3
:100C4000E9F7F501638080E090E0712C412CB0E081
:100C500041E050E0F90163FC559063FE51908F0133
:100C6000A52D9F01511003C080E090E07FC0FEE5FC
:100C70005F1202C0009761F16B2F70E0681779076F
:100C80004CF46DE5561661F1EDE25E1203C04420AE
:100C900009F103C0411001C0752C6A2F6695669555
:100CA0006695F601E60FF11D6A2F67708A0102C092
:100CB000000F111F6A95E2F7B8017081762B7083DF
:100CC000A71559F0A71510F4AF5FE7CFA150E5CFF6
:100CD000B1E004C04424439401C0412C0196BACF32
:100CE000442019F08E8180628E83B11103C0772475
:100CF000739419C0F601CE0181962081209521932D
:100D0000E817F907D1F7F3CFE114F10429F0F7015F
:100D10008083C70101967C0191E0891A91088114B2
:100D20009104F1F0712CC5010E94AA0C97FD16C028
:100D3000282F269526952695F601E20FF11D208194
:100D400030E0AC014770552702C0359527954A958C
:100D5000E2F720FDD9CFB5010E941A0D711084CFA2
:100D6000E114F10411F0F7011082C801A096E0E14E
:100D70000C94290B2F923F924F925F926F927F9229
:100D80009F92AF92BF92CF92DF92EF92FF920F931A
:100D90001F93CF93DF9300D000D000D0CDB7DEB744
:100DA0006C018B011A010E94AA0C9E838D839927E6
:100DB0008B32910529F08D9799F480E8982E01C027
:100DC000912C015011090115110511F480E036C173
:100DD000C6010E94AA0C9E838D8397FF02C0F6CFA6
:100DE000912C8D819E810E94360C8936910541F0AF
:100DF0008E369105D9F5B2E86B2EB0E07B2E04C09B
:100E0000A5E86A2EA0E07A2E8FEF681A780AF3011F
:100E10003197B490BB20F1F0015011090115110573
:100E200071F0C6010E94AA0C7C0197FD08C00E94C7
:100E3000360CB81649F3B601C7010E941A0D28E80E
:100E4000621620E0720609F0C1CF80E090E0A0E8D1
:100E5000BFE709C095E8691690E07906B1F780E030
:100E600090E0A0ECBFE7BC01CD01D8C0412C512CD3
:100E70003201E12CF12C2D8120532A3028F5E92D67
:100E8000E260BE2E892D887092FE06C0811123C0BB
:100E9000FFEFEF1AFF0A1FC0882319F081E0E81A5C
:100EA000F10840E2C301B2010E9420052B013C0180
:100EB00098E9491699E95906690699E1790658F0C1
:100EC000E92DE660BE2E07C02E3FA1F493FC12C0B0
:100ED000F92DF860BF2E015011090115110549F0D7
:100EE000C6010E94AA0C9E838D839B2C97FD02C095
:100EF000C2CF9B2C91FE6ACF8D818F7D853409F006
:100F000056C0580121E0A21AB108A114B10409F495
:100F10005DCFC6010E94AA0C9E838D8397FD56CF9C
:100F200099278B32910529F08D9781F4892D806165
:100F3000982E580192E0A91AB108A114B10409F43D
:100F400045CFC6010E94AA0C9E838D838D819E8110
:100F5000C0970A9708F03ACF8501A12CB12CB501B2
:100F6000882777FD8095982F2D81205340E20E949D
:100F70002005AB01BC015A010150110901151105F1
:100F800071F0C60149835A836B837C830E94AA0C4B
:100F90009E838D83C09749815A810A9700F394FEFE
:100FA00004C0AA24BB24A41AB50AEA0CFB1C012B1A
:100FB00041F0ED81FE81F7FD04C0B601CF010E9432
:100FC0001A0DC301B2010E946E09F7FE08C0F19428
:100FD000E194F108F1EAAF2EF0E0BF2E04C0E9EB96
:100FE000AE2EE0E0BE2E6501F8E1CF1AD10800E296
:100FF00010E0E016F10650F0F5012591359145918C
:1010000054910E94AB09E01AF10AF3CF24E0A21A2E
:10101000B10816950795AC14BD0459F797FE05C0A5
:10102000DC01CB01B058BC01CD012114310429F001
:10103000F101608371838283938381E026960FB6EA
:10104000F894DEBF0FBECDBFDF91CF911F910F91FE
:10105000FF90EF90DF90CF90BF90AF909F907F90E8
:101060006F905F904F903F902F900895A1E0B0E077
:10107000ECE3F8E00C940D0B8C012B017A01FC01E0
:1010800017821682A12CF801D380F201D3FC85913E
:10109000D3FE8191382F2F01882309F416C190E0E7
:1010A00039830E942E0C3981892B21F0C8010E94BE
:1010B0004005E9CF353241F4F201D3FC3591D3FE3E
:1010C00031912F01353269F4C80139830E94AA0C8D
:1010D000398197FDF8C03817B1F2B8010E941A0D96
:1010E000F4C03A3241F4D3FC3591D3FE31912F0153
:1010F000BB24B39401C0B12C812C912C20ED230F83
:101100002A3088F4FB2DF260BF2EB40180E090E01D
:1011100040E20E9420054B01F201D3FC3591D3FE41
:1011200031912F01EBCFB1FE04C08114910421F461
:10113000CCC088248A94982C383619F03C3661F05B
:1011400014C0F201D3FC3591D3FE31912F01383612
:1011500061F4FB2DF860BF2E8B2D8460B82EF20158
:10116000D3FC3591D3FE31912F01332309F4ADC067
:10117000632F70E080E790E039830E943E0C398154
:10118000892B09F4A2C0B0FC07C0F701C080D18050
:10119000C70102967C0102C0C12CD12C3E3651F40D
:1011A000F8014681578160E070E02B2DC6010E9456
:1011B000140569CF3336C9F4B1FC03C08824839485
:1011C000912CC8010E94AA0C97FD7DC0C114D104C6
:1011D00029F0F6018083C60101966C0191E0891A1D
:1011E00091088114910469F76AC03B3559F4920162
:1011F000A601B401C8010E940F062C01009709F056
:101200005EC058C0C80139830E944005398197FDEE
:101210005AC03F36F1F140F43436B9F13936E1F1D4
:10122000383509F040C02DC03337B9F018F43037E5
:1012300041F139C0353749F1383719F134C0C1149B
:10124000D10429F0F6016082C60101966C0191E09B
:10125000891A91088114910471F0C8010E94AA0CA6
:101260003C0197FD08C00E942E0C892B41F3B80168
:10127000C3010E941A0DC114D10409F1F6011082B4
:101280001EC0FB2DF064BF2E07C08B2D8062B82ED0
:1012900003C09B2D9061B92E2B2DA601B401C8016E
:1012A0000E94590505C0A601B401C8010E94BA06F2
:1012B000811105C0F8018381807329F406C0B0FC58
:1012C000E2CEA394E0CEAA2019F08A2D90E002C0CD
:1012D0008FEF9FEF2196E0E10C94290BE89409C071
:1012E00097FB3EF490958095709561957F4F8F4F59
:1012F0009F4F9923A9F0F92F96E9BB279395F6956F
:10130000879577956795B795F111F8CFFAF4BB0FEC
:1013100011F460FF1BC06F5F7F4F8F4F9F4F16C050
:10132000882311F096E911C0772321F09EE8872FDA
:10133000762F05C0662371F096E8862F70E060E096
:101340002AF09A95660F771F881FDAF7880F96950F
:10135000879597F908950BD078C069D028F06ED0A2
:1013600018F0952309F05AC05FC01124A2C07ED0A6
:10137000A0F3959FD1F3950F50E0551F629FF001A8
:10138000729FBB27F00DB11D639FAA27F00DB11D01
:10139000AA1F649F6627B00DA11D661F829F22278A
:1013A000B00DA11D621F739FB00DA11D621F839F11
:1013B000A00D611D221F749F3327A00D611D231FE7
:1013C000849F600D211D822F762F6A2F11249F5735
:1013D00050408AF0E1F088234AF0EE0FFF1FBB1F58
:1013E000661F771F881F91505040A9F79E3F5105F7
:1013F00070F014C05EC05F3FECF3983EDCF386955E
:1014000077956795B795F795E7959F5FC1F7FE2BA1
:10141000880F911D9695879597F9089597F99F677D
:1014200080E870E060E008959FEF80EC089500246C
:101430000A941616170618060906089500240A9439
:1014400012161306140605060895092E0394000CBF
:1014500011F4882352F0BB0F40F4BF2B11F460FF4E
:1014600004C06F5F7F4F8F4F9F4F089557FD905877
:10147000440F551F59F05F3F71F04795880F97FB58
:10148000991F61F09F3F79F0879508951216130612
:101490001406551FF2CF4695F1DF08C01616170641
:1014A0001806991FF1CF8695710561050894089576
:1014B000E894BB2766277727CB0197F90895CF9348
:1014C000DF93CDB7DEB72E970FB6F894DEBF0FBE11
:1014D000CDBF209A28980E945101FE0131968EE0DE
:1014E000DF011D928A95E9F783E08C838BEF90E012
:1014F0009A87898784E091E09C878B87F0930D021F
:10150000E0930C02F0930B02E0930A02E12C00EF4F
:1015100010E09DECF92E2E2D30E0220F331F220F0C
:10152000331F40E0E0E1F1E00DC0813009F444C038
:10153000823009F444C0833009F444C0E0E0F1E0B3
:101540002C5F3F4FC901B8010E94F70A865E9E4F8B
:101550005081DC015C93C9010196B8010E94F70A31
:10156000865E9E4F5181DC015C93C9010296B801F1
:101570000E94F70A865E9E4F5281DC015C93C9018E
:101580000396B8010E94F70A865E9E4F5381FC01C4
:1015900050834F5F4C33C9F04F9D812D11248695A8
:1015A0008695982F990F990F980F842F891B09F012
:1015B000BCCFE0E1F1E0C4CFECE0F1E0C1CFE4E08A
:1015C000F1E0BECFE8E0F1E0BBCF0E940E01FFEFFB
:1015D00021EE84E0F15020408040E1F700C000009F
:1015E000E39493E09E1508F096CFE12C94CF97FBFF
:1015F000072E16F4009407D077FD09D00E94420B05
:1016000007FC05D03EF4909581959F4F0895709505
:1016100061957F4F08952F923F924F925F926F9204
:101620007F928F929F92AF92BF92CF92DF92EF9272
:10163000FF920F931F93CF93DF93CDB7DEB7CA1BF3
:10164000DB0B0FB6F894DEBF0FBECDBF09942A881E
:10165000398848885F846E847D848C849B84AA84C6
:10166000B984C884DF80EE80FD800C811B81AA8153
:10167000B981CE0FD11D0FB6F894DEBF0FBECDBF1E
:10168000ED010895AA1BBB1B51E107C0AA1FBB1F98
:10169000A617B70710F0A61BB70B881F991F5A95FE
:1016A000A9F780959095BC01CD010895283008F0E8
:1016B00027E03327DA01990F311D87FD91600096ED
:1016C0006105710539F432602E5F3D9330E32A9550
:1016D000E1F708959F3F30F080387105610509F00A
:1016E0003C5F3C5F3D93913008F08068911DDF9333
:1016F000CF931F930F93FF92EF92192F987F969598
:10170000E92F96959695E90FFF27E95EFE4F9927F9
:101710003327EE24FF24A701E701059008940794DE
:1017200028F4360FE71EF81E491F511D660F771F5C
:10173000881F991F0694A1F70590079428F4E70ED7
:10174000F81E491F561FC11D770F881F991F661F5E
:101750000694A1F70590079428F4F80E491F561F28
:10176000C71FD11D880F991F661F771F0694A1F709
:101770000590079420F4490F561FC71FD81F990FD3
:10178000661F771F881F0694A9F78491109517701C
:1017900041F0D695C79557954795F794E7941A95D4
:1017A000C1F7EDEBF0E068941590159135916591D6
:1017B000959105907FE27395E118F10A430B560B62
:1017C000C90BD009C0F7E10CF11E431F561FC91FFA
:1017D000D01D7EF4703311F48A95E6CFE894015061
:1017E00030F0080F0AF40027021708F4202F239581
:1017F000022F7A3328F079E37D932A95E9F710C018
:101800007D932A9589F60694979567953795179550
:101810001794E118F10A430B560BC90BD00998F045
:1018200023957E9173957A3308F070E37C932013AF
:10183000B8F77E9170617D9330F0839571E37D936D
:1018400070E32A95E1F71124EF90FF900F911F911B
:10185000CF91DF91992787FD909508959111A4C2AA
:10186000803219F089508550D0F70895911108956C
:1018700081548A5108F4805E855A0895FC010590D0
:10188000061621F00020D9F7C00108953197CF0145
:101890000895FC010590615070400110D8F78095C3
:1018A00090958E0F9F1F0895FC016150704001902C
:1018B0000110D8F7809590958E0F9F1F08950F9374
:1018C0001F93CF93DF93EC018B01009731F46115E7
:1018D000710519F480E090E038C06EE070E081E0BE
:1018E00090E00E94910DFC010097A1F380E88383B2
:1018F0000115110571F01387028781E883838091B8
:101900000A0290910B02892B21F4F0930B02E093D1
:101910000A022097C9F0D187C087838182608383C0
:1019200080910C0290910D02892B71F4F0930D02BD
:10193000E0930C0280910E0290910F02892B21F40A
:10194000F0930F02E0930E02CF01DF91CF911F9130
:101950000F910895CF93DF93EC012B8120FF33C0CB
:1019600026FF0AC02F7B2B838E819F8101969F8348
:101970008E838A8190E029C022FF0FC0E881F9811F
:101980008081992787FD9095009719F420622B8319
:101990001AC03196F983E8830EC0EA85FB85099564
:1019A00097FF09C02B81019611F480E101C080E20C
:1019B000822B8B8308C02E813F812F5F3F4F3F8357
:1019C0002E83992702C08FEF9FEFDF91CF9108956B
:1019D0000F931F93CF93DF93182F092FEB018B8168
:1019E00081FD03C08FEF9FEF20C082FF10C04E81AA
:1019F0005F812C813D81421753077CF4E881F98196
:101A00009F012F5F3F4F39832883108306C0E885ED
:101A1000F985812F0995892B29F72E813F812F5F29
:101A20003F4F3F832E83812F902FDF91CF911F91C6
:101A30000F910895FB01238120FF12C026FD10C0E5
:101A40008F3F3FEF930761F082832F7D20642383D4
:101A500026813781215031093783268399270895BC
:101A60008FEF9FEF0895FA01AA27283051F1203116
:101A700081F1E8946F936E7F6E5F7F4F8F4F9F4F22
:101A8000AF4FB1E03ED0B4E03CD0670F781F891F64
:101A90009A1FA11D680F791F8A1F911DA11D6A0F32
:101AA000711D811D911DA11D20D009F468943F91E5
:101AB0002AE0269F11243019305D3193DEF6CF01E4
:101AC0000895462F4770405D4193B3E00FD0C9F7AA
:101AD000F6CF462F4F70405D4A3318F0495D31FD17
:101AE0004052419302D0A9F7EACFB4E0A69597956A
:101AF000879577956795BA95C9F700976105710540
:101B000008959B01AC010A2E069457954795379589
:101B10002795BA95C9F7620F731F841F951FA01DE3
:101B200008950F931F93CF93DF93869F8001879F24
:101B3000100D969F100D1124C8010E94AD0DEC01EF
:101B4000009729F0A80160E070E00E94D70ECE0156
:101B5000DF91CF911F910F910895CF93DF93823042
:101B6000910510F482E090E0E0911202F0911302EE
:101B700020E030E0A0E0B0E0309739F140815181C1
:101B800048175907B8F04817590771F482819381B3
:101B9000109729F013969C938E9312972CC09093D4
:101BA00013028093120227C02115310531F042172C
:101BB000530718F0A901DB0101C0EF019A01BD0133
:101BC000DF010280F381E02DD7CF21153105F9F037
:101BD000281B390B2430310580F48A819B816115E3
:101BE000710521F0FB019383828304C0909313025B
:101BF00080931202FE01329644C0FE01E20FF31FF1
:101C00008193919322503109398328833AC02091DE
:101C1000100230911102232B41F4209116013091D2
:101C2000170130931102209310022091140130917A
:101C300015012115310541F42DB73EB7409118012A
:101C400050911901241B350BE0911002F091110203
:101C5000E217F307A0F42E1B3F0B2817390778F083
:101C6000AC014E5F5F4F2417350748F04E0F5F1FE2
:101C700050931102409310028193919302C0E0E0CF
:101C8000F0E0CF01DF91CF910895CF93DF930097DC
:101C900009F487C0FC01329713821282C0911202AC
:101CA000D0911302209781F420813181280F391FB0
:101CB00080911002909111028217930779F5F093A9
:101CC0001102E09310026DC0DE0120E030E0AE179B
:101CD000BF0750F412964D915C9113979D014115E9
:101CE000510509F1DA01F3CFB383A2834081518119
:101CF000840F951F8A179B0771F48D919C91119702
:101D0000840F951F02969183808312968D919C91EA
:101D10001397938382832115310529F4F0931302DD
:101D2000E09312023EC0D9011396FC93EE931297F2
:101D30004D915D91A40FB51FEA17FB0779F48081DF
:101D40009181840F951F0296D90111969C938E93D1
:101D50008281938113969C938E931297E0E0F0E03A
:101D60008A819B81009719F0FE01EC01F9CFCE0129
:101D7000029628813981820F931F209110023091A1
:101D800011022817390769F4309729F410921302C9
:101D90001092120202C013821282D0931102C093D9
:101DA0001002DF91CF910895992788270895DC01CB
:101DB00001C06D9341505040E0F70895F894FFCF73
:101DC000FFFFFFFF00008000000000808000000097
:0A1DD0000080000000001402200053
:00000001FF
