:100000000C9430010C944D010C944D010C944D0155
:100010000C944D010C9471020C944D010C944D0103
:100020000C944D010C944D010C944D010C944D0118
:100030000C944D010C9460020C944D010C944D01F4
:100040000C944D010C944D010C944D010C944D01F8
:100050000C944D010C9471010C944D010C944D01C4
:100060000C944D010C944D0105A84CCDB2D44EB961
:100070003836A9020C50B9918688083CA6AAAA2A4B
:10008000BE000000803F6E616E00696E66006364B2
:10009000696E6F70737578585B6566674546470093
:1000A000616E006E66696E69747900CDCCCC3D0AD4
:1000B000D7233C17B7D13877CC2B329595E6241F40
:1000C000B14F0A000020410000C84200401C4620F9
:1000D000BCBE4CCA1B0E5AAEC59D74256C642C2543
:1000E000642C25642C256C642C256C642C256C6494
:1000F0000D0A0074696D65287573292C7265666533
:1001000072656E63652063757272656E74286D41E9
:10011000292C63757272656E74286D41292C636198
:10012000727420706F736974696F6E28756D292CF5
:1001300070656E64756C756D20616E676C65286D99
:10014000646567292C74617267657428756D290D63
:100150000A00256C6420256C640D0A00256C64205F
:10016000256C640D0A0000407A10F35A00A0724E0C
:1001700018090010A5D4E80000E87648170000E44C
:100180000B54020000CA9A3B000000E1F505000094
:1001900080969800000040420F000000A0860100F9
:1001A0000000102700000000E803000000006400C9
:1001B000000000000A000000000001000000000034
:1001C0002C76D888DC674F0823DFC1DFAE59E1B158
:1001D000B796E5E3E453C63AE651997696E8E6C267
:1001E0008426EB898C9B62ED407C6FFCEFBC9C9F6E
:1001F00040F2BAA56FA5F490055A2AF75C936B6C90
:10020000F9676DC11BFCE0E40D47FEF520E6B50083
:10021000D0ED902E0300943577050080841E0800F1
:1002200000204E0A000000C80C333333330F986EA1
:1002300012831141EF8D2114893BE65516CFFEE65E
:10024000DB18D1844B381BF77C1D901DA4BBE42424
:10025000203284725E228100C9F124ECA1E53D27A1
:1002600011241FBECFEFD8E0DEBFCDBF11E0A0E06C
:10027000B1E0E8E0F5E302C005900D92AE32B107BF
:10028000D9F722E0AEE2B1E001C01D92AF32B20771
:10029000E1F70E9494130C94821A0C940000909140
:1002A000C00095FFFCCF8093C60080E090E00895E9
:1002B0008091C00087FFFCCF8091C600992787FD01
:1002C0009095089580E480937C008FEA80937A0073
:1002D00010927B007894EAE7F0E08081806480836C
:1002E00008951F920F920FB60F9211242F938F93A0
:1002F0009F93809178002091790090E0922B9093C9
:100300002302809322029F918F912F910F900FBE15
:100310000F901F9018958AB180668AB98FEF88BDBB
:1003200087BD80EF84BD84B5836084BD85B5816061
:1003300085BD0895219A3A9A209A399A549A5C9ADE
:100340005798E8E6F0E0808184608083EDE6F0E095
:1003500080818068808378940895529A539A3B985C
:1003600008955A9845E34A95F1F700005A9A97E0A4
:1003700080E046B143FB222720F9092E01C0220F5D
:100380000A94EAF7822B5B9A45E34A95F1F700005D
:100390005B9845E34A95F1F70000915050F70895B6
:1003A000882309F44CC0429A299845E34A95F1F70D
:1003B0000000A3E060E070E0CB014A2F50E0440F62
:1003C000551FFA01EA5DFE4FE081EE23B1F1289A54
:1003D000FA01EA5DFE4F4181442369F1419A5A983E
:1003E000E5E3EA95F1F700005A9A50E047E0E6B1FC
:1003F000E3FB222720F9042E01C0220F0A94EAF71A
:10040000522B5B9AE5E3EA95F1F700005B98E5E390
:10041000EA95F1F70000415050F7650F711D811DFD
:10042000911DAA2331F0982F872F762F6627A15090
:1004300020F6299A08954198D2CF2898C9CF42989A
:10044000B3CF5C988FE99FE00197F1F700C00000FF
:100450005C9A08959091C00095FFFCCF8093C600F0
:1004600008958091C000807808958091C00087FF32
:10047000FCCF8091C60008951092C50080E1809362
:10048000C40082E08093C00088E08093C10086E0D1
:100490008093C20068E571E08FE491E00C94E81766
:1004A00085E0809381001092850010928400EFE631
:1004B000F0E0808181608083789410922402089516
:1004C0001F920F920FB60F9211248F9380912402E6
:1004D0008F5F809324028F910F900FBE0F901F901B
:1004E00018951F920F920FB60F9211240F900FBE06
:1004F0000F901F901895FC01F8949B012150310931
:10050000672B09F424C0019007D0019005D0019019
:1005100003D0019001D017C008D007D006D005D075
:1005200004D003D002D001D008952B9A001C000003
:10053000000008F02B980000000000000000000000
:1005400008F42B9808952150310908F0DCCF7894F5
:100550008FE391E00197F1F700C0000008952F921A
:100560003F924F925F926F927F928F929F92AF9243
:10057000BF92CF92DF92EF92FF920F931F93CF9390
:10058000DF93CDB7DEB7CD55D1090FB6F894DEBFF6
:100590000FBECDBF89A7292EF89480918400909139
:1005A000850080902402912CA12CB12C5401992417
:1005B0008824880E991EA11CB11C880C991CAA1CA9
:1005C000BB1C880C991CAA1CBB1C880C991CAA1C5F
:1005D000BB1C880C991CAA1CBB1C880C991CAA1C4F
:1005E000BB1C880C991CAA1CBB1C789480E00E9440
:1005F000D0018B019C01000F111F221F331F000F20
:10060000111F221F331F000F111F221F331F060F40
:10061000171F281F391F000F111F221F331F0983A7
:100620001A832B833C83F89481E00E94D00160936D
:100630002E0170932F0180933001909331018091AE
:100640002E0190912F01A0913001B0913101809144
:10065000180190911901A0911A01B0911B01789491
:10066000249A89A29AA2ABA2BCA21AAA1BAA1CAA6B
:100670001DAA3324339420E931E040E050E02EA756
:100680003FA748AB59AB198A1A8A1B8A1C8A1E8A53
:100690001D8AF12C1DA21EA21FA218A61AA61BA617
:1006A0001CA61DA61D8E1E8E1F8E18A2198E1A8EB8
:1006B0001B8E1C8E81E08319382E09F48DC12C9A73
:1006C000F89480918400909185004091240250E03C
:1006D00060E070E09A0111270027080F191F211D03
:1006E000311D000F111F221F331F000F111F221F6A
:1006F000331F000F111F221F331F000F111F221F56
:10070000331F000F111F221F331F000F111F221F45
:10071000331F09871A872B873C87789480E00E94D3
:10072000D0019B01AC01220F331F441F551F220F24
:10073000331F441F551F220F331F441F551F260F01
:10074000371F481F591F220F331F441F551F2D836A
:100750003E834F835887F89481E00E94D0016093D4
:100760002E0170932F0180933001909331012091DD
:100770002E0130912F014091300150913101809133
:10078000180190911901A0911A01B0911B01789460
:10079000281B390B4A0B5B0BADE2B0E00E949514AD
:1007A0002B013C0161323FEB730732E08307910577
:1007B0007CF040E4441A4EE7540A45E0640A7108AC
:1007C00051E245165FEB550652E0650671048CF761
:1007D00080EE481680E458068DEF68068FEF7806A5
:1007E00084F490E4490E9EE7591E95E0691E711C41
:1007F000A0EE4A16A0E45A06ADEF6A06AFEF7A06FD
:1008000084F3B2E0FB1609F40DC6FF2009F444C0DE
:1008100091E0F912D0C009851A852B853C8589A104
:100820009AA1ABA1BCA1081B190B2A0B3B0B0D878E
:100830001E872F87388B0138134C294C31400CF41C
:1008400093C08FEF87BD88BDF8948091220290916C
:100850002302789480911C0190911D01A0911E01AA
:10086000B0911F01C35ADF4F0FB6F894DEBF0FBE21
:10087000CDBFDF91CF911F910F91FF90EF90DF904F
:10088000CF90BF90AF909F908F907F906F905F9030
:100890004F903F902F900895C301B2010E94A5127E
:1008A00020ED3FE049E450E40E94E01220E030E017
:1008B00044E353E40E94521520E030E04AE754E458
:1008C0000E9452156D8F7E8F8F8F98A36D817E81D0
:1008D0008F8198850E94A51220E034E244E759E414
:1008E0000E945215698F7A8F8B8F9C8F7F926F92A7
:1008F0005F924F9238853F934F814F935E815F9314
:100900008D818F9382E591E09F938F932F9209A51C
:100910000F930E9471180FB6F894DEBF0FBECDBFC3
:10092000D301C20189579C4EAF4FBF4F8F309742C2
:10093000A105B10508F03FC083EF90E09F938F932E
:100940002F920F930E9471180F900F900F900F909D
:1009500089859A85AB85BC8589A39AA3ABA3BCA3E3
:100960001D861E861F86188A8D819E81AF81B8855F
:10097000B7FD73C5813E9349A440B1054CF4D30142
:10098000C20177FC72C581339547A105B10534F1E9
:100990008FEF87BD88BDF894809122029091230249
:1009A000789480911C0190911D01A0911E01B0913D
:1009B0001F0152E0F52E89849A84AB84BC848D811A
:1009C0009E81AF81B88589839A83AB83BC8381E0A4
:1009D0008319382E09F073CE2C9872CEC984DA842C
:1009E000EB84FC84C818D908EA08FB082D813E81F5
:1009F0004F81588589819A81AB81BC81281B390B35
:100A00004A0B5B0BA8EEB3E00E949514A701960178
:100A10000E946F142AAF3BAF4CAF5DAF0D891E89AA
:100A2000B801882777FD8095982F0E94A5122AEBA0
:100A300039E444E151E40E94E01220E030E04AE76A
:100A400054E40E9452154B015C012AAD3BAD4CAD04
:100A50005DAD2A962CAF3DAF4EAF5FAF2A9757FDE5
:100A600061C52A968CAD9DADAEADBFAD2A970297FC
:100A7000A105B1050CF422C50AAD1BAD2CAD3DADF1
:100A800010161106120613060CF043C52DE435E1CD
:100A90004CE450E4C501B4010E94E6144B015C0132
:100AA00027E139ED4EE65FE30E94E01222966CAF3B
:100AB0007DAF8EAF9FAF229727E231E348E351E449
:100AC000C501B4010E94E0126A966CAF7DAF8EAF93
:100AD0009FAF6A97C701B6010E94A51220E034E2D9
:100AE00044E759E40E9452156D8B7E8B8F8B988F53
:100AF000C301B2010E94A51220ED3FE049E450E499
:100B00000E94E01220E038EC4FE258E40E945215B7
:100B10004B015C016D817E818F8198850E94A512B9
:100B200020E034E244E759E40E94521566966CAF27
:100B30007DAF8EAF9FAF6697C501B4010E944F1580
:100B400069837A838B839C83C501B4010E944C1610
:100B50006E966CAF7DAF8EAF9FAF6E972AE63CE589
:100B600048E153E469817A818B819C810E94E01283
:100B700029813A814B815C810E94E0129B01AC018A
:100B80006AE971EF86E394E40E94E6140E94561627
:100B90009B01AC0160E070E080E89FE30E94521589
:100BA0006EAB7FAB88AF99AF27E339E046EF52E4F5
:100BB0006DA17EA18FA198A50E94E0122EA93FA948
:100BC00048AD59AD0E94E0122E966CAF7DAF8EAF4E
:100BD0009FAF2E9727E139ED4EE65FE36AA57BA52F
:100BE0008CA59DA50E94E0126B017C0127E231E3F8
:100BF00048E351E46DA17EA18FA198A50E94E01267
:100C000029813A814B815C810E94E0122EA93FA983
:100C100048AD59AD0E94E0129B01AC01C701B6017D
:100C20000E94E61462966CAF7DAF8EAF9FAF629765
:100C30002D8D3E8D4F8D58A1C501B4010E94E61443
:100C40006B017C0123E738E84AEB53E466966CAD10
:100C50007DAD8EAD9FAD66970E94E01226966CAF7B
:100C60007DAF8EAF9FAF269723E738E84AEB53E47A
:100C7000698D7A8D8B8D9C8D0E94E0129B01AC0159
:100C800026966CAD7DAD8EAD9FAD26970E94E61485
:100C900022962CAD3DAD4EAD5FAD22970E94E7147C
:100CA00022966CAF7DAF8EAF9FAF229724E537EED3
:100CB0004FE855E469817A818B819C810E94E01222
:100CC00026966CAF7DAF8EAF9FAF2697A50194019E
:100CD0006D8D7E8D8F8D98A10E94E6149B01AC01D5
:100CE00026966CAD7DAD8EAD9FAD26970E94E0122D
:100CF0002EA93FA948AD59AD0E94E0129B01AC015D
:100D000022966CAD7DAD8EAD9FAD22970E94E7140B
:100D10004B015C01298D3A8D4B8D5C8D66966CADD7
:100D20007DAD8EAD9FAD66970E94E61420E030E069
:100D300048E452E40E94E01262962CAD3DAD4EAD07
:100D40005FAD62970E94E7149B01AC016D897E89BB
:100D50008F89988D0E94E0129B01AC01698D7A8D7C
:100D60008B8D9C8D0E94E714698F7A8F8B8F9C8F5F
:100D700020E030E040EA52E4C701B6010E94E012F0
:100D80002E962CAD3DAD4EAD5FAD2E970E94E71473
:100D90009B01AC016D897E898F89988D0E94E0123C
:100DA0009B01AC016D8D7E8D8F8D98A10E94E71403
:100DB0006D8F7E8F8F8F98A3A50194016D897E8999
:100DC0008F89988D0E94E0129B01AC016AA57BA5DA
:100DD0008CA59DA50E94E7146AA77BA78CA79DA759
:100DE00027E739E240E956E4C701B6010E94E01264
:100DF0006B017C012EEF34ED41E053E46E966CAD57
:100E00007DAD8EAD9FAD6E970E94E0129B01AC014F
:100E1000C701B6010E94E7146B017C016A962CADF4
:100E20003DAD4EAD5FAD6A9769817A818B819C81C2
:100E30000E94E0129B01AC01C701B6010E94E614BA
:100E40002EA93FA948AD59AD0E94E0129B01AC010B
:100E50006D897E898F89988D0E94E0129B01AC017B
:100E60006DA17EA18FA198A50E94E7146DA37EA31A
:100E70008FA398A789899A89AB89BC89805C924F96
:100E8000AC4FBF4F81389A41A640B10578F02EA5EE
:100E90003FA548A959A950954095309521953F4FB8
:100EA0004F4F5F4F2EA73FA748AB59AB89899A890F
:100EB000AB89BC890EA51FA528A939A9800F911F50
:100EC000A21FB31F898B9A8BAB8BBC8B6D817E81EC
:100ED0008F81988529893A894B895C89621B730BBC
:100EE000840B950B28EE33E040E050E00E946F1435
:100EF000DA01C901880F991FAA1FBB1F880F991F0C
:100F0000AA1FBB1F4C015D01880C991CAA1CBB1CAD
:100F1000880C991CAA1CBB1C880E991EAA1EBB1EFD
:100F2000820E931EA41EB51E20E030E04AE754E472
:100F300062966CAD7DAD8EAD9FAD62970E94E01262
:100F40006B017C016EA57FA588A999A925E030E0F9
:100F500040E050E00E946F14CA01B9010E94A5123E
:100F60009B01AC01C701B6010E94E6140E94BA15AC
:100F70008B019C01000F111F221F331F060F171F2B
:100F8000281F391F000F111F221F331F000F111FB1
:100F9000221F331F000F111F221F331F061B170BA9
:100FA000280B390B800E911EA21EB31EA0E9BFE7CD
:100FB000A30192010E94951420E536E440E050E040
:100FC0000E946F14820E931EA41EB51E20E030E016
:100FD0004AE754E42E966CAD7DAD8EAD9FAD2E9755
:100FE0000E94E0120E94BA15660F771F881F991F92
:100FF000660F771F881F991F8B019C01000F111F1F
:10100000221F331F000F111F221F331F060F171F30
:10101000281F391F080D191D2A1D3B1D2A968CAD4E
:101020009DADAEADBFAD2A970297A105B1050CF4F9
:1010300030C28AAD9BADACADBDAD181619061A060F
:101040001B060CF036C244E75CE060E070E0CB01C8
:10105000BA01600F711F821F931F0E94A5122AEB15
:1010600039E444E151E40E9452150E94BA158B0103
:101070006938A3E17A070CF400C28EE808E813E1AE
:101080009FEF97BD809588BDF894A0912202B09102
:1010900023027894C0901C01D0901D01E0901E01A5
:1010A000F0901F0124E630E00E948E149B01AC01F9
:1010B0002C193D094E095F09A8EEB3E00E94951472
:1010C0002DE732E140E050E00E946F143E8B2D8B03
:1010D000EC89EF93FB89FF934A894F9359895F937A
:1010E0007F926F925F924F9288858F939F819F939B
:1010F000AE81AF93BD81BF933F932F931F930F9307
:10110000E889EF93FF85FF930E850F931D851F934D
:101110008BED90E09F938F932F9209A50F930E94E0
:1011200071186AA97BA98CA99DA924E130E040E04F
:1011300050E00E944D140FB6F894DEBF0FBECDBF35
:10114000672B682B692B09F05EC1709014017294B3
:101150008FE078226090150162949FE069225090A0
:10116000160152942FE052224090170142943FE022
:10117000432243E0A42EB12C52E0852E912C01E0B5
:1011800010E060E3C62E65E7D62EE12CF12C9E869A
:101190008D864201C982DA82EB82FC82630134C00F
:1011A000F70180818D298083F801EE5CFE4F10826B
:1011B00080818C298083ED85FE85EE5CFE4F108258
:1011C000808189298083F501EE5CFE4F1082808149
:1011D0008829808329813A814B815C81285E334054
:1011E0004109510929833A834B835C830C5F1F4F6C
:1011F0004D855E854C5F5F4F5E874D8754E0A50E41
:10120000B11C013F110571F1A8014F5C5E4F7A01DD
:10121000DA011C9269817A818B819C812CE330E018
:1012200040E050E00E946F1457FD14C02D32314051
:10123000410551050CF0B4CFF801EE5CFE4F108271
:10124000ED85FE85EE5CFE4F1082F501EE5CFE4FF3
:101250001082C0CF50954095309521953F4F4F4F0C
:101260005F4FE4CF6D817E818F819885660F771FF8
:10127000881F991F0D811E812F813885600F711F76
:10128000821F931F660F771F881F991F20E639E77B
:101290004EEF5FEF0E946F1469017A0169897A89C4
:1012A0008B899C89660F771F881F991F29893A8926
:1012B0004B895C89620F731F841F951F660F771F10
:1012C000881F991F20E639E74EEF5FEF0E946F14E9
:1012D000225E3F4F4F4F5F4F8EE1C80ED11CE11C85
:1012E000F11C9CE3C916D104E104F1042CF0FBE3EA
:1012F000CF2ED12CE12CF12CBA01A9014C33510590
:101300006105710524F04BE350E060E070E0F7FC0C
:101310001FC1CC0CDD1CEE1CFF1CCC0CDD1CEE1C1C
:10132000FF1CF601EE5CFE4F808190910801892B35
:101330008083DB01CA0177FD07C18C019D01000F8D
:10134000111F221F331F000F111F221F331FF8010F
:10135000EE5CFE4F808190911001892B8083D70134
:10136000C6010196A11DB11DFC01EE5CFE4F60811E
:1013700070910901672B6083D901C8010196A11DF5
:10138000B11DFC01EE5CFE4F608170911101672B75
:101390006083D701C6010296A11DB11DFC01EE5C60
:1013A000FE4F608170910A01672B6083D901C801EB
:1013B0000296A11DB11DFC01EE5CFE4F6081709193
:1013C0001201672B6083D701C6010396A11DB11DD1
:1013D000FC01EE5CFE4F808190910B01892B808394
:1013E000D901C8010396A11DB11DFC01EE5CFE4FA1
:1013F000808190911301892B80836CE370E082E3FC
:1014000091E00E947B020AA91BA92CA93DA90F5FAC
:101410001F4F2F4F3F4F0AAB1BAB2CAB3DABFF24F5
:10142000F394C9CA7F926F925F924F92E885EF93CF
:10143000FF81FF930E810F931D811F938CE591E037
:101440009F938F932F9209A50F930E9471180FB647
:10145000F894DEBF0FBECDBFAECAB095A0959095F3
:1014600081959F4FAF4FBF4F85CA88279927DC01D1
:1014700084199509A609B70986CA6837BCEE7B07A7
:101480000CF072C021E708E71CEE27BD8FEF88BD86
:10149000FBCDB901A80137FD5FC04B305105610597
:1014A00071050CF44DC010161106120613060CF44B
:1014B000CACD44E057EF6FEF7FEFC9CD20E030E0B9
:1014C000A901C501B4010E9448161816C4F42DE400
:1014D00035E14CE450E4C501B4010E9448161816E9
:1014E0000CF4D4CA6A961CAE1DAE1EAE1FAE6A972F
:1014F00022961CAE1DAE1EAE1FAE2297EBCA23E392
:1015000033E343E150ECC501B4010E944B1587FF62
:10151000E9CF23E333E343E150E4C501B4010E9482
:10152000E714BCCA50954095309521953F4F4F4FD9
:101530005F4F2A962CAF3DAF4EAF5FAF2A9791CA4F
:1015400080E000E010E09CCD80E090E0DC01F5CE92
:10155000C12CD12C7601DDCE44275527BA01401B82
:10156000510B620B730B99CFDB0124E03DE30E942A
:101570008E1420E137E240E050E00E946F14AFEF9C
:10158000B0E00E94951428E833E140E050E00E946A
:101590006F14822F37FF74CD215077CFA3E1B0E0D5
:1015A000E4EDFAE00C94A0147C011B016A01FC013B
:1015B00017821682838181FF66C3BE016F5F7F4FF2
:1015C0004B01F7019381F10193FD859193FF819187
:1015D0001F01882309F453C3853239F493FD8591A3
:1015E00093FF81911F01853239F4B70190E00E9489
:1015F0008C1856016501E5CF10E0512C20E0203217
:10160000A0F48B3269F030F4803259F0833269F4FF
:1016100020612CC08D3239F0803339F4216026C02E
:101620002260246023C0286021C027FD27C030ED40
:10163000380F3A3078F426FF06C0FAE01F9F300DCD
:101640001124132F13C06AE0569E300D1124532E1F
:1016500020620CC08E3221F426FD11C3206406C026
:101660008C3611F4206802C0883641F4F10193FDF4
:10167000859193FF81911F018111C1CF9BEB980F41
:10168000933018F42061805E06C09BE9980F933078
:1016900008F0AAC12F7E26FF16E02F73722E853622
:1016A00021F4F22FF0647F2E08C0863621F4622FD9
:1016B0006068762E02C01111115077FE07C01C33EE
:1016C00048F444244394410E27E00BC0183030F412
:1016D000212F06C027E04CE3442E03C027E017E08B
:1016E000412C560174E0A70EB11CF6016081718196
:1016F00082819381042DA4010E94DF166C0109816F
:1017000000FF02C003FF06C071FC07C072FC08C0E6
:10171000612C08C03DE2632E05C02BE2622E02C0A0
:1017200090E2692E802F8C7099F1662011F084E090
:1017300001C083E0851510F0512C0BC0581A73FCC2
:1017400008C0B70180E290E00E948C185A94C9F753
:10175000F3CF662029F0B701862D90E00E948C1807
:1017600003FD03C00AE810E002C006E810E0F72D10
:10177000F0717F2EF8018491882309F476C27110EC
:101780008052B70190E00E948C180F5F1F4FF2CF7C
:1017900077FE0FC04C0C04FF04C08A81813309F42A
:1017A0004A94141474F5F8E0F41578F588E0482E9E
:1017B0002CC076FC2AC0812F90E08C159D059CF0F2
:1017C0006CEFC6166FEFD60674F0772D7068772E23
:1017D0000AC0E2E0F0E0EC0FFD1FE10FF11D808197
:1017E000803319F411501111F4CF77FE0EC0442448
:1017F0004394410E812F90E0C816D9062CF41C1991
:1018000004C04424439401C010E077FE07C01C14B8
:101810001D043CF496012F5F3F4F05C025E030E0EA
:1018200002C021E030E0662011F02F5F3F4F11230E
:1018300031F0412F50E04F5F5F4F240F351F452D92
:1018400050E02417350714F4521A01C0512C872D8B
:10185000897049F4552039F0B70180E290E00E9488
:101860008C185A94F7CF662029F0B701862D90E0A6
:101870000E948C1873FC09C0552039F0B70180E331
:1018800090E00E948C185A94F7CF77FE5FC09C2D91
:101890008D2DD7FE02C090E080E0692E782E40E0CA
:1018A00050E0C601841991099D878C8796012619FD
:1018B0003709280D391D812F90E0EE27FF27E81BFF
:1018C000F90BFF87EE87FFEF6F167F0669F4B7010C
:1018D0008EE290E02B8B3A8B488B598B0E948C18B0
:1018E000598948893A892B89C614D70454F06C85E4
:1018F0007D85661577052CF4F901E40FF51F8181CC
:1019000001C080E371E0671A71084F5F5F4FEE8599
:10191000FF856E167F066CF0B70190E02B8B3A8B3B
:10192000488B598B0E948C182B893A894889598990
:10193000CACF6C147D0439F49A81963318F4953328
:1019400011F404FF81E3B70190E04BC08A81813339
:1019500009F00F7EB70190E00E948C18111105C0AC
:1019600074FE18C085E490E017C0B7018EE290E0E5
:101970000E948C1882E066246394680EF401E80FDC
:10198000F11D8081B70190E00E948C18115041F345
:10199000862DF1CF85E690E0B7010E948C18D7FC28
:1019A00005C0C114D10439F404FF05C0D194C19419
:1019B000D1088DE201C08BE2B70190E00E948C1843
:1019C00080E36AE0C616D1042CF08F5FFAE0CF1AEC
:1019D000D108F7CFB70190E00E948C18B701C6017B
:1019E000C0960E948C1841C1833631F0833779F05C
:1019F000833509F058C021C0560172E0A70EB11C12
:101A0000F6018081898301E010E0640114C0560171
:101A1000F2E0AF0EB11CF601C080D18026FF03C0FA
:101A2000612F70E002C06FEF7FEFC6012B8B0E9429
:101A3000DD178C012B892F7715C05601F2E0AF0E10
:101A4000B11CF601C080D18026FF03C0612F70E079
:101A500002C06FEF7FEFC6012B8B0E94D2178C0163
:101A60002B892068722E23FD1AC0852D90E008175F
:101A70001907A8F4B70180E290E00E948C185A94EC
:101A8000F4CFF60177FC859177FE81916F01B70164
:101A900090E00E948C1851105A94015011090115C0
:101AA000110579F7E2C0843611F0893651F55601F7
:101AB00027FF09C0F4E0AF0EB11CF601608171810F
:101AC000828193810AC0F2E0AF0EB11CF601608101
:101AD0007181882777FD8095982F022F0F7697FFC9
:101AE00008C090958095709561957F4F8F4F9F4F5F
:101AF00000682AE030E0A4010E94D718C82EC81858
:101B00003EC0022F853721F40F7E2AE030E01DC051
:101B1000097F8F3691F018F4883559F0B0C08037BE
:101B200019F0883711F0ABC0006104FF09C00460F0
:101B300007C024FF08C0066006C028E030E005C0EA
:101B400020E130E002C020E132E0560107FF09C089
:101B5000F4E0AF0EB11CF601608171818281938146
:101B600008C0F2E0AF0EB11CF6016081718180E027
:101B700090E0A4010E94D718C82EC8180F7706FF5E
:101B80000BC0202F2E7FC11650F404FF0AC002FDA7
:101B900008C0202F2E7E05C0DC2C202F03C0DC2C9B
:101BA00001C0D12E24FF0DC0FE01EC0DF11D80817E
:101BB000803311F4297E09C022FF06C0D394D39448
:101BC00004C0822F867809F0D39423FD13C020FF30
:101BD00006C01C2DD51418F4150D1D19D52CD514BF
:101BE00068F4B70180E290E02B8B0E948C18D394AC
:101BF0002B89F5CFD51410F45D1801C0512C24FFAA
:101C000012C0B70180E390E02B8B0E948C182B89C7
:101C100022FF17C021FF03C088E590E002C088E7DB
:101C200090E0B7010CC0822F867859F021FD02C0E8
:101C300080E201C08BE227FD8DE2B70190E00E94B7
:101C40008C18C11638F4B70180E390E00E948C181C
:101C50001150F7CFCA94F401EC0DF11D8081B7014A
:101C600090E00E948C18C110F5CF552009F4C2CC29
:101C7000B70180E290E00E948C185A94F6CFF701E9
:101C80008681978102C08FEF9FEF6396E2E10C940B
:101C9000BC1420FD09C0FC0123FD05C022FF02C0C9
:101CA0007383628351834083089544FD10C046FDD1
:101CB00010C0DB01FC01AA0FBB1FEE1FFF1F109419
:101CC000D1F76A0F7B1F8E1F9F1F31E003C033E0E7
:101CD00001C034E0660F771F881F991F3150D1F77C
:101CE000620F711D811D911D08950F931F93CF9356
:101CF000DF938C01C8010E943318EC0197FD08C0E6
:101D00000E94B717892BB1F7B801CE010E94BE1807
:101D1000CE01DF91CF911F910F9108956F927F9225
:101D20009F92AF92BF92CF92DF92EF92FF920F936A
:101D30001F93CF93DF931F92CDB7DEB78C013B018A
:101D40005A0129830E943318AC01552729814B324F
:101D5000510521F04D32510581F4206831E0631ABC
:101D600071086114710411F480E07FC0C8012983F7
:101D70000E943318298197FDF7CFE22FED7F9E2E29
:101D8000322F307379F5803369F57301F1E0EF1A82
:101D9000F108E114F10409F454C0C80129830E9438
:101DA0003318298197FD4DC0382F3F7D383581F498
:101DB000292D2264922E32E0631A71086114710495
:101DC00009F43FC0C8010E94331897FF0BC039C007
:101DD00026FF04C0E92DE2609E2E03C0F92DF261BA
:101DE0009F2E3701C12CD12C760120ED280F2830F1
:101DF00080F094FE04C0B8010E94BE181FC02A30B3
:101E000040F096FEF8CF2F7D3FEE320F363098F738
:101E10002750492DC701B6010E94550E6B017C0168
:101E2000292D2260922E31E0631A71086114710429
:101E300059F0C8010E94331897FFD7CF91FC04C016
:101E400093CFC12CD12C760197FE08C0F094E0947A
:101E5000D094C094C11CD11CE11CF11C292DB701E8
:101E6000A601C5010E94490E81E00F90DF91CF913C
:101E70001F910F91FF90EF90DF90CF90BF90AF90A8
:101E80009F907F906F900895A0E2B0E0EAE4FFE0B9
:101E90000C94A2145C014B017A018E010F5F1F4F5D
:101EA000680180E2F80111928A95E9F7F5016380F3
:101EB00080E090E0712C412CB0E041E050E0F9016D
:101EC00063FC559063FE51908F01A52D9F01511029
:101ED00003C080E090E07FC0FEE55F1202C0009783
:101EE00061F16B2F70E0681779074CF46DE55616B9
:101EF00061F1EDE25E1203C0442009F103C041101C
:101F000001C0752C6A2F669566956695F601E60FF9
:101F1000F11D6A2F67708A0102C0000F111F6A95B8
:101F2000E2F7B8017081762B7083A71559F0A715D9
:101F300010F4AF5FE7CFA150E5CFB1E004C0442477
:101F4000439401C0412C0196BACF442019F08E81F0
:101F500080628E83B11103C07724739419C0F60197
:101F6000CE018196208120952193E817F907D1F7BA
:101F7000F3CFE114F10429F0F7018083C701019642
:101F80007C0191E0891A910881149104F1F0712C7F
:101F9000C5010E94331897FD16C0282F2695269557
:101FA0002695F601E20FF11D208130E0AC0147706B
:101FB000552702C0359527954A95E2F720FDD9CFE0
:101FC000B5010E94BE18711084CFE114F10411F024
:101FD000F7011082C801A096E0E10C94BE142F9284
:101FE0003F924F925F926F927F929F92AF92BF9279
:101FF000CF92DF92EF92FF920F931F93CF93DF93D5
:1020000000D000D000D0CDB7DEB76C018B011A0133
:102010000E9433189E838D8399278B32910529F076
:102020008D9799F480E8982E01C0912C01501109E8
:102030000115110511F480E036C1C6010E94331864
:102040009E838D8397FF02C0F6CF912C8D819E8158
:102050000E94BF178936910541F08E369105D9F55A
:10206000B0EA6B2EB0E07B2E04C0A3EA6A2EA0E09B
:102070007A2E8FEF681A780AF3013197B490BB205B
:10208000F1F0015011090115110571F0C6010E940E
:1020900033187C0197FD08C00E94BF17B81649F39A
:1020A000B601C7010E94BE1826EA621620E0720639
:1020B00009F0C1CF80E090E0A0E8BFE709C093EA53
:1020C000691690E07906B1F780E090E0A0ECBFE7F8
:1020D000BC01CD01D8C0412C512C3201E12CF12C96
:1020E0002D8120532A3028F5E92DE260BE2E892D5E
:1020F000887092FE06C0811123C0FFEFEF1AFF0A1D
:102100001FC0882319F081E0E81AF10840E2C301FA
:10211000B2010E94550E2B013C0198E9491699E93C
:102120005906690699E1790658F0E92DE660BE2E58
:1021300007C02E3FA1F493FC12C0F92DF860BF2E0A
:10214000015011090115110549F0C6010E9433180B
:102150009E838D839B2C97FD02C0C2CF9B2C91FE4A
:102160006ACF8D818F7D853409F056C0580121E0FA
:10217000A21AB108A114B10409F45DCFC6010E94EE
:1021800033189E838D8397FD56CF99278B32910507
:1021900029F08D9781F4892D8061982E580192E065
:1021A000A91AB108A114B10409F445CFC6010E94CF
:1021B00033189E838D838D819E81C0970A9708F086
:1021C0003ACF8501A12CB12CB501882777FD8095E8
:1021D000982F2D81205340E20E94550EAB01BC0187
:1021E0005A01015011090115110571F0C601498309
:1021F0005A836B837C830E9433189E838D83C097A0
:1022000049815A810A9700F394FE04C0AA24BB2492
:10221000A41AB50AEA0CFB1C012B41F0ED81FE81EA
:10222000F7FD04C0B601CF010E94BE18C301B20180
:102230000E94A312F7FE08C0F194E194F108FFEBAD
:10224000AF2EF0E0BF2E04C0E7EDAE2EE0E0BE2ED4
:102250006501F8E1CF1AD10800E210E0E016F106BE
:1022600050F0F50125913591459154910E94E0126D
:10227000E01AF10AF3CF24E0A21AB10816950795E7
:10228000AC14BD0459F797FE05C0DC01CB01B05872
:10229000BC01CD012114310429F0F1016083718367
:1022A0008283938381E026960FB6F894DEBF0FBE3B
:1022B000CDBFDF91CF911F910F91FF90EF90DF90F5
:1022C000CF90BF90AF909F907F906F905F904F9016
:1022D0003F902F900895A1E0B0E0E1E7F1E10C9488
:1022E000A2148C012B017A01FC0117821682A12C09
:1022F000F801D380F201D3FC8591D3FE8191382F70
:102300002F01882309F416C190E039830E94B71782
:102310003981892B21F0C8010E94750EE9CF353231
:1023200041F4F201D3FC3591D3FE31912F013532C6
:1023300069F4C80139830E943318398197FDF8C0C8
:102340003817B1F2B8010E94BE18F4C03A3241F415
:10235000D3FC3591D3FE31912F01BB24B39401C03E
:10236000B12C812C912C20ED230F2A3088F4FB2DE9
:10237000F260BF2EB40180E090E040E20E94550E72
:102380004B01F201D3FC3591D3FE31912F01EBCFFC
:10239000B1FE04C08114910421F4CCC088248A9435
:1023A000982C383619F03C3661F014C0F201D3FC99
:1023B0003591D3FE31912F01383661F4FB2DF86051
:1023C000BF2E8B2D8460B82EF201D3FC3591D3FE45
:1023D00031912F01332309F4ADC0632F70E08EE8F3
:1023E00090E039830E94C7173981892B09F4A2C074
:1023F000B0FC07C0F701C080D180C70102967C0104
:1024000002C0C12CD12C3E3651F4F80146815781CF
:1024100060E070E02B2DC6010E94490E69CF333673
:10242000C9F4B1FC03C088248394912CC8010E9494
:10243000331897FD7DC0C114D10429F0F6018083C3
:10244000C60101966C0191E0891A910881149104EA
:1024500069F76AC03B3559F49201A601B401C8017D
:102460000E94440F2C01009709F05EC058C0C801BB
:1024700039830E94750E398197FD5AC03F36F1F1BC
:1024800040F43436B9F13936E1F1383509F040C05D
:102490002DC03337B9F018F4303741F139C0353732
:1024A00049F1383719F134C0C114D10429F0F601CB
:1024B0006082C60101966C0191E0891A910881142D
:1024C000910471F0C8010E9433183C0197FD08C0C7
:1024D0000E94B717892B41F3B801C3010E94BE18AF
:1024E000C114D10409F1F60110821EC0FB2DF06465
:1024F000BF2E07C08B2D8062B82E03C09B2D90612C
:10250000B92E2B2DA601B401C8010E948E0E05C064
:10251000A601B401C8010E94EF0F811105C0F801A6
:102520008381807329F406C0B0FCE2CEA394E0CE90
:10253000AA2019F08A2D90E002C08FEF9FEF21961C
:10254000E0E10C94BE14E89409C097FB3EF490952A
:102550008095709561957F4F8F4F9F4F9923A9F07C
:10256000F92F96E9BB279395F6958795779567950B
:10257000B795F111F8CFFAF4BB0F11F460FF1BC04F
:102580006F5F7F4F8F4F9F4F16C0882311F096E9E2
:1025900011C0772321F09EE8872F762F05C0662390
:1025A00071F096E8862F70E060E02AF09A95660F49
:1025B000771F881FDAF7880F9695879597F9089502
:1025C0000BD078C069D028F06ED018F0952309F0B0
:1025D0005AC05FC01124A2C07ED0A0F3959FD1F352
:1025E000950F50E0551F629FF001729FBB27F00DC1
:1025F000B11D639FAA27F00DB11DAA1F649F662716
:10260000B00DA11D661F829F2227B00DA11D621F64
:10261000739FB00DA11D621F839FA00D611D221F1E
:10262000749F3327A00D611D231F849F600D211D02
:10263000822F762F6A2F11249F5750408AF0E1F0A5
:1026400088234AF0EE0FFF1FBB1F661F771F881FEE
:1026500091505040A9F79E3F510570F014C05EC0E4
:102660005F3FECF3983EDCF3869577956795B795D9
:10267000F795E7959F5FC1F7FE2B880F911D969503
:10268000879597F9089597F99F6780E870E060E073
:1026900008959FEF80EC089500240A9416161706FB
:1026A00018060906089500240A9412161306140643
:1026B00005060895092E0394000C11F4882352F0A6
:1026C000BB0F40F4BF2B11F460FF04C06F5F7F4F5E
:1026D0008F4F9F4F089557FD9058440F551F59F045
:1026E0005F3F71F04795880F97FB991F61F09F3FFF
:1026F00079F087950895121613061406551FF2CF28
:102700004695F1DF08C0161617061806991FF1CF77
:1027100086957105610508940895E894BB2766279E
:102720007727CB0197F90895CF93DF93CDB7DEB725
:102730002E970FB6F894DEBF0FBECDBF239A2B980D
:10274000229A2A9880E480937C008FEA80937A0012
:1027500010927B00789480917A00806480937A0054
:102760008AB180668AB98FEF88BD87BD80EF84BD4E
:1027700084B5836084BD85B5816085BD85E0809327
:102780008100109285001092840080916F0081601A
:1027900080936F007894109224028AB180668AB97F
:1027A0008FEF88BD87BD80EF84BD84B5836084BD15
:1027B00085B5816085BD0E949A01529A539A3B98D3
:1027C0002A9A2FEF83ED90E3215080409040E1F76B
:1027D00000C0000028E833E160E070E0CB01AFE921
:1027E000BFE01197F1F700C00000F8944091220279
:1027F00050912302640F751F811D911D7894215003
:1028000031092115310559F722E330E040E050E06D
:102810000E946F1420931C0130931D0140931E01F0
:1028200050931F010E943C02FE0131968EE0DF01B1
:102830001D928A95E9F783E08C838FE491E09A8773
:10284000898788E591E09C878B87F0932802E09345
:102850002702F0932602E09325025C98EFE9FFE05F
:102860003197F1F700C000005C9AF894109285004F
:1028700010928400109224027894CE0101960E9456
:10288000AF022A9880E090E02E960FB6F894DEBF53
:102890000FBECDBFDF91CF910895A1E21A2EAA1BE2
:1028A000BB1BFD010DC0AA1FBB1FEE1FFF1FA21700
:1028B000B307E407F50720F0A21BB30BE40BF50BFD
:1028C000661F771F881F991F1A9469F76095709586
:1028D000809590959B01AC01BD01CF010895052E17
:1028E00097FB1EF400940E94861457FD07D00E94A7
:1028F0004D1407FC03D04EF40C948614509540956B
:10290000309521953F4F4F4F5F4F0895909580959B
:10291000709561957F4F8F4F9F4F08950E94D714F8
:10292000B7FF0895821B930B08950E94D714A59FAB
:10293000900DB49F900DA49F800D911D11240895BA
:102940002F923F924F925F926F927F928F929F92BF
:10295000AF92BF92CF92DF92EF92FF920F931F93AD
:10296000CF93DF93CDB7DEB7CA1BDB0B0FB6F8945E
:10297000DEBF0FBECDBF09942A88398848885F849E
:102980006E847D848C849B84AA84B984C884DF800F
:10299000EE80FD800C811B81AA81B981CE0FD11DF3
:1029A0000FB6F894DEBF0FBECDBFED010895A29F14
:1029B000B001B39FC001A39F700D811D1124911D13
:1029C000B29F700D811D1124911D08955058BB2791
:1029D000AA270ED06FCE60DE30F065DE20F031F435
:1029E0009F3F11F41EF455CE0EF4E095E7FB4BCE5D
:1029F000E92F71DE80F3BA17620773078407950722
:102A000018F071F49EF589CE0EF4E0950B2EBA2FD6
:102A1000A02D0B01B90190010C01CA01A0011124E4
:102A2000FF27591B99F0593F50F4503E68F11A1690
:102A3000F040A22F232F342F4427585FF3CF469521
:102A400037952795A795F0405395C9F77EF41F1643
:102A5000BA0B620B730B840BBAF09150A1F0FF0F0D
:102A6000BB1F661F771F881FC2F70EC0BA0F621FF9
:102A7000731F841F48F4879577956795B795F795E9
:102A80009E3F08F0B3CF9395880F08F09927EE0F7B
:102A90009795879508959FD008F481E00895C0D058
:102AA000E395E5C00CD006CEFEDD40F0F5DD30F05C
:102AB00021F45F3F19F0E7CD511130CEEACD0BDEA6
:102AC00098F39923C9F35523B1F3951B550BBB27F5
:102AD000AA2762177307840738F09F5F5F4F220FA2
:102AE000331F441FAA1FA9F333D00E2E3AF0E0E89B
:102AF00030D091505040E695001CCAF729D0FE2FE7
:102B000027D0660F771F881FBB1F26173707480778
:102B1000AB07B0E809F0BB0B802DBF01FF2793582E
:102B20005F4F2AF09E3F510568F0ADCDF7CD5F3F76
:102B3000ECF3983EDCF3869577956795B795F79516
:102B40009F5FC9F7880F911D9695879597F908950E
:102B5000E1E0660F771F881FBB1F621773078407AA
:102B6000BA0720F0621B730B840BBA0BEE1F88F7B9
:102B7000E095089504D06894B111D0CD0895B3DDE7
:102B800088F09F5790F0B92F9927B751A0F0D1F056
:102B9000660F771F881F991F1AF0BA95C9F712C0E0
:102BA000B13081F0BADDB1E00895B7CD672F782F4D
:102BB0008827B85F39F0B93FCCF38695779567954C
:102BC000B395D9F73EF490958095709561957F4FB8
:102BD0008F4F9F4F0895990F0008550FAA0BE0E8FB
:102BE000FEEF16161706E807F907C0F012161306CF
:102BF000E407F50798F0621B730B840B950B39F40F
:102C00000A2661F0232B242B252B21F408950A2674
:102C100009F4A140A6958FEF811D811D089539CD3E
:102C200062DDE8F3E894E0E0BB279F57F0F02AED7F
:102C30003FE049EC06C0EE0FBB0F661F771F881FF1
:102C400028F0B23A62077307840728F0B25A620B81
:102C5000730B840BE3959A9572F7803830F49A954C
:102C6000BB0F661F771F881FD2F790485FC0EF9396
:102C7000E0FF06C0A2EA2AED3FE049EC5FEBB8DED8
:102C800019DD0F90039401FC9058E8E6F0E061C074
:102C9000A2DF08F48FEF08959F93C2DF0F9007FC27
:102CA000EE5FE5CF11F40EF4F4CC3EC01CDDD0F3A2
:102CB0009923D9F3CEF39F57550B87FF43D00024B8
:102CC000A0E640EA900180585695979528F4805CDC
:102CD000660F771F881F20F026173707480730F444
:102CE000621B730B840B202931294A2BA69517945C
:102CF0000794202531254A2758F7660F771F881F2C
:102D000020F026173707480730F4620B730B840B4B
:102D1000200D311D411DA09581F7B901842F9158D7
:102D2000880F9695879508959F3F31F0915020F434
:102D3000879577956795B795880F911D9695879597
:102D400097F9089591505040660F771F881FD2F76A
:102D500008959F938F937F936F93FF93EF939B01BE
:102D6000AC012EDCEF91FF9105D02F913F914F9157
:102D70005F9126CCDF93CF931F930F93FF92EF9237
:102D8000DF927B018C01689405C0DA2EEF0124DC10
:102D9000FE01E894A5912591359145915591AEF3A9
:102DA000EF0126DEFE019701A801DA9479F7DF90A2
:102DB000EF90FF900F911F91CF91DF9108952830F0
:102DC00008F027E03327DA01990F311D87FD916064
:102DD00000966105710539F432602E5F3D9330E352
:102DE0002A95E1F708959F3F30F08038710561051D
:102DF00009F03C5F3C5F3D93913008F08068911D85
:102E0000DF93CF931F930F93FF92EF92192F987F29
:102E10009695E92F96959695E90FFF27E054FE4F7A
:102E200099273327EE24FF24A701E7010590089492
:102E3000079428F4360FE71EF81E491F511D660F30
:102E4000771F881F991F0694A1F70590079428F40F
:102E5000E70EF81E491F561FC11D770F881F991FC7
:102E6000661F0694A1F70590079428F4F80E491FF1
:102E7000561FC71FD11D880F991F661F771F069405
:102E8000A1F70590079420F4490F561FC71FD81FBC
:102E9000990F661F771F881F0694A9F784911095D4
:102EA000177041F0D695C79557954795F794E794D5
:102EB0001A95C1F7E6E6F1E0689415901591359101
:102EC0006591959105907FE27395E118F10A430BA6
:102ED000560BC90BD009C0F7E10CF11E431F561F5A
:102EE000C91FD01D7EF4703311F48A95E6CFE894A3
:102EF000015030F0080F0AF40027021708F4202FC1
:102F00002395022F7A3328F079E37D932A95E9F708
:102F100010C07D932A9589F6069497956795379505
:102F200017951794E118F10A430B560BC90BD009FA
:102F300098F023957E9173957A3308F070E37C9333
:102F40002013B8F77E9170617D9330F0839571E323
:102F50007D9370E32A95E1F71124EF90FF900F9194
:102F60001F91CF91DF91992787FD90950895911139
:102F7000BFC2803219F089508550D0F70895911161
:102F8000089581548A5108F4805E855A0895FC01A1
:102F90000590061621F00020D9F7C0010895319759
:102FA000CF010895FC010590615070400110D8F7E1
:102FB000809590958E0F9F1F0895FC016150704081
:102FC00001900110D8F7809590958E0F9F1F08955E
:102FD0000F931F93CF93DF93EC018B01009731F494
:102FE0006115710519F480E090E038C06EE070E082
:102FF00081E090E00E943519FC010097A1F380E880
:1030000083830115110571F01387028781E883839B
:103010008091250290912602892B21F4F0932602BB
:10302000E09325022097C9F0D187C0878381826011
:1030300083838091270290912802892B71F4F09369
:103040002802E09327028091290290912A02892B7D
:1030500021F4F0932A02E0932902CF01DF91CF916E
:103060001F910F910895CF93DF93EC012B8120FFE7
:1030700033C026FF0AC02F7B2B838E819F81019650
:103080009F838E838A8190E029C022FF0FC0E88150
:10309000F9818081992787FD9095009719F4206226
:1030A0002B831AC03196F983E8830EC0EA85FB852D
:1030B000099597FF09C02B81019611F480E101C0A9
:1030C00080E2822B8B8308C02E813F812F5F3F4F90
:1030D0003F832E83992702C08FEF9FEFDF91CF911F
:1030E0000895A0E0B0E0E7E7F8E10C94AE140F819A
:1030F0001885F801838188608383AE01455F5F4F47
:1031000069857A85C8010E94CE0AF8012381277F4C
:103110002383E4E00C94CA140F931F93CF93DF939F
:10312000182F092FEB018B8181FD03C08FEF9FEFDB
:1031300020C082FF10C04E815F812C813D814217EB
:1031400053077CF4E881F9819F012F5F3F4F39835A
:103150002883108306C0E885F985812F0995892B7E
:1031600029F72E813F812F5F3F4F3F832E83812F91
:10317000902FDF91CF911F910F910895FB01238133
:1031800020FF12C026FD10C08F3F3FEF930761F074
:1031900082832F7D2064238326813781215031094A
:1031A00037832683992708958FEF9FEF0895FA01BB
:1031B000AA27283051F1203181F1E8946F936E7F76
:1031C0006E5F7F4F8F4F9F4FAF4FB1E03ED0B4E067
:1031D0003CD0670F781F891F9A1FA11D680F791FA8
:1031E0008A1F911DA11D6A0F711D811D911DA11DB9
:1031F00020D009F468943F912AE0269F11243019C9
:10320000305D3193DEF6CF010895462F4770405D63
:103210004193B3E00FD0C9F7F6CF462F4F70405D12
:103220004A3318F0495D31FD4052419302D0A9F76D
:10323000EACFB4E0A6959795879577956795BA9567
:10324000C9F700976105710508959B01AC010A2E2D
:1032500006945795479537952795BA95C9F7620F04
:10326000731F841F951FA01D08950F931F93CF9365
:10327000DF93869F8001879F100D969F100D11246C
:10328000C8010E945119EC01009729F0A80160E0E3
:1032900070E00E947B1ACE01DF91CF911F910F91B8
:1032A0000895CF93DF938230910510F482E090E08F
:1032B000E0912D02F0912E0220E030E0A0E0B0E09D
:1032C000309739F14081518148175907B8F04817B4
:1032D000590771F482819381109729F013969C937A
:1032E0008E9312972CC090932E0280932D0227C0AC
:1032F0002115310531F04217530718F0A901DB0100
:1033000001C0EF019A01BD01DF010280F381E02DD0
:10331000D7CF21153105F9F0281B390B24303105A1
:1033200080F48A819B816115710521F0FB019383F3
:10333000828304C090932E0280932D02FE01329668
:1033400044C0FE01E20FF31F819391932250310993
:10335000398328833AC020912B0230912C02232BF1
:1033600041F4209122013091230130932C022093CB
:103370002B0220912001309121012115310541F4CA
:103380002DB73EB74091240150912501241B350BE8
:10339000E0912B02F0912C02E217F307A0F42E1B10
:1033A0003F0B2817390778F0AC014E5F5F4F2417A9
:1033B000350748F04E0F5F1F50932C0240932B02AD
:1033C0008193919302C0E0E0F0E0CF01DF91CF91D3
:1033D0000895CF93DF93009709F487C0FC013297DB
:1033E00013821282C0912D02D0912E02209781F477
:1033F00020813181280F391F80912B0290912C025E
:103400008217930779F5F0932C02E0932B026DC09D
:10341000DE0120E030E0AE17BF0750F412964D9168
:103420005C9113979D014115510509F1DA01F3CF24
:10343000B383A28340815181840F951F8A179B0714
:1034400071F48D919C911197840F951F0296918331
:10345000808312968D919C9113979383828321157B
:10346000310529F4F0932E02E0932D023EC0D901DC
:103470001396FC93EE9312974D915D91A40FB51F97
:10348000EA17FB0779F480819181840F951F0296DA
:10349000D90111969C938E938281938113969C936C
:1034A0008E931297E0E0F0E08A819B81009719F0FB
:1034B000FE01EC01F9CFCE01029628813981820FFD
:1034C000931F20912B0230912C022817390769F4A1
:1034D000309729F410922E0210922D0202C013820E
:1034E0001282D0932C02C0932B02DF91CF910895CA
:1034F000992788270895DC0101C06D934150504001
:08350000E0F70895F894FFCFF5
:10350800FFFFFFFF40FF0000000080000000008078
:103518008000000000800000A00F000000C800002C
:0E35280000002F022000010000000101000140
:00000001FF
