:100000000C9451020C946E020C946E020C946E02CD
:100010000C946E020C9492030C946E020C946E027B
:100020000C946E020C946E020C946E020C946E0290
:100030000C946E020C9481030C946E020C946E026C
:100040000C946E020C946E020C946E020C946E0270
:100050000C946E020C9492020C946E020C946E023C
:100060000C946E020C946E0205A84CCDB2D44EB91D
:100070003836A9020C50B9918688083CA6AAAA2A4B
:10008000BE000000803F6E616E00696E66006364B2
:10009000696E6F70737578585B6566674546470093
:1000A000616E006E66696E69747900CDCCCC3D0AD4
:1000B000D7233C17B7D13877CC2B329595E6241F40
:1000C000B14F0A000020410000C84200401C4620F9
:1000D000BCBE4CCA1B0E5AAEC59D74256C642C2543
:1000E000642C25642C256C642C256C642C256C6494
:1000F0000D0A0074696D65287573292C7265666533
:1001000072656E63652063757272656E74286D41E9
:10011000292C63757272656E74286D41292C636198
:10012000727420706F736974696F6E28756D292CF5
:1001300070656E64756C756D20616E676C65286D99
:10014000646567292C74617267657428756D290D63
:100150000A00256C6420256C640D0A00256C642C53
:1001600025642C25642C256C642C256C640D0A00F8
:1001700074696D65287573292C7265666572656E84
:1001800063652063757272656E74286D41292C63F6
:10019000757272656E74286D41292C6361727420CA
:1001A000706F736974696F6E28756D292C70656E38
:1001B00064756C756D20616E676C65286D6465672C
:1001C000290D0A00256C642C25642C25642C256CD3
:1001D000642C256C640D0A0074696D65287573299B
:1001E0002C7265666572656E6365206375727265F3
:1001F0006E74286D41292C63757272656E74286D5A
:1002000041292C6361727420706F736974696F6E19
:1002100028756D292C70656E64756C756D20616E26
:10022000676C65286D646567290D0A00256C642C70
:1002300025642C25642C256C642C256C640D0A0027
:1002400074696D65287573292C7265666572656EB3
:1002500063652063757272656E74286D41292C6325
:10026000757272656E74286D41292C6361727420F9
:10027000706F736974696F6E28756D292C70656E67
:1002800064756C756D20616E676C65286D6465675B
:10029000290D0A00256C642C25642C25642C256C02
:1002A000642C256C640D0A00000306090C0F12155E
:1002B000181C1F2225282B2E3134373A3D40444745
:1002C0004A4D4F5255585B5E6164676A6D6F727537
:1002D000787A7D808385888B8D909295979A9C9F64
:1002E000A1A4A6A8ABADAFB2B4B6B8BABCBFC1C3E7
:1002F000C5C7C9CACCCED0D2D4D5D7D9DADCDDDFD8
:10030000E0E2E3E5E6E7E9EAEBECEDEFF0F1F2F34A
:10031000F4F4F5F6F7F8F8F9FAFAFBFBFCFCFDFD4E
:10032000FDFEFEFEFEFEFEFEFFFEFEFEFEFEFEFEED
:10033000FDFDFDFCFCFBFBFAFAF9F8F8F7F6F5F425
:10034000F4F3F2F1F0EFEDECEBEAE9E7E6E5E3E2F6
:10035000E0DFDDDCDAD9D7D5D4D2D0CECCCAC9C75C
:10036000C5C3C1BFBCBAB8B6B4B2AFADABA8A6A442
:10037000A19F9C9A979592908D8B888583807D7A9A
:100380007875726F6D6A6764615E5B5855524F4D48
:100390004A4744403D3A3734312E2B2825221F1C32
:1003A0001815120F0C09060300407A10F35A00A02A
:1003B000724E18090010A5D4E80000E8764817002E
:1003C00000E40B54020000CA9A3B000000E1F5056E
:1003D000000080969800000040420F000000A086B8
:1003E00001000000102700000000E80300000000EA
:1003F0006400000000000A0000000000010000008E
:1004000000002C76D888DC674F0823DFC1DFAE59A7
:10041000E1B1B796E5E3E453C63AE651997696E83A
:10042000E6C28426EB898C9B62ED407C6FFCEFBCBE
:100430009C9F40F2BAA56FA5F490055A2AF75C93E9
:100440006B6CF9676DC11BFCE0E40D47FEF520E61F
:10045000B500D0ED902E0300943577050080841E02
:10046000080000204E0A000000C80C333333330F5D
:10047000986E12831141EF8D2114893BE65516CFFA
:10048000FEE6DB18D1844B381BF77C1D901DA4BB06
:10049000E424203284725E228100C9F124ECA1E5BB
:1004A0003D2711241FBECFEFD8E0DEBFCDBF11E046
:1004B000A0E0B1E0ECE7FAE402C005900D92AA31A9
:1004C000B107D9F721E0AAE1B1E001C01D92AB323A
:1004D000B207E1F70E94B21D0C943C250C94000079
:1004E0009091C00095FFFCCF8093C60080E090E023
:1004F00008958091C00087FFFCCF8091C6009927A6
:1005000087FD9095089580E480937C008FEA809326
:100510007A0010927B007894EAE7F0E080818064B2
:10052000808308951F920F920FB60F9211242F937C
:100530008F939F93809178002091790090E0922B87
:1005400090931F0180931E019F918F912F910F9087
:100550000FBE0F901F9018958AB180668AB98FEFF1
:1005600088BD87BD80EF84BD84B5836084BD85B5BB
:10057000816085BD0895219A3A9A209A399A549AB1
:100580005C9A5798E8E6F0E0808184608083EDE62D
:10059000F0E080818068808378940895529A539A1D
:1005A0003B9808955A9845E34A95F1F700005A9A06
:1005B00097E080E046B143FB222720F9092E01C0D5
:1005C000220F0A94EAF7822B5B9A45E34A95F1F7EA
:1005D00000005B9845E34A95F1F70000915050F711
:1005E0000895882309F44CC0429A299845E34A9516
:1005F000F1F70000A3E060E070E0CB014A2F50E08B
:10060000440F551FFA01EE5EFE4FE081EE23B1F17B
:10061000289AFA01EE5EFE4F4181442369F1419A26
:100620005A98E5E3EA95F1F700005A9A50E047E05E
:10063000E6B1E3FB222720F9042E01C0220F0A9421
:10064000EAF7522B5B9AE5E3EA95F1F700005B9835
:10065000E5E3EA95F1F70000415050F7650F711D91
:10066000811D911DAA2331F0982F872F762F6627A1
:10067000A15020F6299A08954198D2CF2898C9CF41
:100680004298B3CF5C988FE99FE00197F1F700C0E3
:1006900000005C9A08959091C00095FFFCCF809374
:1006A000C60008958091C000807808958091C000B0
:1006B00087FFFCCF8091C60008951092C50080E1AD
:1006C0008093C40082E08093C00088E08093C100E2
:1006D00086E08093C20069E772E080E792E00C94C4
:1006E0009A2285E080938100109285001092840008
:1006F000EFE6F0E0808181608083789410922001A1
:1007000008951F920F920FB60F9211248F9380912C
:1007100020018F5F809320018F910F900FBE0F906B
:100720001F9018951F920F920FB60F9211240F90E1
:100730000FBE0F901F9018952F923F924F925F928D
:100740006F927F928F929F92AF92BF92CF92DF92E1
:10075000EF92FF920F931F93CF93DF93CDB7DEB746
:100760002A970FB6F894DEBF0FBECDBF1C018901DA
:10077000F89420918400309185008091200190E0D0
:10078000A0E0B0E0DC0199278827820F931FA11D0C
:10079000B11D880F991FAA1FBB1F880F991FAA1F81
:1007A000BB1F880F991FAA1FBB1F880F991FAA1F65
:1007B000BB1F880F991FAA1FBB1F880F991FAA1F55
:1007C000BB1F4C015D017894A8EEB3E09A01AB0128
:1007D0000E94B31E6B017C01C80CD91CEA1CFB1CD7
:1007E0008C149D04AE04BF0454F18FEF87BD88BD07
:1007F000F89480911E0190911F01789480910401DA
:1008000090910501A0910601B09107012A960FB6BB
:10081000F894DEBF0FBECDBFDF91CF911F910F9136
:10082000FF90EF90DF90CF90BF90AF909F908F9010
:100830007F906F905F904F903F902F90089524E0AD
:100840003DE3D1010E94AC1E20E137E240E050E0E0
:100850000E948D1EAFEFB0E00E94B31E28E833E186
:1008600040E050E00E948D1EC9013FEF320F3D83F2
:1008700020952983A9E82A16A3E13A060CF0C6C000
:10088000B8E72B16BCEE3B060CF080C1F8948091C3
:1008900084009091850080902001912CA12CB12C96
:1008A000540199248824880E991EA11CB11C880C1F
:1008B000991CAA1CBB1C880C991CAA1CBB1C880C6C
:1008C000991CAA1CBB1C880C991CAA1CBB1C880C5C
:1008D000991CAA1CBB1C880C991CAA1CBB1C7894D4
:1008E00031E737BD8FEF88BDF894A0911E01B0911C
:1008F0001F01BE83AD83789480910401909105011E
:10090000A0910601B091070189839A83AB83BC83D0
:1009100080E00E94F1022B013C01F89481E00E94EA
:10092000F10260931A0170931B0180931C01909354
:100930001D0120911A0130911B0140911C01509121
:100940001D018091000190910101A0910201B091DF
:1009500003017894281B390B4A0B5B0BADE2B0E026
:100960000E94B31E9F938F937F936F93D301C20115
:10097000880F991FAA1FBB1F880F991FAA1FBB1F93
:10098000880F991FAA1FBB1F840D951DA61DB71D9B
:10099000880F991FAA1FBB1FBF93AF939F938F937D
:1009A00024E630E0AD81BE810E94AC1E9B01AC010B
:1009B00089819A81AB81BC81281B390B4A0B5B0B67
:1009C000A8EEB3E00E94B31E2DE732E140E050E014
:1009D0000E948D1E3F932F933F922F92BF92AF9212
:1009E0009F928F92A4E9B2E0BF93AF931F930F93AE
:1009F0000E9423230FB6F894DEBF0FBECDBF8C1428
:100A00009D04AE04BF040CF0F0CE40CFF89480916A
:100A100084009091850080902001912CA12CB12C14
:100A2000540199248824880E991EA11CB11C880C9D
:100A3000991CAA1CBB1C880C991CAA1CBB1C880CEA
:100A4000991CAA1CBB1C880C991CAA1CBB1C880CDA
:100A5000991CAA1CBB1C880C991CAA1CBB1C789452
:100A60003FEF37BD81E788BDF894A0911E01B0919A
:100A70001F01BE83AD83789480910401909105019C
:100A8000A0910601B091070189839A83AB83BC834F
:100A900080E00E94F1022B013C01F89481E00E9469
:100AA000F10260931A0170931B0180931C019093D3
:100AB0001D0120911A0130911B0140911C015091A0
:100AC0001D018091000190910101A0910201B0915E
:100AD00003017894281B390B4A0B5B0BADE2B0E0A5
:100AE0000E94B31E9F938F937F936F93D301C20194
:100AF000880F991FAA1FBB1F880F991FAA1FBB1F12
:100B0000880F991FAA1FBB1F840D951DA61DB71D19
:100B1000880F991FAA1FBB1FBF93AF939F938F93FB
:100B200024E630E0AD81BE810E94AC1E9B01AC0189
:100B300089819A81AB81BC81281B390B4A0B5B0BE5
:100B4000A8EEB3E00E94B31E2DE732E140E050E092
:100B50000E948D1E3F932F933F922F92BF92AF9290
:100B60009F928F92A4E9B2E0BF93AF931F930F932C
:100B70000E9423230FB6F894DEBF0FBECDBF8C14A6
:100B80009D04AE04BF040CF030CE40CF97FDC0C032
:100B9000F894809184009091850080902001912CA0
:100BA000A12CB12C540199248824880E991EA11CD3
:100BB000B11C880C991CAA1CBB1C880C991CAA1C73
:100BC000BB1C880C991CAA1CBB1C880C991CAA1C59
:100BD000BB1C880C991CAA1CBB1C880C991CAA1C49
:100BE000BB1C78943FEF37BD898188BDF894A091F4
:100BF0001E01B0911F01BA87A987789480910401E2
:100C000090910501A0910601B09107018D839E830B
:100C1000AF83B88780E00E94F1022B013C01F89479
:100C200081E00E94F10260931A0170931B0180938E
:100C30001C0190931D0120911A0130911B014091DC
:100C40001C0150911D018091000190910101A09122
:100C50000201B09103017894281B390B4A0B5B0BFE
:100C6000ADE2B0E00E94B31E9F938F937F936F938A
:100C7000D301C201880F991FAA1FBB1F880F991F9C
:100C8000AA1FBB1F880F991FAA1FBB1F840D951D8C
:100C9000A61DB71D880F991FAA1FBB1FBF93AF9337
:100CA0009F938F9324E630E0A985BA850E94AC1EFD
:100CB0009B01AC018D819E81AF81B885281B390BCA
:100CC0004A0B5B0BA8EEB3E00E94B31E2DE732E1A6
:100CD00040E050E00E948D1E3F932F933F922F9251
:100CE000BF92AF929F928F92A4E9B2E0BF93AF936D
:100CF0001F930F930E9423230FB6F894DEBF0FBEFD
:100D0000CDBF8C149D04AE04BF040CF06ECD40CF5B
:100D1000F894809184009091850080902001912C1E
:100D2000A12CB12C540199248824880E991EA11C51
:100D3000B11C880C991CAA1CBB1C880C991CAA1CF1
:100D4000BB1C880C991CAA1CBB1C880C991CAA1CD7
:100D5000BB1C880C991CAA1CBB1C880C991CAA1CC7
:100D6000BB1C7894ED81E7BDFFEFF8BDF8942091AE
:100D70001E0130911F013A872987789480910401E0
:100D800090910501A0910601B091070189839A8392
:100D9000AB83BC8380E00E94F1022B013C01F894FC
:100DA00081E00E94F10260931A0170931B0180930D
:100DB0001C0190931D0120911A0130911B0140915B
:100DC0001C0150911D018091000190910101A091A1
:100DD0000201B09103017894281B390B4A0B5B0B7D
:100DE000ADE2B0E00E94B31E9F938F937F936F9309
:100DF000D301C201880F991FAA1FBB1F880F991F1B
:100E0000AA1FBB1F880F991FAA1FBB1F840D951D0A
:100E1000A61DB71D880F991FAA1FBB1FBF93AF93B5
:100E20009F938F9324E630E0A985BA850E94AC1E7B
:100E30009B01AC0189819A81AB81BC81281B390B54
:100E40004A0B5B0BA8EEB3E00E94B31E2DE732E124
:100E500040E050E00E948D1E3F932F933F922F92CF
:100E6000BF92AF929F928F92A4E9B2E0BF93AF93EB
:100E70001F930F930E9423230FB6F894DEBF0FBE7B
:100E8000CDBF8C149D04AE04BF040CF0AECC40CF9B
:100E90002F923F924F925F926F927F928F929F928A
:100EA000AF92BF92CF92DF92EF92FF920F931F9378
:100EB000CF93DF93CDB7DEB76A970FB6F894DEBF56
:100EC0000FBECDBF9A8789874D835E836F837887F6
:100ED00009831A832B833C83150180E492E09F935E
:100EE0008F933F92AF920E942323F89480918400C5
:100EF000909185004091200150E060E070E03A015F
:100F000055244424480E591E611C711C440C551C68
:100F1000661C771C440C551C661C771C440C551C25
:100F2000661C771C440C551C661C771C440C551C15
:100F3000661C771C440C551C661C771C7894A8EE24
:100F4000B3E0A70196010E94B31E4B015C01840C23
:100F5000951CA61CB71C0F900F900F900F90481473
:100F600059046A047B0454F18FEF87BD88BDF8945F
:100F700080911E0190911F017894809104019091BD
:100F80000501A0910601B09107016A960FB6F89489
:100F9000DEBF0FBECDBFDF91CF911F910F91FF90AC
:100FA000EF90DF90CF90BF90AF909F908F907F9009
:100FB0006F905F904F903F902F90089529813A81D4
:100FC0004B815C818D819E81AF81B885281B390B57
:100FD0004A0B5B0B29833A834B835C83A701960101
:100FE000220F331F441F551F2D873E874F87588B75
:100FF00089859A85AA2797FDA095BA2F898B9A8B08
:10100000AB8BBC8B4D8A5E8A6F8A788EF894809108
:10101000840090918500C0902001D12CE12CF12C0E
:101020007601DD24CC24C80ED91EE11CF11CCC0CA9
:10103000DD1CEE1CFF1CCC0CDD1CEE1CFF1CCC0CC4
:10104000DD1CEE1CFF1CCC0CDD1CEE1CFF1CCC0CB4
:10105000DD1CEE1CFF1CCC0CDD1CEE1CFF1C789470
:10106000C701B6012D893E894F89588D621B730BCC
:10107000840B950B28EE33E040E050E00E948D1E7B
:1010800029013A0169817A818B819C810E94691EC4
:101090002D853E854F8558890E948D1E8D819E81AC
:1010A000AF81B885280F391F4A1F5B1FC301B201EA
:1010B0000E94691E28EE33E040E050E00E948D1E41
:1010C000B9E0220F331F441F551FBA95D1F7CA014B
:1010D000B90128EE33E040E050E00E948D1EDA01B5
:1010E000C9019927AA27BB27FC01E855FD4F30FF0E
:1010F000BBC0249130E0319521953109442737FD5B
:101100004095542F69897A898B899C890E94691E30
:101110002FEF30E040E050E00E948D1E298F3A8F83
:101120002938A3E13A070CF09AC02837BCEE3B07F8
:101130000CF09FC021E727BDFFEFF8BDF8940091A8
:101140001E0110911F017894209104013091050136
:10115000409106015091070129873A874B875C87A8
:1011600080E00E94F1022B013C01F89481E00E9492
:10117000F10260931A0170931B0180931C019093FC
:101180001D0120911A0130911B0140911C015091C9
:101190001D018091000190910101A0910201B09187
:1011A00003017894281B390B4A0B5B0BADE2B0E0CE
:1011B0000E94B31E9F938F937F936F93D301C201BD
:1011C000880F991FAA1FBB1F880F991FAA1FBB1F3B
:1011D000880F991FAA1FBB1F840D951DA61DB71D43
:1011E000880F991FAA1FBB1FBF93AF939F938F9325
:1011F00024E630E0D8010E94AC1E9B01AC01898539
:101200009A85AB85BC85281B390B4A0B5B0BA8EE76
:10121000B3E00E94B31E2DE732E140E050E00E94AF
:101220008D1E3F932F939A8D9F93A98DAF93FF921D
:10123000EF92DF92CF92ACE2B2E0BF93AF933F92D6
:101240002F920E9423230FB6F894DEBF0FBECDBFAE
:10125000C814D904EA04FB040CF086CED7CE21E7EB
:10126000EFEFE7BD28BD6ACF249130E040E050E0C9
:1012700049CFD90124E03DE30E94AC1E20E137E2D2
:1012800040E050E00E948D1EAFEFB0E00E94B31E20
:1012900028E833E140E050E00E948D1E37FD02C097
:1012A0002095DECF215047CF2F923F924F925F92F1
:1012B0006F927F928F929F92AF92BF92CF92DF9266
:1012C000EF92FF920F931F93CF93DF93CDB7DEB7CB
:1012D000CF54D1090FB6F894DEBF0FBECDBF1C01AD
:1012E000122F032F88ED91E09F938F933F932F93BD
:1012F0002D964FAF2D972E965FAF2E972F966FAFEF
:101300002F9760967FAF60970E942323F8942091D7
:101310008400309185008091200190E0A0E0B0E051
:101320003C0155244424420E531E611C711C440C84
:10133000551C661C771C440C551C661C771C440C01
:10134000551C661C771C440C551C661C771C440CF1
:10135000551C661C771C440C551C661C771C789425
:101360001DAA1EAA1FAA18AE19AA1AAA1BAA1CAA4D
:101370001DA61EA61FA618AA19A61AA61BA61CA65D
:101380001DA21EA21FA218A619A21AA21BA21CA26D
:1013900018A21F8E1E8E1D8E1C8E1B8E1A8E198EED
:1013A000188E1F8A1E8A1D8A1C8A1B8A1A8A198A0D
:1013B000188A1F861E861D861C861B861A8619861D
:1013C00018861F821E821D821C821B821A8219822D
:1013D000A8EEB3E02D964FAD2D972E965FAD2E97CC
:1013E0002F966FAD2F9760967FAD60979A01AB01F6
:1013F0000E94B31E6B017C01C40CD51CE61CF71CBB
:101400000F900F900F900F904C145D046E047F04AA
:101410005CF18FEF87BD88BDF89480911E0190919B
:101420001F0178948091040190910501A09106011B
:10143000B0910701C15BDF4F0FB6F894DEBF0FBE5E
:10144000CDBFDF91CF911F910F91FF90EF90DF9073
:10145000CF90BF90AF909F908F907F906F905F9054
:101460004F903F902F90089521E02DAF812C912C2B
:101470005401AE014F5F5F4F5FAF4EAF2896CCAEC9
:10148000DDAEEEAEFFAE2897750164012A963FAE41
:101490002EAE2A972B961FAF2B972C960FAF2C971B
:1014A0008601F894809184009091850080902001BD
:1014B000912CA12CB12C540199248824880E991EBA
:1014C000A11CB11C880C991CAA1CBB1C880C991C63
:1014D000AA1CBB1C880C991CAA1CBB1C880C991C40
:1014E000AA1CBB1C880C991CAA1CBB1C880C991C30
:1014F000AA1CBB1C789480E00E94F10269AF7AAF0D
:101500008BAF9CAFC701B60126E030E040E050E071
:101510000E948D1EFB01EE0FFF1FEE0FFF1F6EAD31
:101520007FADE60FF71F89AD9AADABADBCAD880FAF
:10153000991FAA1FBB1F880F991FAA1FBB1F880FC7
:10154000991FAA1FBB1F29AD3AAD4BAD5CAD820FF1
:10155000931FA41FB51F880F991FAA1FBB1F80A32D
:1015600091A3A2A3B3A33FEFC31AD30AE30AF30ADA
:10157000F89481E00E94F10260931A0170931B01BC
:1015800080931C0190931D0120911A0130911B0141
:1015900040911C0150911D01809100019091010129
:1015A000A0910201B09103017894281B390B4A0BDA
:1015B0005B0BADE2B0E00E94B31E21966FAF2197A6
:1015C00022967FAF229723968FAF239724969FAFC3
:1015D0002497C701B6016B5F7F4F8F4F9F4F26E067
:1015E00030E040E050E00E948D1E1B01220C331CB5
:1015F000220C331CAE014F5F5F4F5FAF4EAFFA015D
:10160000E20DF31D60A171A182A193A169AF7AAF30
:101610008BAF9CAFC701B60126E030E040E050E060
:101620000E948D1EFB01EE0FFF1FEE0FFF1F81E0DA
:1016300090E08C0F9D1FE80FF91F80A191A1A2A13E
:10164000B3A129AD3AAD4BAD5CAD281B390B4A0BAC
:101650005B0BA8EEB3E00E94B31EA5019401241910
:1016600035094609570929013A01220F331F441F42
:10167000551F240D351D461D571D220F331F441FB6
:10168000551F0E948D1E29013A010F7011270E94DB
:10169000812180FF31C121E030E02D962FAF2D97C1
:1016A0002E963FAF2E970E948121F801EE0FFF1F6B
:1016B00041E050E04C0F5D1FE40FF51F2D962FAD5C
:1016C0002D972E963FAD2E97BC01269FC001279FD8
:1016D000900D369F900D11242A966EAD7FAD2A97FE
:1016E0000E94791E918380838F8D98A12D8D3E8DD0
:1016F000820F931F2B8D3C8D820F931F298D3A8D66
:10170000820F931F2F89388D820F931F2D893E8959
:10171000820F931F2B893C89820F931F29893A8955
:10172000820F931F2F853889820F931F2D853E8549
:10173000820F931F2B853C85820F931F29853A8545
:10174000820F931F2F813885820F931F2D813E8139
:10175000820F931F2B813C81820F931F29813A8135
:10176000820F931F7DAD772309F49DC097FD01C1C2
:101770009595879595958795959587959595879551
:101780008C01045D1E4F8AEF4816510461047104F8
:101790000CF0B5C0003991E019070CF0ECC02FE156
:1017A0008FE190E000E911E0B1E0BDAF49AD5AAD85
:1017B0006BAD7CAD413C5742694071050CF09AC05D
:1017C00097FDAAC08FEF87BD209528BDF894A09102
:1017D0001E01B0911F0178944090040150900501C2
:1017E00060900601709007012496EFAD2497EF9367
:1017F0002396FFAD2397FF9322962FAD22972F9329
:1018000021963FAD21973F9381E090E08C0F9D1F83
:10181000820D931DFC01B09623812F9322812F937B
:1018200021812F93FC0180A18F9324E630E00E9458
:10183000AC1E9B01AC012419350946095709A8EED5
:10184000B3E00E94B31E2DE732E140E050E00E9479
:101850008D1E3F932F931F930F93BF92AF929F9232
:101860008F92A4ECB1E0BF93AF932C96FFAD2C9771
:10187000FF932B962FAD2B972F930E9423230FB608
:10188000F894DEBF0FBECDBF28966CAD7DAD8EAD9A
:101890009FAD289786169706A806B9060CF0B9CD15
:1018A00024013501FDCD97FD62C0959587959595ED
:1018B0008795959587958C010C521140B7E04B1692
:1018C000BFEF5B066B067B0664F10137EEEF1E0788
:1018D000B4F121EE81EE9FEF00E71EEF31E03DAF66
:1018E00049AD5AAD6BAD7CAD40345D406340710590
:1018F0000CF466CF1DAE64CF2FEF3FEFCECEAFEE30
:101900004A16A2E05A0661047104ACF121EE81EEA0
:101910009FEF00E71EEF48CF215027BD8FEF88BD16
:1019200055CFF2E14F16FDEF5F06FFEF6F067F0622
:1019300034F42FE18FE190E000E911E0CFCF24E013
:101940003DE3D8010E94AC1E20E137E240E050E0C8
:101950000E948D1EAFEFB0E00E94B31E28E833E175
:1019600040E050E00E948D1E822F932FB7CF079644
:101970009CCF0F96FDCE24E03DE3D8010E94AC1E23
:1019800020E137E240E050E00E948D1EAFEFB0E072
:101990000E94B31E28E833E140E050E00E948D1E13
:1019A000822F932F01CF2F923F924F925F926F928F
:1019B0007F928F929F92AF92BF92CF92DF92EF92DF
:1019C000FF920F931F93CF93DF93CDB7DEB76A9744
:1019D0000FB6F894DEBF0FBECDBF69837A838B83C9
:1019E0009C8329013A01A8019701160180E791E043
:1019F0009F938F933F92CF92ED8A3E8B4F8B588F60
:101A00000E942323F8948091840090918500C090D7
:101A10002001D12CE12CF12C560199248824880E28
:101A2000991EA11CB11C880C991CAA1CBB1C880CFB
:101A3000991CAA1CBB1C880C991CAA1CBB1C880CDA
:101A4000991CAA1CBB1C880C991CAA1CBB1C880CCA
:101A5000991CAA1CBB1C789480E00E94F102A8EE9D
:101A6000B3E02D893E894F89588D0E94B31E6B01CA
:101A70007C01C80CD91CEA1CFB1C0F900F900F9026
:101A80000F908C149D04AE04BF0454F18FEF87BDFA
:101A900088BDF89480911E0190911F0178948091E7
:101AA000040190910501A0910601B09107016A9689
:101AB0000FB6F894DEBF0FBECDBFDF91CF911F915F
:101AC0000F91FF90EF90DF90CF90BF90AF909F90DD
:101AD0008F907F906F905F904F903F902F900895E0
:101AE00060E472E48FE090E0A30192010E948D1EF9
:101AF0002D833E834F83588760E271EA87E090E050
:101B0000A30192010E948D1E29873A874B875C872B
:101B100029812B8B3A813C8B49815A815195419582
:101B200051095A8B498B8D869E86AF86B88AF89468
:101B3000809184009091850080902001912CA12CAF
:101B4000B12C540199248824880E991EA11CB11C23
:101B5000880C991CAA1CBB1C880C991CAA1CBB1CB9
:101B6000880C991CAA1CBB1C880C991CAA1CBB1CA9
:101B7000880C991CAA1CBB1C880C991CAA1CBB1C99
:101B80007894C501B4012D853E854F855889621B27
:101B9000730B840B950B28EE33E040E050E00E947D
:101BA0008D1ECA01B9012D813E814F8158850E9449
:101BB0008D1E29853A854B855C8526173707480792
:101BC00059070CF0A9C049895A895A8F498FDA01FF
:101BD000A938E3E1BE070CF09AC0A837FCEEBF07B6
:101BE0000CF0A1C021E727BD4FEF48BDF89400914C
:101BF0001E0110911F0178948091040190910501BC
:101C0000A0910601B091070189839A83AB83BC83BD
:101C100080E00E94F1022B013C01F89481E00E94D7
:101C2000F10260931A0170931B0180931C01909341
:101C30001D0120911A0130911B0140911C0150910E
:101C40001D018091000190910101A0910201B091CC
:101C500003017894281B390B4A0B5B0BADE2B0E013
:101C60000E94B31E9F938F937F936F93D301C20102
:101C7000880F991FAA1FBB1F880F991FAA1FBB1F80
:101C8000880F991FAA1FBB1F840D951DA61DB71D88
:101C9000880F991FAA1FBB1FBF93AF939F938F936A
:101CA00024E630E0D8010E94AC1E9B01AC01898182
:101CB0009A81AB81BC81281B390B4A0B5B0BA8EEC8
:101CC000B3E00E94B31E2DE732E140E050E00E94F5
:101CD0008D1E3F932F939A8D9F93A98DAF93BF92A3
:101CE000AF929F928F92ACE5B1E0BF93AF933F92DA
:101CF0002F920E9423230FB6F894DEBF0FBECDBFF4
:101D00008C149D04AE04BF040CF0C0CE10CF21E7AC
:101D10003FEF37BD28BD6ACF5B89598F8C898A8F89
:101D2000A98DBA8D55CF24E03DE30E94AC1E20E181
:101D300037E240E050E00E948D1EAFEFB0E00E941D
:101D4000B31E28E833E140E050E00E948D1E37FDCD
:101D500002C02095DDCF215046CF2F923F924F9267
:101D60005F926F927F928F929F92AF92BF92CF922B
:101D7000DF92EF92FF920F931F93CF93DF93CDB734
:101D8000DEB7C955D1090FB6F894DEBF0FBECDBF7F
:101D9000082F9DA7F89480918400909185008090F1
:101DA0002001912CA12CB12C540199248824880E57
:101DB000991EA11CB11C880C991CAA1CBB1C880C68
:101DC000991CAA1CBB1C880C991CAA1CBB1C880C47
:101DD000991CAA1CBB1C880C991CAA1CBB1C880C37
:101DE000991CAA1CBB1C789480E00E94F1029B0104
:101DF000AC01220F331F441F551F220F331F441FF6
:101E0000551F220F331F441F551F260F371F481F12
:101E1000591F220F331F441F551F29833A834B83B9
:101E20005C83F89481E00E94F10260931A01709340
:101E30001B0180931C0190931D0180911A019091C8
:101E40001B01A0911C01B0911D0180910001909196
:101E50000101A0910201B09103017894249A898E26
:101E60009A8EAB8EBC8E11E080E991E0A0E0B0E0EC
:101E700089A79AA7ABA7BCA71D861E861F86188AAE
:101E8000212C312CF12C19A21AA21BA21CA21DA2DA
:101E90001EA21FA218A61D8A1E8A1F8A188E198AC2
:101EA0001A8A1B8A1C8AF98681E0811B182F09F483
:101EB000C6C02C9AF894809184009091850040913E
:101EC000200150E060E070E03A0155244424480EBF
:101ED000591E611C711C440C551C661C771C440C5B
:101EE000551C661C771C440C551C661C771C440C46
:101EF000551C661C771C440C551C661C771C440C36
:101F0000551C661C771C789480E00E94F1026B01DE
:101F10007C01CC0CDD1CEE1CFF1CCC0CDD1CEE1C73
:101F2000FF1CCC0CDD1CEE1CFF1CC60ED71EE81ED1
:101F3000F91ECC0CDD1CEE1CFF1CF89481E00E9405
:101F4000F10260931A0170931B0180931C0190931E
:101F50001D0120911A0130911B0140911C015091EB
:101F60001D018091000190910101A0910201B091A9
:101F700003017894281B390B4A0B5B0BADE2B0E0F0
:101F80000E94B31E6D837E838F83988799859923E2
:101F900009F419C4913009F00FC4A3019201898D8D
:101FA0009A8DAB8DBC8D281B390B4A0B5B0B298797
:101FB0003A874B875C872138334C494C5140A4F415
:101FC000D701C601F7FC6AC4813E9349A440B1051C
:101FD0005CF48D819E81AF81B885B7FD67C4813384
:101FE0009547A105B1056CF18FEF87BD88BDF894C9
:101FF00080911E0190911F0178948091040190912D
:102000000501A0910601B0910701C75ADF4F0FB635
:10201000F894DEBF0FBECDBFDF91CF911F910F911E
:10202000FF90EF90DF90CF90BF90AF909F908F90F8
:102030007F906F905F904F903F902F9008952C98D5
:1020400039CFA3019201281939094A095B092D8F5B
:102050003E8F4F8F58A3A701960189809A80AB804D
:10206000BC80281939094A095B09A8EEB3E00E942F
:10207000B31E2D8D3E8D4F8D58A10E948D1E2EAB0F
:102080003FAB48AF59AFB101882777FD8095982FB6
:102090000E94C31C2AEB39E444E151E40E94FE1C77
:1020A00020E030E04AE754E40E94A61F4B015C01A7
:1020B0002EA93FA948AD59AD26962CAF3DAF4EAFE6
:1020C0005FAF269757FD54C426968CAD9DADAEAD3F
:1020D000BFAD26970297A105B1050CF410C42EA937
:1020E0003FA948AD59AD12161306140615060CF09B
:1020F000EFC32DE435E14CE450E4C501B4010E9486
:102100003A1F4B015C0127E139ED4EE65FE30E9487
:10211000FE1C22966CAF7DAF8EAF9FAF229727E259
:1021200031E348E351E4C501B4010E94FE1C6A9604
:102130006CAF7DAF8EAF9FAF6A976D8D7E8D8F8DAB
:1021400098A10E94C31C20E034E244E759E40E94B5
:10215000A61F6D8F7E8F8F8F98A36D817E818F815B
:1021600098850E94C31C20ED3FE049E450E40E94A2
:10217000FE1C20E038EC4FE258E40E94A61F4B0101
:102180005C01C701B6010E94C31C20E034E244E7B1
:1021900059E40E94A61F2E966CAF7DAF8EAF9FAF05
:1021A0002E97C501B4010E94A31F69837A838B8394
:1021B0009C83C501B4010E94A02066966CAF7DAFE0
:1021C0008EAF9FAF66972AE63CE548E153E469810C
:1021D0007A818B819C810E94FE1C29813A814B81EE
:1021E0005C810E94FE1C9B01AC016AE971EF86E3F1
:1021F00094E40E943A1F0E94AA209B01AC0160E077
:1022000070E080E89FE30E94A61F6EA77FA788ABBF
:1022100099AB27E339E046EF52E469A17AA18BA19B
:102220009CA10E94FE1C2EA53FA548A959A90E9469
:10223000FE1C2A966CAF7DAF8EAF9FAF2A9727E129
:1022400039ED4EE65FE36DA17EA18FA198A50E94B6
:10225000FE1C6AAB7BAB8CAB9DAB27E231E348E362
:1022600051E469A17AA18BA19CA10E94FE1C298145
:102270003A814B815C810E94FE1C2EA53FA548A996
:1022800059A90E94FE1C9B01AC016AA97BA98CA9DB
:102290009DA90E943A1F6AAB7BAB8CAB9DAB2D898D
:1022A0003E894F89588DC501B4010E943A1F62963C
:1022B0006CAF7DAF8EAF9FAF629723E738E84AEBF4
:1022C00053E42E966CAD7DAD8EAD9FAD2E970E94E2
:1022D000FE1C6AAF7BAF8CAF9DAF23E738E84AEBBB
:1022E00053E469897A898B899C890E94FE1C9B0131
:1022F000AC016AAD7BAD8CAD9DAD0E943A1F2296BC
:102300002CAD3DAD4EAD5FAD22970E943B1F6AAF35
:102310007BAF8CAF9DAF24E537EE4FE855E4698184
:102320007A818B819C810E94FE1C22966CAF7DAFCE
:102330008EAF9FAF2297A50194016D897E898F8909
:10234000988D0E943A1F9B01AC0122966CAD7DAD29
:102350008EAD9FAD22970E94FE1C2EA53FA548A9D9
:1023600059A90E94FE1C9B01AC016AAD7BAD8CADEE
:102370009DAD0E943B1F4B015C0129893A894B8925
:102380005C892E966CAD7DAD8EAD9FAD2E970E9473
:102390003A1F20E030E048E452E40E94FE1C2AA9E3
:1023A0003BA94CA95DA90E943B1F9B01AC016D8D0F
:1023B0007E8D8F8D98A10E94FE1C9B01AC016989C6
:1023C0007A898B899C890E943B1F698B7A8B8B8BC6
:1023D0009C8B20E030E040EA52E462966CAD7DAD2B
:1023E0008EAD9FAD62970E94FE1C2A962CAD3DAD2E
:1023F0004EAD5FAD2A970E943B1F9B01AC016D8DD6
:102400007E8D8F8D98A10E94FE1C9B01AC016D8971
:102410007E898F89988D0E943B1F6D8B7E8B8F8B61
:10242000988FA50194016D8D7E8D8F8D98A10E944E
:10243000FE1C9B01AC016DA17EA18FA198A50E94FD
:102440003B1F6DA37EA38FA398A727E739E240E93E
:1024500056E462966CAD7DAD8EAD9FAD62970E94E5
:10246000FE1C4B015C012EEF34ED41E053E4669617
:102470006CAD7DAD8EAD9FAD66970E94FE1C9B013D
:10248000AC01C501B4010E943B1F4B015C016A967F
:102490002CAD3DAD4EAD5FAD6A9769817A818B8180
:1024A0009C810E94FE1C9B01AC01C501B4010E94ED
:1024B0003A1F2EA53FA548A959A90E94FE1C9B01C1
:1024C000AC016D8D7E8D8F8D98A10E94FE1C9B01AD
:1024D000AC0169A17AA18BA19CA10E943B1F69A3B9
:1024E0007AA38BA39CA38D859E85AF85B889805CDC
:1024F000924FAC4FBF4F81389A41A640B10580F052
:1025000089A49AA4ABA4BCA4B094A0949094809401
:10251000811C911CA11CB11C89A69AA6ABA6BCA6C5
:102520008D849E84AF84B88829A53AA54BA55CA567
:10253000820E931EA41EB51E8D869E86AF86B88A17
:10254000C701B601681979098A099B0928EE33E0A9
:1025500040E050E00E948D1EDA01C901880F991FEA
:10256000AA1FBB1F880F991FAA1FBB1F4C015D012B
:10257000880C991CAA1CBB1C880C991CAA1CBB1C8F
:10258000880E991EAA1EBB1E820E931EA41EB51E87
:1025900020E030E04AE754E46AA97BA98CA99DA910
:1025A0000E94FE1C69837A838B839C8369A57AA52C
:1025B0008BA59CA525E030E040E050E00E948D1EF8
:1025C000CA01B9010E94C31C9B01AC0169817A81D7
:1025D0008B819C810E943A1F0E940E209B01AC01BE
:1025E000220F331F441F551F260F371F481F591F27
:1025F000220F331F441F551F220F331F441F551F27
:10260000220F331F441F551F261B370B480B590B36
:10261000820E931EA41EB51EA0E9BFE72D813E8148
:102620004F8158850E94B31E20E536E440E050E01B
:102630000E948D1E820E931EA41EB51E20E030E067
:102640004AE754E42A966CAD7DAD8EAD9FAD2A97D6
:102650000E94FE1C0E940E20660F771F881F991F84
:10266000660F771F881F991F9B01AC01220F331F34
:10267000441F551F220F331F441F551F260F371F9E
:10268000481F591F280D391D4A1D5B1D29833A8398
:102690004B835C8326968CAD9DADAEADBFAD2697CA
:1026A0000297A105B1050CF44BC18EA89FA8A8AC58
:1026B000B9AC181419041A041B040CF054C144E7F3
:1026C0005CE060E070E089809A80AB80BC80840E22
:1026D000951EA61EB71EC501B4010E94C31C2AEB9D
:1026E00039E444E151E40E94A61F0E940E207A833F
:1026F0006983693823E172070CF4F3C08EE848E877
:1027000053E15A8349839FEF97BD809588BDF89424
:10271000A0911E01B0911F017894809004019090C7
:102720000501A0900601B090070124E630E00E9468
:10273000AC1E9B01AC01281939094A095B09A8EEB6
:10274000B3E00E94B31E2DE732E140E050E00E946A
:102750008D1E190158895F938F858F939E859F9356
:10276000AD85AF93B885BF93EF81EF93FE81FF9363
:102770008D808F92FF92EF92DF92CF923F932F93B3
:102780009A809F92A980AF92BC84BF922B852F9391
:102790003A853F9349854F93ABEDB0E0BF93AF933C
:1027A0008DA48F920F930E9423230FB6F894DEBF5F
:1027B0000FBECDBF31E0398753014201C982DA82B1
:1027C000EB82FC8271CB6D817E818F8198850E9426
:1027D000C31C20ED3FE049E450E40E94FE1C20E0D1
:1027E00030E044E353E40E94A61F20E030E04AE7D3
:1027F00054E40E94A61F6D8B7E8B8F8B988FC70130
:10280000B6010E94C31C20E034E244E759E40E9470
:10281000A61F698B7A8B8B8B9C8BA885AF93BF810E
:10282000BF93EE81EF93FD81FF93FF92EF92DF92D2
:10283000CF9282E591E09F938F932DA52F930F93D5
:102840000E9423230FB6F894DEBF0FBECDBF8D814B
:102850009E81AF81B88589579C4EAF4FBF4F8F3057
:102860009742A105B10508F0A7CF83EF90E09F93B1
:102870008F938DA58F930F930E9423230F900F901A
:102880000F900F90498E5A8E6B8E7C8E19861A8609
:102890001B861C86D701C601F7FE96CB8827992791
:1028A000DC018C199D09AE09BF098ECBB095A095AE
:1028B000909581959F4FAF4FBF4F91CB23E333E36B
:1028C00043E150ECC501B4010E949F1F87FF2BC05C
:1028D00023E333E343E150E4C501B4010E943B1F0D
:1028E00010CC68373CEE73070CF05CC021E748E77A
:1028F0005CEE5A83498327BD8FEF88BD08CF20E067
:1029000030E0A901C501B4010E949C201816B4F65C
:102910002DE435E14CE450E4C501B4010E949C2053
:1029200018160CF4E6CB6A961CAE1DAE1EAE1FAE9A
:102930006A9722961CAE1DAE1EAE1FAE2297FDCB2F
:10294000BA01A90177FD26C04B305105610571051B
:10295000ECF029813A814B815C8112161306140632
:1029600015060CF4ACCE44E057EF6FEF7FEFABCE23
:1029700050954095309521953F4F4F4F5F4F26968C
:102980002CAF3DAF4EAF5FAF26979ECB80E01A8253
:102990001982B9CE70956095509541955F4F6F4FF4
:1029A0007F4FD2CFDB0124E03DE30E94AC1E20E14B
:1029B00037E240E050E00E948D1EAFEFB0E00E9491
:1029C000B31E28E833E140E050E00E948D1E822FC4
:1029D00037FF99CE21508FCFA3E1B0E0E2EFF4E1D1
:1029E0000C94BE1E7C011B016A01FC011782168239
:1029F000838181FF66C3BE016F5F7F4F4B01F7018B
:102A00009381F10193FD859193FF81911F018823AB
:102A100009F453C3853239F493FD859193FF819175
:102A20001F01853239F4B70190E00E943E23560120
:102A30006501E5CF10E0512C20E02032A0F48B326C
:102A400069F030F4803259F0833269F420612CC08F
:102A50008D3239F0803339F4216026C02260246041
:102A600023C0286021C027FD27C030ED380F3A3041
:102A700078F426FF06C0FAE01F9F300D1124132FB3
:102A800013C06AE0569E300D1124532E20620CC0F4
:102A90008E3221F426FD11C3206406C08C3611F459
:102AA000206802C0883641F4F10193FD859193FFBF
:102AB00081911F018111C1CF9BEB980F933018F4C6
:102AC0002061805E06C09BE9980F933008F0AAC190
:102AD0002F7E26FF16E02F73722E853621F4F22FFB
:102AE000F0647F2E08C0863621F4622F6068762E4F
:102AF00002C01111115077FE07C01C3348F4442462
:102B00004394410E27E00BC0183030F4212F06C04B
:102B100027E04CE3442E03C027E017E0412C560188
:102B200074E0A70EB11CF6016081718182819381EE
:102B3000042DA4010E9491216C01098100FF02C0B3
:102B400003FF06C071FC07C072FC08C0612C08C0FE
:102B50003DE2632E05C02BE2622E02C090E2692E98
:102B6000802F8C7099F1662011F084E001C083E021
:102B7000851510F0512C0BC0581A73FC08C0B70112
:102B800080E290E00E943E235A94C9F7F3CF66207A
:102B900029F0B701862D90E00E943E2303FD03C07B
:102BA0000AE810E002C006E810E0F72DF0717F2E71
:102BB000F8018491882309F476C271108052B7011C
:102BC00090E00E943E230F5F1F4FF2CF77FE0FC0B1
:102BD0004C0C04FF04C08A81813309F44A94141414
:102BE00074F5F8E0F41578F588E0482E2CC076FCF2
:102BF0002AC0812F90E08C159D059CF06CEFC616C5
:102C00006FEFD60674F0772D7068772E0AC0E2E079
:102C1000F0E0EC0FFD1FE10FF11D8081803319F40E
:102C200011501111F4CF77FE0EC044244394410E8D
:102C3000812F90E0C816D9062CF41C1904C0442436
:102C4000439401C010E077FE07C01C141D043CF43F
:102C500096012F5F3F4F05C025E030E002C021E024
:102C600030E0662011F02F5F3F4F112331F0412FEC
:102C700050E04F5F5F4F240F351F452D50E0241764
:102C8000350714F4521A01C0512C872D897049F46C
:102C9000552039F0B70180E290E00E943E235A941B
:102CA000F7CF662029F0B701862D90E00E943E23E1
:102CB00073FC09C0552039F0B70180E390E00E9411
:102CC0003E235A94F7CF77FE5FC09C2D8D2DD7FE03
:102CD00002C090E080E0692E782E40E050E0C6010E
:102CE000841991099D878C87960126193709280D2B
:102CF000391D812F90E0EE27FF27E81BF90BFF8796
:102D0000EE87FFEF6F167F0669F4B7018EE290E061
:102D10002B8B3A8B488B598B0E943E2359894889CB
:102D20003A892B89C614D70454F06C857D856615C5
:102D300077052CF4F901E40FF51F818101C080E3D0
:102D400071E0671A71084F5F5F4FEE85FF856E1661
:102D50007F066CF0B70190E02B8B3A8B488B598B38
:102D60000E943E232B893A8948895989CACF6C141D
:102D70007D0439F49A81963318F4953311F404FFE5
:102D800081E3B70190E04BC08A81813309F00F7E67
:102D9000B70190E00E943E23111105C074FE18C0D7
:102DA00085E490E017C0B7018EE290E00E943E23D8
:102DB00082E066246394680EF401E80FF11D8081BF
:102DC000B70190E00E943E23115041F3862DF1CFD0
:102DD00085E690E0B7010E943E23D7FC05C0C114F0
:102DE000D10439F404FF05C0D194C194D1088DE217
:102DF00001C08BE2B70190E00E943E2380E36AE0CD
:102E0000C616D1042CF08F5FFAE0CF1AD108F7CFA5
:102E1000B70190E00E943E23B701C601C0960E9410
:102E20003E2341C1833631F0833779F0833509F091
:102E300058C021C0560172E0A70EB11CF601808176
:102E4000898301E010E0640114C05601F2E0AF0E86
:102E5000B11CF601C080D18026FF03C0612F70E055
:102E600002C06FEF7FEFC6012B8B0E948F228C0177
:102E70002B892F7715C05601F2E0AF0EB11CF60179
:102E8000C080D18026FF03C0612F70E002C06FEFC9
:102E90007FEFC6012B8B0E9484228C012B89206836
:102EA000722E23FD1AC0852D90E008171907A8F48B
:102EB000B70180E290E00E943E235A94F4CFF601DD
:102EC00077FC859177FE81916F01B70190E00E94B8
:102ED0003E2351105A94015011090115110579F73B
:102EE000E2C0843611F0893651F5560127FF09C03A
:102EF000F4E0AF0EB11CF601608171818281938193
:102F00000AC0F2E0AF0EB11CF60160817181882722
:102F100077FD8095982F022F0F7697FF08C0909528
:102F20008095709561957F4F8F4F9F4F00682AE085
:102F300030E0A4010E948923C82EC8183EC0022F89
:102F4000853721F40F7E2AE030E01DC0097F8F36DF
:102F500091F018F4883559F0B0C0803719F08837EF
:102F600011F0ABC0006104FF09C0046007C024FF7A
:102F700008C0066006C028E030E005C020E130E06F
:102F800002C020E132E0560107FF09C0F4E0AF0EB5
:102F9000B11CF601608171818281938108C0F2E0E9
:102FA000AF0EB11CF6016081718180E090E0A40158
:102FB0000E948923C82EC8180F7706FF0BC0202F48
:102FC0002E7FC11650F404FF0AC002FD08C0202F56
:102FD0002E7E05C0DC2C202F03C0DC2C01C0D12E9E
:102FE00024FF0DC0FE01EC0DF11D8081803311F432
:102FF000297E09C022FF06C0D394D39404C0822F37
:10300000867809F0D39423FD13C020FF06C01C2D41
:10301000D51418F4150D1D19D52CD51468F4B70165
:1030200080E290E02B8B0E943E23D3942B89F5CF36
:10303000D51410F45D1801C0512C24FF12C0B70143
:1030400080E390E02B8B0E943E232B8922FF17C048
:1030500021FF03C088E590E002C088E790E0B70157
:103060000CC0822F867859F021FD02C080E201C099
:103070008BE227FD8DE2B70190E00E943E23C1164E
:1030800038F4B70180E390E00E943E231150F7CF5F
:10309000CA94F401EC0DF11D8081B70190E00E940B
:1030A0003E23C110F5CF552009F4C2CCB70180E210
:1030B00090E00E943E235A94F6CFF70186819781D3
:1030C00002C08FEF9FEF6396E2E10C94DA1E20FDC1
:1030D00009C0FC0123FD05C022FF02C07383628387
:1030E00051834083089544FD10C046FD10C0DB01AC
:1030F000FC01AA0FBB1FEE1FFF1F1094D1F76A0F30
:103100007B1F8E1F9F1F31E003C033E001C034E0FE
:10311000660F771F881F991F3150D1F7620F711DFD
:10312000811D911D08950F931F93CF93DF938C0101
:10313000C8010E94E522EC0197FD08C00E946922A7
:10314000892BB1F7B801CE010E947023CE01DF9127
:10315000CF911F910F9108956F927F929F92AF929E
:10316000BF92CF92DF92EF92FF920F931F93CF9374
:10317000DF931F92CDB7DEB78C013B015A01298343
:103180000E94E522AC01552729814B32510521F0DF
:103190004D32510581F4206831E0631A71086114E1
:1031A000710411F480E07FC0C80129830E94E522E8
:1031B000298197FDF7CFE22FED7F9E2E322F3073BE
:1031C00079F5803369F57301F1E0EF1AF108E11444
:1031D000F10409F454C0C80129830E94E522298121
:1031E00097FD4DC0382F3F7D383581F4292D22645D
:1031F000922E32E0631A71086114710409F43FC021
:10320000C8010E94E52297FF0BC039C026FF04C009
:10321000E92DE2609E2E03C0F92DF2619F2E370149
:10322000C12CD12C760120ED280F283080F094FE9F
:1032300004C0B8010E9470231FC02A3040F096FEDF
:10324000F8CF2F7D3FEE320F363098F72750492DBB
:10325000C701B6010E9473186B017C01292D226001
:10326000922E31E0631A71086114710459F0C8019B
:103270000E94E52297FFD7CF91FC04C093CFC12CC9
:10328000D12C760197FE08C0F094E094D094C094BD
:10329000C11CD11CE11CF11C292DB701A601C501DF
:1032A0000E94671881E00F90DF91CF911F910F91DD
:1032B000FF90EF90DF90CF90BF90AF909F907F9066
:1032C0006F900895A0E2B0E0E8E6F9E10C94C01E2A
:1032D0005C014B017A018E010F5F1F4F680180E294
:1032E000F80111928A95E9F7F501638080E090E09A
:1032F000712C412CB0E041E050E0F90163FC5590A5
:1033000063FE51908F01A52D9F01511003C080E0F5
:1033100090E07FC0FEE55F1202C0009761F16B2F65
:1033200070E0681779074CF46DE5561661F1EDE22F
:103330005E1203C0442009F103C0411001C0752C86
:103340006A2F669566956695F601E60FF11D6A2F60
:1033500067708A0102C0000F111F6A95E2F7B80179
:103360007081762B7083A71559F0A71510F4AF5F05
:10337000E7CFA150E5CFB1E004C04424439401C09D
:10338000412C0196BACF442019F08E8180628E8341
:10339000B11103C07724739419C0F601CE01819650
:1033A000208120952193E817F907D1F7F3CFE11495
:1033B000F10429F0F7018083C70101967C0191E0B7
:1033C000891A910881149104F1F0712CC5010E94B1
:1033D000E52297FD16C0282F269526952695F601FD
:1033E000E20FF11D208130E0AC014770552702C08B
:1033F000359527954A95E2F720FDD9CFB5010E9472
:103400007023711084CFE114F10411F0F7011082E0
:10341000C801A096E0E10C94DC1E2F923F924F92DF
:103420005F926F927F929F92AF92BF92CF92DF9204
:10343000EF92FF920F931F93CF93DF9300D000D0B2
:1034400000D0CDB7DEB76C018B011A010E94E522D6
:103450009E838D8399278B32910529F08D9799F45E
:1034600080E8982E01C0912C015011090115110519
:1034700011F480E036C1C6010E94E5229E838D834F
:1034800097FF02C0F6CF912C8D819E810E94712200
:103490008936910541F08E369105D9F5B0EA6B2E4B
:1034A000B0E07B2E04C0A3EA6A2EA0E07A2E8FEF54
:1034B000681A780AF3013197B490BB20F1F00150FB
:1034C00011090115110571F0C6010E94E5227C0168
:1034D00097FD08C00E947122B81649F3B601C701D2
:1034E0000E94702326EA621620E0720609F0C1CF1E
:1034F00080E090E0A0E8BFE709C093EA691690E099
:103500007906B1F780E090E0A0ECBFE7BC01CD0107
:10351000D8C0412C512C3201E12CF12C2D812053AB
:103520002A3028F5E92DE260BE2E892D887092FEA2
:1035300006C0811123C0FFEFEF1AFF0A1FC08823C6
:1035400019F081E0E81AF10840E2C301B2010E94DB
:1035500073182B013C0198E9491699E95906690647
:1035600099E1790658F0E92DE660BE2E07C02E3F9E
:10357000A1F493FC12C0F92DF860BF2E015011097F
:103580000115110549F0C6010E94E5229E838D8335
:103590009B2C97FD02C0C2CF9B2C91FE6ACF8D81E0
:1035A0008F7D853409F056C0580121E0A21AB10878
:1035B000A114B10409F45DCFC6010E94E5229E83E7
:1035C0008D8397FD56CF99278B32910529F08D97E2
:1035D00081F4892D8061982E580192E0A91AB108D2
:1035E000A114B10409F445CFC6010E94E5229E83CF
:1035F0008D838D819E81C0970A9708F03ACF85010F
:10360000A12CB12CB501882777FD8095982F2D81AD
:10361000205340E20E947318AB01BC015A010150D3
:1036200011090115110571F0C60149835A836B8395
:103630007C830E94E5229E838D83C09749815A81B5
:103640000A9700F394FE04C0AA24BB24A41AB50A66
:10365000EA0CFB1C012B41F0ED81FE81F7FD04C05B
:10366000B601CF010E947023C301B2010E94C11CA8
:10367000F7FE08C0F194E194F108FFEBAF2EF0E003
:10368000BF2E04C0E7EDAE2EE0E0BE2E6501F8E1EE
:10369000CF1AD10800E210E0E016F10650F0F50173
:1036A00025913591459154910E94FE1CE01AF10A32
:1036B000F3CF24E0A21AB10816950795AC14BD0407
:1036C00059F797FE05C0DC01CB01B058BC01CD0114
:1036D0002114310429F0F101608371838283938383
:1036E00081E026960FB6F894DEBF0FBECDBFDF9106
:1036F000CF911F910F91FF90EF90DF90CF90BF90EF
:10370000AF909F907F906F905F904F903F902F90E1
:103710000895A1E0B0E0EFE8FBE10C94C01E8C013D
:103720002B017A01FC0117821682A12CF801D380AB
:10373000F201D3FC8591D3FE8191382F2F0188238C
:1037400009F416C190E039830E9469223981892BDE
:1037500021F0C8010E949318E9CF353241F4F201FB
:10376000D3FC3591D3FE31912F01353269F4C80174
:1037700039830E94E522398197FDF8C03817B1F2EC
:10378000B8010E947023F4C03A3241F4D3FC359161
:10379000D3FE31912F01BB24B39401C0B12C812CF5
:1037A000912C20ED230F2A3088F4FB2DF260BF2EE0
:1037B000B40180E090E040E20E9473184B01F201F6
:1037C000D3FC3591D3FE31912F01EBCFB1FE04C074
:1037D0008114910421F4CCC088248A94982C383622
:1037E00019F03C3661F014C0F201D3FC3591D3FEE0
:1037F00031912F01383661F4FB2DF860BF2E8B2DEF
:103800008460B82EF201D3FC3591D3FE31912F01A3
:10381000332309F4ADC0632F70E08EE890E0398364
:103820000E9479223981892B09F4A2C0B0FC07C01B
:10383000F701C080D180C70102967C0102C0C12C73
:10384000D12C3E3651F4F8014681578160E070E09A
:103850002B2DC6010E94671869CF3336C9F4B1FC1D
:1038600003C088248394912CC8010E94E52297FD0F
:103870007DC0C114D10429F0F6018083C6010196F0
:103880006C0191E0891A91088114910469F76AC06A
:103890003B3559F49201A601B401C8010E94621996
:1038A0002C01009709F05EC058C0C80139830E94FE
:1038B0009318398197FD5AC03F36F1F140F4343600
:1038C000B9F13936E1F1383509F040C02DC0333750
:1038D000B9F018F4303741F139C0353749F138378C
:1038E00019F134C0C114D10429F0F6016082C60177
:1038F00001966C0191E0891A91088114910471F08C
:10390000C8010E94E5223C0197FD08C00E9469227F
:10391000892B41F3B801C3010E947023C114D10463
:1039200009F1F60110821EC0FB2DF064BF2E07C006
:103930008B2D8062B82E03C09B2D9061B92E2B2D4C
:10394000A601B401C8010E94AC1805C0A601B401CB
:10395000C8010E940D1A811105C0F801838180738E
:1039600029F406C0B0FCE2CEA394E0CEAA2019F060
:103970008A2D90E002C08FEF9FEF2196E0E10C943A
:10398000DC1EE89409C097FB3EF4909580957095F5
:1039900061957F4F8F4F9F4F9923A9F0F92F96E99B
:1039A000BB279395F695879577956795B795F11110
:1039B000F8CFFAF4BB0F11F460FF1BC06F5F7F4FAD
:1039C0008F4F9F4F16C0882311F096E911C07723BF
:1039D00021F09EE8872F762F05C0662371F096E8C8
:1039E000862F70E060E02AF09A95660F771F881F97
:1039F000DAF7880F9695879597F908950BD078C0D8
:103A000069D028F06ED018F0952309F05AC05FC035
:103A10001124A2C07ED0A0F3959FD1F3950F50E062
:103A2000551F629FF001729FBB27F00DB11D639F70
:103A3000AA27F00DB11DAA1F649F6627B00DA11D16
:103A4000661F829F2227B00DA11D621F739FB00DBC
:103A5000A11D621F839FA00D611D221F749F33272C
:103A6000A00D611D231F849F600D211D822F762FC5
:103A70006A2F11249F5750408AF0E1F088234AF0C2
:103A8000EE0FFF1FBB1F661F771F881F915050400E
:103A9000A9F79E3F510570F014C05EC05F3FECF384
:103AA000983EDCF3869577956795B795F795E795FA
:103AB0009F5FC1F7FE2B880F911D9695879597F90B
:103AC000089597F99F6780E870E060E008959FEFA0
:103AD00080EC089500240A941616170618060906A5
:103AE000089500240A941216130614060506089574
:103AF000092E0394000C11F4882352F0BB0F40F4FC
:103B0000BF2B11F460FF04C06F5F7F4F8F4F9F4F3B
:103B1000089557FD9058440F551F59F05F3F71F0BD
:103B20004795880F97FB991F61F09F3F79F0879524
:103B30000895121613061406551FF2CF4695F1DFAD
:103B400008C0161617061806991FF1CF869571053D
:103B5000610508940895E894BB2766277727CB0171
:103B600097F90895CF93DF93CDB7DEB72E970FB6B1
:103B7000F894DEBF0FBECDBF229A2A9880E48093CE
:103B80007C008FEA80937A0010927B007894809179
:103B90007A00806480937A008AB180668AB98FEF58
:103BA00088BD87BD80EF84BD84B5836084BD85B545
:103BB000816085BD85E08093810010928500109220
:103BC000840080916F00816080936F0078941092E0
:103BD00020018AB180668AB98FEF88BD87BD80EFEA
:103BE00084BD84B5836084BD85B5816085BD0E9438
:103BF000BB02529A539A3B982A9A2FEF83ED90E397
:103C0000215080409040E1F700C0000028E833E1F7
:103C100060E070E0CB01AFE9BFE01197F1F700C0C1
:103C20000000F89440911E0150911F01640F751F10
:103C3000811D911D7894215031092115310559F7C5
:103C400022E330E040E050E00E948D1E209304010A
:103C50003093050140930601509307010E945D03D4
:103C6000FE0131968EE0DF011D928A95E9F783E02F
:103C70008C8380E792E09A87898789E792E09C8726
:103C80008B87F0932401E0932301F0932201E093CA
:103C900021015C98EFE9FFE03197F1F700C00000E7
:103CA0005C9AF89410928500109284001092200182
:103CB0007894CE0101960E94AD0E2A9880E090E0A3
:103CC0002E960FB6F894DEBF0FBECDBFDF91CF9119
:103CD0000895DB018F939F930E94B31EBF91AF9114
:103CE000A29F800D911DA39F900DB29F900D112456
:103CF000089597FB072E16F4009407D077FD09D09E
:103D00000E94F51E07FC05D03EF4909581959F4FCB
:103D10000895709561957F4F0895052E97FB1EF4C9
:103D200000940E94A41E57FD07D00E94091F07FCA3
:103D300003D04EF40C94A41E5095409530952195D7
:103D40003F4F4F4F5F4F08959095809570956195C7
:103D50007F4F8F4F9F4F08950E942B1FB7FF0895ED
:103D6000821B930B08950E942B1FA59F900DB49F5B
:103D7000900DA49F800D911D112408952F923F92C4
:103D80004F925F926F927F928F929F92AF92BF926B
:103D9000CF92DF92EF92FF920F931F93CF93DF9317
:103DA000CDB7DEB7CA1BDB0B0FB6F894DEBF0FBE74
:103DB000CDBF09942A88398848885F846E847D84C1
:103DC0008C849B84AA84B984C884DF80EE80FD80C3
:103DD0000C811B81AA81B981CE0FD11D0FB6F89439
:103DE000DEBF0FBECDBFED010895AA1BBB1B51E185
:103DF00007C0AA1FBB1FA617B70710F0A61BB70B5B
:103E0000881F991F5A95A9F780959095BC01CD01FF
:103E10000895A1E21A2EAA1BBB1BFD010DC0AA1F0B
:103E2000BB1FEE1FFF1FA217B307E407F50720F023
:103E3000A21BB30BE40BF50B661F771F881F991F9E
:103E40001A9469F760957095809590959B01AC01E7
:103E5000BD01CF010895A29FB001B39FC001A39FF0
:103E6000700D811D1124911DB29F700D811D1124B3
:103E7000911D08955058BB27AA270ED039CE2ADEAF
:103E800030F02FDE20F031F49F3F11F41EF41FCEEE
:103E90000EF4E095E7FB15CEE92F3BDE80F3BA1771
:103EA000620773078407950718F071F49EF553CEE7
:103EB0000EF4E0950B2EBA2FA02D0B01B901900145
:103EC0000C01CA01A0011124FF27591B99F0593F89
:103ED00050F4503E68F11A16F040A22F232F342FD1
:103EE0004427585FF3CF469537952795A795F0401F
:103EF0005395C9F77EF41F16BA0B620B730B840B34
:103F0000BAF09150A1F0FF0FBB1F661F771F881FEB
:103F1000C2F70EC0BA0F621F731F841F48F4879543
:103F200077956795B795F7959E3F08F0B3CF939532
:103F3000880F08F09927EE0F9795879508959FD0E1
:103F400008F481E00895C0D0E395E5C00CD0D0CD51
:103F5000C8DD40F0BFDD30F021F45F3F19F0B1CD96
:103F60005111FACDB4CDD5DD98F39923C9F355237A
:103F7000B1F3951B550BBB27AA276217730784075C
:103F800038F09F5F5F4F220F331F441FAA1FA9F312
:103F900033D00E2E3AF0E0E830D091505040E69504
:103FA000001CCAF729D0FE2F27D0660F771F881F65
:103FB000BB1F261737074807AB07B0E809F0BB0B54
:103FC000802DBF01FF2793585F4F2AF09E3F510578
:103FD00068F077CDC1CD5F3FECF3983EDCF386957A
:103FE00077956795B795F7959F5FC9F7880F911DEE
:103FF0009695879597F90895E1E0660F771F881FDA
:10400000BB1F621773078407BA0720F0621B730B8C
:10401000840BBA0BEE1F88F7E095089504D06894DE
:10402000B1119ACD08957DDD88F09F5790F0B92F9A
:104030009927B751A0F0D1F0660F771F881F991FFD
:104040001AF0BA95C9F712C0B13081F084DDB1E041
:10405000089581CD672F782F8827B85F39F0B93F51
:10406000CCF3869577956795B395D9F73EF49095FF
:104070008095709561957F4F8F4F9F4F0895990F51
:104080000008550FAA0BE0E8FEEF16161706E80722
:10409000F907C0F012161306E407F50798F0621B43
:1040A000730B840B950B39F40A2661F0232B242B18
:1040B000252B21F408950A2609F4A140A6958FEF37
:1040C000811D811D089503CD2CDDE8F3E894E0E027
:1040D000BB279F57F0F02AED3FE049EC06C0EE0FFA
:1040E000BB0F661F771F881F28F0B23A620773075D
:1040F000840728F0B25A620B730B840BE3959A95F0
:1041000072F7803830F49A95BB0F661F771F881FAF
:10411000D2F790485FC0EF93E0FF06C0A2EA2AED15
:104120003FE049EC5FEBB8DEE3DC0F90039401FC69
:104130009058E8E6F0E061C0A2DF08F48FEF089540
:104140009F93C2DF0F9007FCEE5FE5CF11F40EF4F2
:10415000BECC3EC0E6DCD0F39923D9F3CEF39F5713
:10416000550B87FF43D00024A0E640EA9001805819
:104170005695979528F4805C660F771F881F20F06E
:1041800026173707480730F4621B730B840B20296E
:1041900031294A2BA69517940794202531254A27C3
:1041A00058F7660F771F881F20F026173707480734
:1041B00030F4620B730B840B200D311D411DA09553
:1041C00081F7B901842F9158880F969587950895A6
:1041D0009F3F31F0915020F4879577956795B7957B
:1041E000880F911D9695879597F9089591505040A5
:1041F000660F771F881FD2F708959F938F937F9341
:104200006F93FF93EF939B01AC01F8DBEF91FF916C
:1042100005D02F913F914F915F91F0CBDF93CF93DA
:104220001F930F93FF92EF92DF927B018C016894B2
:1042300005C0DA2EEF01EEDBFE01E894A591259191
:10424000359145915591AEF3EF0126DEFE019701C0
:10425000A801DA9479F7DF90EF90FF900F911F910A
:10426000CF91DF9108958F929F92AF92BF92CF929C
:10427000DF92EF92FF92CF93DF93EC016881798117
:104280008A819B81611571058105910521F464E2A4
:1042900079ED8BE597E02DE133EF41E050E00E94AE
:1042A0008D1E49015A019B01AC01A7EAB1E40E94AD
:1042B000B31E6B017C01ACEEB4EFA50194010E942A
:1042C0003725C60ED71EE81EF91EF7FE06C081E090
:1042D000C81AD108E10880E8F80AC882D982EA82BF
:1042E000FB82C6019F77DF91CF91FF90EF90DF9027
:1042F000CF90BF90AF909F908F9008950E943321F0
:10430000089588E091E00E9433210895A0E0B0E094
:104310008093080190930901A0930A01B0930B01C7
:104320000895283008F027E03327DA01990F311D6E
:1043300087FD916000966105710539F432602E5F4A
:104340003D9330E32A95E1F708959F3F30F08038A0
:104350007105610509F03C5F3C5F3D93913008F0C9
:104360008068911DDF93CF931F930F93FF92EF927D
:10437000192F987F9695E92F96959695E90FFF2727
:10438000EE5FFB4F99273327EE24FF24A701E701B7
:1043900005900894079428F4360FE71EF81E491F6D
:1043A000511D660F771F881F991F0694A1F705906E
:1043B000079428F4E70EF81E491F561FC11D770FFA
:1043C000881F991F661F0694A1F70590079428F48B
:1043D000F80E491F561FC71FD11D880F991F661F52
:1043E000771F0694A1F70590079420F4490F561FF4
:1043F000C71FD81F990F661F771F881F0694A9F73C
:1044000084911095177041F0D695C79557954795AB
:10441000F794E7941A95C1F7E8EAF3E068941590E9
:10442000159135916591959105907FE27395E1180D
:10443000F10A430B560BC90BD009C0F7E10CF11E72
:10444000431F561FC91FD01D7EF4703311F48A9587
:10445000E6CFE894015030F0080F0AF40027021765
:1044600008F4202F2395022F7A3328F079E37D93E7
:104470002A95E9F710C07D932A9589F606949795B9
:104480006795379517951794E118F10A430B560B6A
:10449000C90BD00998F023957E9173957A3308F073
:1044A00070E37C932013B8F77E9170617D9330F0B8
:1044B000839571E37D9370E32A95E1F71124EF90E2
:1044C000FF900F911F91CF91DF91992787FD9095D4
:1044D00008959111BFC2803219F089508550D0F7EC
:1044E00008959111089581548A5108F4805E855A87
:1044F0000895FC010590061621F00020D9F7C001AF
:1045000008953197CF010895FC01059061507040E6
:104510000110D8F7809590958E0F9F1F0895FC018C
:104520006150704001900110D8F7809590958E0FE2
:104530009F1F08950F931F93CF93DF93EC018B017F
:10454000009731F46115710519F480E090E038C0EE
:104550006EE070E081E090E00E94E723FC010097AC
:10456000A1F380E883830115110571F01387028799
:1045700081E883838091210190912201892B21F48C
:10458000F0932201E09321012097C9F0D187C087E1
:104590008381826083838091230190912401892B00
:1045A00071F4F0932401E09323018091250190910F
:1045B0002601892B21F4F0932601E0932501CF01F8
:1045C000DF91CF911F910F910895CF93DF93EC016D
:1045D0002B8120FF33C026FF0AC02F7B2B838E81C7
:1045E0009F8101969F838E838A8190E029C022FF5C
:1045F0000FC0E881F9818081992787FD9095009708
:1046000019F420622B831AC03196F983E8830EC017
:10461000EA85FB85099597FF09C02B81019611F466
:1046200080E101C080E2822B8B8308C02E813F8114
:104630002F5F3F4F3F832E83992702C08FEF9FEF5D
:10464000DF91CF910895A0E0B0E0E9E2F3E20C94AD
:10465000CC1E0F811885F801838188608383AE01A9
:10466000455F5F4F69857A85C8010E94EC14F801A7
:104670002381277F2383E4E00C94E81E0F931F938C
:10468000CF93DF93182F092FEB018B8181FD03C09E
:104690008FEF9FEF20C082FF10C04E815F812C8181
:1046A0003D81421753077CF4E881F9819F012F5F18
:1046B0003F4F39832883108306C0E885F985812F11
:1046C0000995892B29F72E813F812F5F3F4F3F832B
:1046D0002E83812F902FDF91CF911F910F910895FD
:1046E000FB01238120FF12C026FD10C08F3F3FEF4A
:1046F000930761F082832F7D206423832681378195
:104700002150310937832683992708958FEF9FEF32
:104710000895FA01AA27283051F1203181F1E89457
:104720006F936E7F6E5F7F4F8F4F9F4FAF4FB1E0A4
:104730003ED0B4E03CD0670F781F891F9A1FA11D9F
:10474000680F791F8A1F911DA11D6A0F711D811DA0
:10475000911DA11D20D009F468943F912AE0269F65
:1047600011243019305D3193DEF6CF010895462FC4
:104770004770405D4193B3E00FD0C9F7F6CF462FA5
:104780004F70405D4A3318F0495D31FD405241930E
:1047900002D0A9F7EACFB4E0A695979587957795CB
:1047A0006795BA95C9F700976105710508959B0152
:1047B000AC010A2E06945795479537952795BA95DB
:1047C000C9F7620F731F841F951FA01D08950F93D3
:1047D0001F93CF93DF93869F8001879F100D969F35
:1047E000100D1124C8010E940324EC01009729F048
:1047F000A80160E070E00E942D25CE01DF91CF91ED
:104800001F910F910895CF93DF938230910510F49B
:1048100082E090E0E0912901F0912A0120E030E06F
:10482000A0E0B0E0309739F1408151814817590735
:10483000B8F04817590771F482819381109729F0D5
:1048400013969C938E9312972CC090932A01809379
:10485000290127C02115310531F04217530718F0FF
:10486000A901DB0101C0EF019A01BD01DF01028056
:10487000F381E02DD7CF21153105F9F0281B390B35
:104880002430310580F48A819B816115710521F006
:10489000FB019383828304C090932A0180932901B2
:1048A000FE01329644C0FE01E20FF31F8193919303
:1048B00022503109398328833AC020912701309151
:1048C0002801232B41F420910E0130910F013093E8
:1048D00028012093270120910C0130910D01211511
:1048E000310541F42DB73EB74091100150911101AF
:1048F000241B350BE0912701F0912801E217F30703
:10490000A0F42E1B3F0B2817390778F0AC014E5F3F
:104910005F4F2417350748F04E0F5F1F5093280153
:10492000409327018193919302C0E0E0F0E0CF0132
:10493000DF91CF910895CF93DF93009709F487C05B
:10494000FC01329713821282C0912901D0912A0171
:10495000209781F420813181280F391F8091270110
:10496000909128018217930779F5F0932801E0933D
:1049700027016DC0DE0120E030E0AE17BF0750F424
:1049800012964D915C9113979D014115510509F1C6
:10499000DA01F3CFB383A28340815181840F951F45
:1049A0008A179B0771F48D919C911197840F951F25
:1049B00002969183808312968D919C911397938395
:1049C00082832115310529F4F0932A01E09329010E
:1049D0003EC0D9011396FC93EE9312974D915D91D1
:1049E000A40FB51FEA17FB0779F480819181840F2A
:1049F000951F0296D90111969C938E938281938183
:104A000013969C938E931297E0E0F0E08A819B814D
:104A1000009719F0FE01EC01F9CFCE010296288132
:104A20003981820F931F2091270130912801281787
:104A3000390769F4309729F410922A01109229015C
:104A400002C013821282D0932801C0932701DF9104
:104A5000CF910895992788270895DC0101C06D93AF
:104A600041505040E0F70895B7FF0C94B31E0E94E8
:0C4A7000B31E821B930B0895F894FFCF37
:104A7C00A00F000000C800000100000000002B0186
:0A4A8C0020000100000001010001FC
:00000001FF
